8=FIXT.1.1|9=78|35=A|34=1|49=vpft1001|52=20231202-04:36:17.710|56=vpfc1001|98=0|108=30|1137=7|10=128|8=FIXT.1.1|9=78|35=A|34=2|49=vpft1001|52=20231202-04:40:33.710|56=vpfc1001|98=0|108=30|1137=7|10=122|8=FIXT.1.1|9=78|35=A|34=3|49=vpft1001|52=20231202-04:42:46.830|56=vpfc1001|98=0|108=30|1137=7|10=132|8=FIXT.1.1|9=78|35=A|34=4|49=vpft1001|52=20231202-04:44:59.950|56=vpfc1001|98=0|108=30|1137=7|10=142|8=FIXT.1.1|9=78|35=A|34=5|49=vpft1001|52=20231202-04:47:13.070|56=vpfc1001|98=0|108=30|1137=7|10=129|8=FIXT.1.1|9=78|35=A|34=6|49=vpft1001|52=20231202-04:49:26.190|56=vpfc1001|98=0|108=30|1137=7|10=139|8=FIXT.1.1|9=78|35=A|34=7|49=vpft1001|52=20231202-04:51:39.310|56=vpfc1001|98=0|108=30|1137=7|10=131|8=FIXT.1.1|9=78|35=A|34=8|49=vpft1001|52=20231202-04:53:52.430|56=vpfc1001|98=0|108=30|1137=7|10=132|8=FIXT.1.1|9=78|35=A|34=9|49=vpft1001|52=20231202-04:56:05.550|56=vpfc1001|98=0|108=30|1137=7|10=137|8=FIXT.1.1|9=79|35=A|34=10|49=vpft1001|52=20231202-04:58:18.670|56=vpfc1001|98=0|108=30|1137=7|10=187|8=FIXT.1.1|9=79|35=A|34=11|49=vpft1001|52=20231202-05:00:31.790|56=vpfc1001|98=0|108=30|1137=7|10=174|8=FIXT.1.1|9=79|35=A|34=12|49=vpft1001|52=20231202-05:02:44.910|56=vpfc1001|98=0|108=30|1137=7|10=175|8=FIXT.1.1|9=79|35=A|34=13|49=vpft1001|52=20231202-05:04:58.030|56=vpfc1001|98=0|108=30|1137=7|10=176|8=FIXT.1.1|9=79|35=A|34=14|49=vpft1001|52=20231202-05:07:11.150|56=vpfc1001|98=0|108=30|1137=7|10=172|8=FIXT.1.1|9=79|35=A|34=15|49=vpft1001|52=20231202-05:09:24.280|56=vpfc1001|98=0|108=30|1137=7|10=183|8=FIXT.1.1|9=79|35=A|34=16|49=vpft1001|52=20231202-05:11:37.390|56=vpfc1001|98=0|108=30|1137=7|10=183|8=FIXT.1.1|9=79|35=A|34=17|49=vpft1001|52=20231202-05:13:50.510|56=vpfc1001|98=0|108=30|1137=7|10=175|8=FIXT.1.1|9=79|35=A|34=18|49=vpft1001|52=20231202-05:16:03.630|56=vpfc1001|98=0|108=30|1137=7|10=180|8=FIXT.1.1|9=79|35=A|34=19|49=vpft1001|52=20231202-05:18:16.750|56=vpfc1001|98=0|108=30|1137=7|10=190|8=FIXT.1.1|9=79|35=A|34=20|49=vpft1001|52=20231202-05:20:31.088|56=vpfc1001|98=0|108=30|1137=7|10=176|8=FIXT.1.1|9=79|35=A|34=21|49=vpft1001|52=20231202-05:20:32.095|56=vpfc1001|98=0|108=30|1137=7|10=176|8=FIXT.1.1|9=79|35=A|34=22|49=vpft1001|52=20231202-05:20:33.102|56=vpfc1001|98=0|108=30|1137=7|10=167|8=FIXT.1.1|9=79|35=A|34=23|49=vpft1001|52=20231202-05:20:34.110|56=vpfc1001|98=0|108=30|1137=7|10=168|8=FIXT.1.1|9=79|35=A|34=24|49=vpft1001|52=20231202-05:20:35.120|56=vpfc1001|98=0|108=30|1137=7|10=171|8=FIXT.1.1|9=79|35=A|34=25|49=vpft1001|52=20231202-05:20:36.126|56=vpfc1001|98=0|108=30|1137=7|10=179|8=FIXT.1.1|9=79|35=A|34=26|49=vpft1001|52=20231202-05:20:37.133|56=vpfc1001|98=0|108=30|1137=7|10=179|8=FIXT.1.1|9=79|35=A|34=27|49=vpft1001|52=20231202-05:20:38.141|56=vpfc1001|98=0|108=30|1137=7|10=180|8=FIXT.1.1|9=79|35=A|34=28|49=vpft1001|52=20231202-05:20:39.147|56=vpfc1001|98=0|108=30|1137=7|10=188|