8=FIXT.1.1|9=67|35=A|34=1|49=VB|52=20231204-03:06:18.436|56=IDX|98=0|108=30|1137=7|10=012|8=FIXT.1.1|9=67|35=A|34=2|49=VB|52=20231204-03:06:19.453|56=IDX|98=0|108=30|1137=7|10=013|8=FIXT.1.1|9=67|35=A|34=3|49=VB|52=20231204-03:06:20.462|56=IDX|98=0|108=30|1137=7|10=006|8=FIXT.1.1|9=67|35=A|34=4|49=VB|52=20231204-03:06:21.470|56=IDX|98=0|108=30|1137=7|10=007|8=FIXT.1.1|9=67|35=A|34=5|49=VB|52=20231204-03:06:22.476|56=IDX|98=0|108=30|1137=7|10=015|8=FIXT.1.1|9=67|35=A|34=6|49=VB|52=20231204-03:06:23.482|56=IDX|98=0|108=30|1137=7|10=014|8=FIXT.1.1|9=67|35=A|34=7|49=VB|52=20231204-03:06:24.517|56=IDX|98=0|108=30|1137=7|10=015|8=FIXT.1.1|9=67|35=A|34=8|49=VB|52=20231204-03:06:25.521|56=IDX|98=0|108=30|1137=7|10=012|8=FIXT.1.1|9=67|35=A|34=9|49=VB|52=20231204-03:06:26.531|56=IDX|98=0|108=30|1137=7|10=015|8=FIXT.1.1|9=68|35=A|34=10|49=VB|52=20231204-03:06:27.538|56=IDX|98=0|108=30|1137=7|10=064|8=FIXT.1.1|9=68|35=A|34=11|49=VB|52=20231204-03:06:28.545|56=IDX|98=0|108=30|1137=7|10=064|8=FIXT.1.1|9=68|35=A|34=12|49=VB|52=20231204-03:06:29.548|56=IDX|98=0|108=30|1137=7|10=069|8=FIXT.1.1|9=68|35=A|34=13|49=VB|52=20231204-03:06:30.552|56=IDX|98=0|108=30|1137=7|10=057|8=FIXT.1.1|9=68|35=A|34=14|49=VB|52=20231204-03:06:31.558|56=IDX|98=0|108=30|1137=7|10=065|8=FIXT.1.1|9=68|35=A|34=15|49=VB|52=20231204-03:06:32.564|56=IDX|98=0|108=30|1137=7|10=064|8=FIXT.1.1|9=68|35=A|34=16|49=VB|52=20231204-03:06:33.566|56=IDX|98=0|108=30|1137=7|10=068|8=FIXT.1.1|9=68|35=A|34=17|49=VB|52=20231204-03:06:34.569|56=IDX|98=0|108=30|1137=7|10=073|8=FIXT.1.1|9=68|35=A|34=18|49=VB|52=20231204-03:06:35.570|56=IDX|98=0|108=30|1137=7|10=067|8=FIXT.1.1|9=68|35=A|34=19|49=VB|52=20231204-03:06:36.574|56=IDX|98=0|108=30|1137=7|10=073|8=FIXT.1.1|9=68|35=A|34=20|49=VB|52=20231204-03:06:37.590|56=IDX|98=0|108=30|1137=7|10=064|8=FIXT.1.1|9=68|35=A|34=21|49=VB|52=20231204-03:06:38.655|56=IDX|98=0|108=30|1137=7|10=068|8=FIXT.1.1|9=68|35=A|34=22|49=VB|52=20231204-03:06:39.676|56=IDX|98=0|108=30|1137=7|10=073|8=FIXT.1.1|9=68|35=A|34=23|49=VB|52=20231204-03:06:40.678|56=IDX|98=0|108=30|1137=7|10=068|8=FIXT.1.1|9=68|35=A|34=24|49=VB|52=20231204-06:24:12.544|56=IDX|98=0|108=30|1137=7|10=063|8=FIXT.1.1|9=68|35=A|34=25|49=VB|52=20231204-06:24:13.549|56=IDX|98=0|108=30|1137=7|10=070|8=FIXT.1.1|9=68|35=A|34=26|49=VB|52=20231204-06:24:14.580|56=IDX|98=0|108=30|1137=7|10=067|8=FIXT.1.1|9=68|35=A|34=27|49=VB|52=20231204-06:24:15.592|56=IDX|98=0|108=30|1137=7|10=072|8=FIXT.1.1|9=68|35=A|34=28|49=VB|52=20231204-06:24:16.601|56=IDX|98=0|108=30|1137=7|10=065|8=FIXT.1.1|9=68|35=A|34=29|49=VB|52=20231204-06:24:17.605|56=IDX|98=0|108=30|1137=7|10=071|8=FIXT.1.1|9=68|35=A|34=30|49=VB|52=20231204-06:24:18.609|56=IDX|98=0|108=30|1137=7|10=068|8=FIXT.1.1|9=68|35=A|34=31|49=VB|52=20231204-06:24:19.616|56=IDX|98=0|108=30|1137=7|10=068|8=FIXT.1.1|9=68|35=A|34=32|49=VB|52=20231204-06:24:20.618|56=IDX|98=0|108=30|1137=7|10=063|8=FIXT.1.1|9=68|35=A|34=33|49=VB|52=20231204-06:24:21.655|56=IDX|98=0|108=30|1137=7|10=066|8=FIXT.1.1|9=68|35=A|34=34|49=VB|52=20231204-06:24:22.658|56=IDX|98=0|108=30|1137=7|10=071|8=FIXT.1.1|9=68|35=A|34=35|49=VB|52=20231204-06:24:23.695|56=IDX|98=0|108=30|1137=7|10=074|8=FIXT.1.1|9=68|35=A|34=36|49=VB|52=20231204-06:24:24.697|56=IDX|98=0|108=30|1137=7|10=078|8=FIXT.1.1|9=68|35=A|34=37|49=VB|52=20231204-06:24:25.710|56=IDX|98=0|108=30|1137=7|10=066|8=FIXT.1.1|9=68|35=A|34=38|49=VB|52=20231204-06:24:26.711|56=IDX|98=0|108=30|1137=7|10=069|8=FIXT.1.1|9=68|35=A|34=39|49=VB|52=20231204-06:24:27.730|56=IDX|98=0|108=30|1137=7|10=072|8=FIXT.1.1|9=68|35=A|34=40|49=VB|52=20231204-06:24:28.765|56=IDX|98=0|108=30|1137=7|10=073|8=FIXT.1.1|9=68|35=A|34=41|49=VB|52=20231204-06:24:29.950|56=IDX|98=0|108=30|1137=7|10=071|8=FIXT.1.1|9=68|35=A|34=42|49=VB|52=20231204-06:24:30.952|56=IDX|98=0|108=30|1137=7|10=066|8=FIXT.1.1|9=68|35=A|34=43|49=VB|52=20231204-06:24:31.955|56=IDX|98=0|108=30|1137=7|10=071|8=FIXT.1.1|9=68|35=A|34=44|49=VB|52=20231204-06:24:32.961|56=IDX|98=0|108=30|1137=7|10=070|8=FIXT.1.1|9=68|35=A|34=45|49=VB|52=20231204-06:24:33.962|56=IDX|98=0|108=30|1137=7|10=073|8=FIXT.1.1|9=68|35=A|34=46|49=VB|52=20231204-06:24:34.964|56=IDX|98=0|108=30|1137=7|10=077|8=FIXT.1.1|9=68|35=A|34=47|49=VB|52=20231204-06:24:35.966|56=IDX|98=0|108=30|1137=7|10=081|8=FIXT.1.1|9=68|35=A|34=48|49=VB|52=20231204-06:24:36.966|56=IDX|98=0|108=30|1137=7|10=083|8=FIXT.1.1|9=68|35=A|34=49|49=VB|52=20231204-06:24:38.021|56=IDX|98=0|108=30|1137=7|10=068|8=FIXT.1.1|9=68|35=A|34=50|49=VB|52=20231204-06:24:39.022|56=IDX|98=0|108=30|1137=7|10=062|8=FIXT.1.1|9=68|35=A|34=51|49=VB|52=20231204-06:24:40.020|56=IDX|98=0|108=30|1137=7|10=053|8=FIXT.1.1|9=68|35=A|34=52|49=VB|52=20231204-06:24:42.008|56=IDX|98=0|108=30|1137=7|10=062|8=FIXT.1.1|9=68|35=A|34=53|49=VB|52=20231204-06:24:43.008|56=IDX|98=0|108=30|1137=7|10=064|8=FIXT.1.1|9=68|35=A|34=54|49=VB|52=20231204-06:24:44.006|56=IDX|98=0|108=30|1137=7|10=064|8=FIXT.1.1|9=68|35=A|34=55|49=VB|52=20231204-06:24:45.994|56=IDX|98=0|108=30|1137=7|10=082|8=FIXT.1.1|9=68|35=A|34=56|49=VB|52=20231204-06:24:46.989|56=IDX|98=0|108=30|1137=7|10=088|8=FIXT.1.1|9=68|35=A|34=57|49=VB|52=20231204-06:24:47.988|56=IDX|98=0|108=30|1137=7|10=089|8=FIXT.1.1|9=68|35=A|34=58|49=VB|52=20231204-06:24:48.986|56=IDX|98=0|108=30|1137=7|10=089|8=FIXT.1.1|9=68|35=A|34=59|49=VB|52=20231204-06:24:49.998|56=IDX|98=0|108=30|1137=7|10=094|8=FIXT.1.1|9=68|35=A|34=60|49=VB|52=20231204-06:24:51.002|56=IDX|98=0|108=30|1137=7|10=055|8=FIXT.1.1|9=68|35=A|34=61|49=VB|52=20231204-06:24:51.997|56=IDX|98=0|108=30|1137=7|10=079|8=FIXT.1.1|9=68|35=A|34=62|49=VB|52=20231204-06:24:52.990|56=IDX|98=0|108=30|1137=7|10=074|8=FIXT.1.1|9=68|35=A|34=63|49=VB|52=20231204-06:24:53.982|56=IDX|98=0|108=30|1137=7|10=077|8=FIXT.1.1|9=68|35=A|34=64|49=VB|52=20231204-06:24:54.975|56=IDX|98=0|108=30|1137=7|10=081|8=FIXT.1.1|9=68|35=A|34=65|49=VB|52=20231204-06:24:56.008|56=IDX|98=0|108=30|1137=7|10=071|8=FIXT.1.1|9=68|35=A|34=66|49=VB|52=20231204-06:24:57.003|56=IDX|98=0|108=30|1137=7|10=068|8=FIXT.1.1|9=68|35=A|34=67|49=VB|52=20231204-06:24:57.997|56=IDX|98=0|108=30|1137=7|10=091|8=FIXT.1.1|9=68|35=A|34=68|49=VB|52=20231204-06:24:59.013|56=IDX|98=0|108=30|1137=7|10=073|8=FIXT.1.1|9=68|35=A|34=69|49=VB|52=20231204-06:25:00.992|56=IDX|98=0|108=30|1137=7|10=077|8=FIXT.1.1|9=68|35=A|34=70|49=VB|52=20231204-06:25:01.983|56=IDX|98=0|108=30|1137=7|10=070|8=FIXT.1.1|9=68|35=A|34=71|49=VB|52=20231204-06:25:02.975|56=IDX|98=0|108=30|1137=7|10=073|8=FIXT.1.1|9=68|35=A|34=72|49=VB|52=20231204-06:25:04.006|56=IDX|98=0|108=30|1137=7|10=061|8=FIXT.1.1|9=68|35=A|34=73|49=VB|52=20231204-06:25:06.012|56=IDX|98=0|108=30|1137=7|10=061|8=FIXT.1.1|9=68|35=A|34=74|49=VB|52=20231204-06:25:08.009|56=IDX|98=0|108=30|1137=7|10=070|8=FIXT.1.1|9=68|35=A|34=75|49=VB|52=20231204-06:25:09.006|56=IDX|98=0|108=30|1137=7|10=069|8=FIXT.1.1|9=68|35=A|34=76|49=VB|52=20231204-06:25:09.995|56=IDX|98=0|108=30|1137=7|10=087|8=FIXT.1.1|9=68|35=A|34=77|49=VB|52=20231204-06:25:10.991|56=IDX|98=0|108=30|1137=7|10=076|8=FIXT.1.1|9=68|35=A|34=78|49=VB|52=20231204-06:25:11.980|56=IDX|98=0|108=30|1137=7|10=076|8=FIXT.1.1|9=68|35=A|34=79|49=VB|52=20231204-06:25:12.980|56=IDX|98=0|108=30|1137=7|10=078|