8=FIXT.1.1|9=70|35=A|34=1|49=vbfc1001|52=20231206-07:47:45.061|56=|98=0|108=30|1137=7|10=241|8=FIXT.1.1|9=70|35=A|34=2|49=vbfc1001|52=20231206-07:47:46.067|56=|98=0|108=30|1137=7|10=249|8=FIXT.1.1|9=70|35=A|34=3|49=vbfc1001|52=20231206-07:47:47.076|56=|98=0|108=30|1137=7|10=251|8=FIXT.1.1|9=70|35=A|34=4|49=vbfc1001|52=20231206-07:47:48.084|56=|98=0|108=30|1137=7|10=252|8=FIXT.1.1|9=70|35=A|34=5|49=vbfc1001|52=20231206-07:47:49.089|56=|98=0|108=30|1137=7|10=003|8=FIXT.1.1|9=70|35=A|34=6|49=vbfc1001|52=20231206-07:47:50.100|56=|98=0|108=30|1137=7|10=236|8=FIXT.1.1|9=70|35=A|34=7|49=vbfc1001|52=20231206-07:47:51.108|56=|98=0|108=30|1137=7|10=246|8=FIXT.1.1|9=70|35=A|34=8|49=vbfc1001|52=20231206-07:47:52.115|56=|98=0|108=30|1137=7|10=246|8=FIXT.1.1|9=70|35=A|34=9|49=vbfc1001|52=20231206-07:47:53.117|56=|98=0|108=30|1137=7|10=250|