8=FIXT.1.1|9=73|35=A|34=1|49=vbfc1001|52=20231204-06:25:15.946|56=IDX|98=0|108=30|1137=7|10=219|8=FIXT.1.1|9=73|35=A|34=2|49=vbfc1001|52=20231204-06:25:16.952|56=IDX|98=0|108=30|1137=7|10=218|8=FIXT.1.1|9=73|35=A|34=3|49=vbfc1001|52=20231204-06:25:17.966|56=IDX|98=0|108=30|1137=7|10=225|8=FIXT.1.1|9=73|35=A|34=4|49=vbfc1001|52=20231204-06:25:18.979|56=IDX|98=0|108=30|1137=7|10=231|8=FIXT.1.1|9=73|35=A|34=5|49=vbfc1001|52=20231204-06:25:20.002|56=IDX|98=0|108=30|1137=7|10=202|8=FIXT.1.1|9=73|35=A|34=6|49=vbfc1001|52=20231204-06:25:21.023|56=IDX|98=0|108=30|1137=7|10=207|8=FIXT.1.1|9=73|35=A|34=7|49=vbfc1001|52=20231204-06:25:22.027|56=IDX|98=0|108=30|1137=7|10=213|8=FIXT.1.1|9=73|35=A|34=8|49=vbfc1001|52=20231204-06:25:23.032|56=IDX|98=0|108=30|1137=7|10=211|8=FIXT.1.1|9=73|35=A|34=9|49=vbfc1001|52=20231204-06:25:24.038|56=IDX|98=0|108=30|1137=7|10=219|8=FIXT.1.1|9=74|35=A|34=10|49=vbfc1001|52=20231204-06:25:25.042|56=IDX|98=0|108=30|1137=7|10=000|8=FIXT.1.1|9=74|35=A|34=11|49=vbfc1001|52=20231204-06:25:26.046|56=IDX|98=0|108=30|1137=7|10=006|8=FIXT.1.1|9=74|35=A|34=12|49=vbfc1001|52=20231204-06:25:27.049|56=IDX|98=0|108=30|1137=7|10=011|8=FIXT.1.1|9=74|35=A|34=13|49=vbfc1001|52=20231204-06:25:28.051|56=IDX|98=0|108=30|1137=7|10=006|8=FIXT.1.1|9=74|35=A|34=14|49=vbfc1001|52=20231204-06:25:29.054|56=IDX|98=0|108=30|1137=7|10=011|8=FIXT.1.1|9=74|35=A|34=15|49=vbfc1001|52=20231204-06:25:30.061|56=IDX|98=0|108=30|1137=7|10=002|8=FIXT.1.1|9=74|35=A|34=16|49=vbfc1001|52=20231204-09:33:35.310|56=IDX|98=0|108=30|1137=7|10=007|8=FIXT.1.1|9=74|35=A|34=17|49=vbfc1001|52=20231204-09:33:36.321|56=IDX|98=0|108=30|1137=7|10=011|8=FIXT.1.1|9=74|35=A|34=18|49=vbfc1001|52=20231204-09:33:37.479|56=IDX|98=0|108=30|1137=7|10=027|8=FIXT.1.1|9=74|35=A|34=19|49=vbfc1001|52=20231204-09:33:38.653|56=IDX|98=0|108=30|1137=7|10=023|8=FIXT.1.1|9=74|35=A|34=20|49=vbfc1001|52=20231204-09:33:39.684|56=IDX|98=0|108=30|1137=7|10=020|8=FIXT.1.1|9=74|35=A|34=21|49=vbfc1001|52=20231204-09:33:41.126|56=IDX|98=0|108=30|1137=7|10=005|8=FIXT.1.1|9=74|35=A|34=22|49=vbfc1001|52=20231204-09:33:42.241|56=IDX|98=0|108=30|1137=7|10=005|8=FIXT.1.1|9=74|35=A|34=23|49=vbfc1001|52=20231204-09:33:43.366|56=IDX|98=0|108=30|1137=7|10=015|8=FIXT.1.1|9=74|35=A|34=24|49=vbfc1001|52=20231204-09:33:44.378|56=IDX|98=0|108=30|1137=7|10=020|8=FIXT.1.1|9=74|35=A|34=25|49=vbfc1001|52=20231204-09:33:45.548|56=IDX|98=0|108=30|1137=7|10=021|8=FIXT.1.1|9=74|35=A|34=26|49=vbfc1001|52=20231204-09:33:47.292|56=IDX|98=0|108=30|1137=7|10=020|8=FIXT.1.1|9=74|35=A|34=27|49=vbfc1001|52=20231204-09:33:48.858|56=IDX|98=0|108=30|1137=7|10=030|8=FIXT.1.1|9=74|35=A|34=28|49=vbfc1001|52=20231204-09:43:32.529|56=IDX|98=0|108=30|1137=7|10=020|8=FIXT.1.1|9=74|35=A|34=29|49=vbfc1001|52=20231204-09:43:33.541|56=IDX|98=0|108=30|1137=7|10=016|8=FIXT.1.1|9=74|35=A|34=30|49=vbfc1001|52=20231204-09:43:34.551|56=IDX|98=0|108=30|1137=7|10=010|8=FIXT.1.1|9=74|35=A|34=31|49=vbfc1001|52=20231204-09:43:35.560|56=IDX|98=0|108=30|1137=7|10=012|8=FIXT.1.1|9=74|35=A|34=32|49=vbfc1001|52=20231204-09:43:36.568|56=IDX|98=0|108=30|1137=7|10=022|8=FIXT.1.1|9=74|35=A|34=33|49=vbfc1001|52=20231204-09:43:37.572|56=IDX|98=0|108=30|1137=7|10=019|8=FIXT.1.1|9=74|35=A|34=34|49=vbfc1001|52=20231204-09:43:38.576|56=IDX|98=0|108=30|1137=7|10=025|8=FIXT.1.1|9=74|35=A|34=35|49=vbfc1001|52=20231204-09:43:39.579|56=IDX|98=0|108=30|1137=7|10=030|8=FIXT.1.1|9=74|35=A|34=36|49=vbfc1001|52=20231204-09:43:40.585|56=IDX|98=0|108=30|1137=7|10=020|8=FIXT.1.1|9=74|35=A|34=37|49=vbfc1001|52=20231204-09:43:41.586|56=IDX|98=0|108=30|1137=7|10=023|8=FIXT.1.1|9=74|35=A|34=38|49=vbfc1001|52=20231204-09:43:42.603|56=IDX|98=0|108=30|1137=7|10=015|8=FIXT.1.1|9=74|35=A|34=39|49=vbfc1001|52=20231204-09:43:43.602|56=IDX|98=0|108=30|1137=7|10=016|8=FIXT.1.1|9=74|35=A|34=40|49=vbfc1001|52=20231204-09:43:44.600|56=IDX|98=0|108=30|1137=7|10=007|8=FIXT.1.1|9=74|35=A|34=41|49=vbfc1001|52=20231204-09:43:45.600|56=IDX|98=0|108=30|1137=7|10=009|8=FIXT.1.1|9=74|35=A|34=42|49=vbfc1001|52=20231204-09:43:46.610|56=IDX|98=0|108=30|1137=7|10=012|8=FIXT.1.1|9=74|35=A|34=43|49=vbfc1001|52=20231204-09:43:47.608|56=IDX|98=0|108=30|1137=7|10=021|8=FIXT.1.1|9=74|35=A|34=44|49=vbfc1001|52=20231204-09:43:48.606|56=IDX|98=0|108=30|1137=7|10=021|8=FIXT.1.1|9=74|35=A|34=45|49=vbfc1001|52=20231204-09:43:49.612|56=IDX|98=0|108=30|1137=7|10=020|8=FIXT.1.1|9=74|35=A|34=46|49=vbfc1001|52=20231204-09:43:50.607|56=IDX|98=0|108=30|1137=7|10=017|8=FIXT.1.1|9=74|35=A|34=47|49=vbfc1001|52=20231204-09:43:51.601|56=IDX|98=0|108=30|1137=7|10=013|8=FIXT.1.1|9=74|35=A|34=48|49=vbfc1001|52=20231204-09:43:52.594|56=IDX|98=0|108=30|1137=7|10=026|8=FIXT.1.1|9=74|35=A|34=49|49=vbfc1001|52=20231204-09:43:53.586|56=IDX|98=0|108=30|1137=7|10=029|8=FIXT.1.1|9=74|35=A|34=50|49=vbfc1001|52=20231204-09:43:54.586|56=IDX|98=0|108=30|1137=7|10=022|8=FIXT.1.1|9=74|35=A|34=51|49=vbfc1001|52=20231204-09:43:55.578|56=IDX|98=0|108=30|1137=7|10=025|8=FIXT.1.1|9=74|35=A|34=52|49=vbfc1001|52=20231204-09:43:56.579|56=IDX|98=0|108=30|1137=7|10=028|8=FIXT.1.1|9=74|35=A|34=53|49=vbfc1001|52=20231204-09:43:57.584|56=IDX|98=0|108=30|1137=7|10=026|8=FIXT.1.1|9=74|35=A|34=54|49=vbfc1001|52=20231204-09:43:58.575|56=IDX|98=0|108=30|1137=7|10=028|8=FIXT.1.1|9=74|35=A|34=55|49=vbfc1001|52=20231204-09:43:59.565|56=IDX|98=0|108=30|1137=7|10=029|8=FIXT.1.1|9=74|35=A|34=56|49=vbfc1001|52=20231204-09:44:00.553|56=IDX|98=0|108=30|1137=7|10=014|8=FIXT.1.1|9=74|35=A|34=57|49=vbfc1001|52=20231204-09:44:01.541|56=IDX|98=0|108=30|1137=7|10=013|8=FIXT.1.1|9=74|35=A|34=58|49=vbfc1001|52=20231204-09:44:02.532|56=IDX|98=0|108=30|1137=7|10=015|8=FIXT.1.1|9=74|35=A|34=59|49=vbfc1001|52=20231204-09:44:03.521|56=IDX|98=0|108=30|1137=7|10=015|8=FIXT.1.1|9=74|35=A|34=60|49=vbfc1001|52=20231204-09:44:04.509|56=IDX|98=0|108=30|1137=7|10=014|8=FIXT.1.1|9=74|35=A|34=61|49=vbfc1001|52=20231204-09:44:05.497|56=IDX|98=0|108=30|1137=7|10=022|8=FIXT.1.1|9=74|35=A|34=62|49=vbfc1001|52=20231204-09:44:06.488|56=IDX|98=0|108=30|1137=7|10=024|8=FIXT.1.1|9=74|35=A|34=63|49=vbfc1001|52=20231204-09:44:07.476|56=IDX|98=0|108=30|1137=7|10=023|8=FIXT.1.1|9=74|35=A|34=64|49=vbfc1001|52=20231204-09:44:08.461|56=IDX|98=0|108=30|1137=7|10=019|8=FIXT.1.1|9=74|35=A|34=65|49=vbfc1001|52=20231204-09:44:09.451|56=IDX|98=0|108=30|1137=7|10=020|8=FIXT.1.1|9=74|35=A|34=66|49=vbfc1001|52=20231204-09:44:10.434|56=IDX|98=0|108=30|1137=7|10=014|8=FIXT.1.1|9=74|35=A|34=67|49=vbfc1001|52=20231204-09:44:11.418|56=IDX|98=0|108=30|1137=7|10=018|8=FIXT.1.1|9=74|35=A|34=68|49=vbfc1001|52=20231204-09:44:12.399|56=IDX|98=0|108=30|1137=7|10=028|8=FIXT.1.1|9=74|35=A|34=69|49=vbfc1001|52=20231204-09:44:13.381|56=IDX|98=0|108=30|1137=7|10=021|8=FIXT.1.1|9=74|35=A|34=70|49=vbfc1001|52=20231204-09:44:14.363|56=IDX|98=0|108=30|1137=7|10=014|8=FIXT.1.1|9=74|35=A|34=71|49=vbfc1001|52=20231204-09:44:15.362|56=IDX|98=0|108=30|1137=7|10=015|8=FIXT.1.1|9=74|35=A|34=72|49=vbfc1001|52=20231204-09:44:16.387|56=IDX|98=0|108=30|1137=7|10=024|8=FIXT.1.1|9=74|35=A|34=73|49=vbfc1001|52=20231204-09:44:17.376|56=IDX|98=0|108=30|1137=7|10=024|8=FIXT.1.1|9=74|35=A|34=74|49=vbfc1001|52=20231204-09:44:18.359|56=IDX|98=0|108=30|1137=7|10=027|8=FIXT.1.1|9=74|35=A|34=75|49=vbfc1001|52=20231204-09:44:19.357|56=IDX|98=0|108=30|1137=7|10=027|8=FIXT.1.1|9=74|35=A|34=76|49=vbfc1001|52=20231204-09:44:20.429|56=IDX|98=0|108=30|1137=7|10=020|8=FIXT.1.1|9=74|35=A|34=77|49=vbfc1001|52=20231204-09:44:21.627|56=IDX|98=0|108=30|1137=7|10=022|8=FIXT.1.1|9=74|35=A|34=78|49=vbfc1001|52=20231204-09:44:22.762|56=IDX|98=0|108=30|1137=7|10=024|8=FIXT.1.1|9=74|35=A|34=79|49=vbfc1001|52=20231204-09:44:23.740|56=IDX|98=0|108=30|1137=7|10=022|8=FIXT.1.1|9=74|35=A|34=80|49=vbfc1001|52=20231204-09:44:25.082|56=IDX|98=0|108=30|1137=7|10=015|8=FIXT.1.1|9=74|35=A|34=81|49=vbfc1001|52=20231204-09:44:26.351|56=IDX|98=0|108=30|1137=7|10=016|8=FIXT.1.1|9=74|35=A|34=82|49=vbfc1001|52=20231204-09:44:27.500|56=IDX|98=0|108=30|1137=7|10=014|8=FIXT.1.1|9=74|35=A|34=83|49=vbfc1001|52=20231204-09:44:28.487|56=IDX|98=0|108=30|1137=7|10=030|8=FIXT.1.1|9=74|35=A|34=84|49=vbfc1001|52=20231204-09:44:29.480|56=IDX|98=0|108=30|1137=7|10=025|8=FIXT.1.1|9=74|35=A|34=85|49=vbfc1001|52=20231204-09:44:30.457|56=IDX|98=0|108=30|1137=7|10=022|8=FIXT.1.1|9=74|35=A|34=86|49=vbfc1001|52=20231204-09:44:31.431|56=IDX|98=0|108=30|1137=7|10=016|8=FIXT.1.1|9=74|35=A|34=87|49=vbfc1001|52=20231204-09:44:32.685|56=IDX|98=0|108=30|1137=7|10=029|8=FIXT.1.1|9=74|35=A|34=88|49=vbfc1001|52=20231204-09:44:34.330|56=IDX|98=0|108=30|1137=7|10=019|8=FIXT.1.1|9=74|35=A|34=89|49=vbfc1001|52=20231204-09:44:36.358|56=IDX|98=0|108=30|1137=7|10=032|8=FIXT.1.1|9=74|35=A|34=90|49=vbfc1001|52=20231204-09:44:37.568|56=IDX|98=0|108=30|1137=7|10=028|8=FIXT.1.1|9=74|35=A|34=91|49=vbfc1001|52=20231204-09:44:39.858|56=IDX|98=0|108=30|1137=7|10=033|8=FIXT.1.1|9=74|35=A|34=92|49=vbfc1001|52=20231204-09:44:43.749|56=IDX|98=0|108=30|1137=7|10=028|8=FIXT.1.1|9=74|35=A|34=93|49=vbfc1001|52=20231204-09:44:45.090|56=IDX|98=0|108=30|1137=7|10=020|8=FIXT.1.1|9=74|35=A|34=94|49=vbfc1001|52=20231204-09:44:46.474|56=IDX|98=0|108=30|1137=7|10=028|8=FIXT.1.1|9=74|35=A|34=95|49=vbfc1001|52=20231204-09:44:47.464|56=IDX|98=0|108=30|1137=7|10=029|8=FIXT.1.1|9=74|35=A|34=96|49=vbfc1001|52=20231204-09:44:48.444|56=IDX|98=0|108=30|1137=7|10=029|8=FIXT.1.1|9=74|35=A|34=97|49=vbfc1001|52=20231204-09:44:49.414|56=IDX|98=0|108=30|1137=7|10=028|8=FIXT.1.1|9=74|35=A|34=98|49=vbfc1001|52=20231204-09:44:50.380|56=IDX|98=0|108=30|1137=7|10=023|8=FIXT.1.1|9=74|35=A|34=99|49=vbfc1001|52=20231204-09:44:51.361|56=IDX|98=0|108=30|1137=7|10=024|8=FIXT.1.1|9=75|35=A|34=100|49=vbfc1001|52=20231204-09:44:52.326|56=IDX|98=0|108=30|1137=7|10=058|8=FIXT.1.1|9=75|35=A|34=101|49=vbfc1001|52=20231204-09:44:53.308|56=IDX|98=0|108=30|1137=7|10=060|8=FIXT.1.1|9=75|35=A|34=102|49=vbfc1001|52=20231204-09:44:54.273|56=IDX|98=0|108=30|1137=7|10=063|8=FIXT.1.1|9=75|35=A|34=103|49=vbfc1001|52=20231204-09:44:55.237|56=IDX|98=0|108=30|1137=7|10=065|8=FIXT.1.1|9=75|35=A|34=104|49=vbfc1001|52=20231204-09:44:56.238|56=IDX|98=0|108=30|1137=7|10=068|8=FIXT.1.1|9=75|35=A|34=105|49=vbfc1001|52=20231204-09:44:57.676|56=IDX|98=0|108=30|1137=7|10=076|8=FIXT.1.1|9=75|35=A|34=106|49=vbfc1001|52=20231204-09:44:58.642|56=IDX|98=0|108=30|1137=7|10=071|8=FIXT.1.1|9=75|35=A|34=107|49=vbfc1001|52=20231204-09:44:59.604|56=IDX|98=0|108=30|1137=7|10=071|8=FIXT.1.1|9=75|35=A|34=108|49=vbfc1001|52=20231204-09:45:00.575|56=IDX|98=0|108=30|1137=7|10=066|8=FIXT.1.1|9=75|35=A|34=109|49=vbfc1001|52=20231204-09:45:01.534|56=IDX|98=0|108=30|1137=7|10=063|8=FIXT.1.1|9=75|35=A|34=110|49=vbfc1001|52=20231204-09:45:02.846|56=IDX|98=0|108=30|1137=7|10=062|8=FIXT.1.1|9=75|35=A|34=111|49=vbfc1001|52=20231204-09:45:03.808|56=IDX|98=0|108=30|1137=7|10=062|8=FIXT.1.1|9=75|35=A|34=112|49=vbfc1001|52=20231204-09:45:04.767|56=IDX|98=0|108=30|1137=7|10=068|8=FIXT.1.1|9=75|35=A|34=113|49=vbfc1001|52=20231204-09:45:05.726|56=IDX|98=0|108=30|1137=7|10=065|8=FIXT.1.1|9=75|35=A|34=114|49=vbfc1001|52=20231204-09:45:06.694|56=IDX|98=0|108=30|1137=7|10=071|8=FIXT.1.1|9=75|35=A|34=115|49=vbfc1001|52=20231204-09:45:07.670|56=IDX|98=0|108=30|1137=7|10=067|8=FIXT.1.1|9=75|35=A|34=116|49=vbfc1001|52=20231204-09:45:08.625|56=IDX|98=0|108=30|1137=7|10=069|8=FIXT.1.1|9=75|35=A|34=117|49=vbfc1001|52=20231204-09:45:09.587|56=IDX|98=0|108=30|1137=7|10=078|8=FIXT.1.1|9=75|35=A|34=118|49=vbfc1001|52=20231204-09:45:10.540|56=IDX|98=0|108=30|1137=7|10=060|8=FIXT.1.1|9=75|35=A|34=119|49=vbfc1001|52=20231204-09:45:11.493|56=IDX|98=0|108=30|1137=7|10=069|8=FIXT.1.1|9=75|35=A|34=120|49=vbfc1001|52=20231204-09:45:12.452|56=IDX|98=0|108=30|1137=7|10=057|8=FIXT.1.1|9=75|35=A|34=121|49=vbfc1001|52=20231204-09:45:13.405|56=IDX|98=0|108=30|1137=7|10=057|8=FIXT.1.1|9=75|35=A|34=122|49=vbfc1001|52=20231204-09:45:14.370|56=IDX|98=0|108=30|1137=7|10=060|8=FIXT.1.1|9=75|35=A|34=123|49=vbfc1001|52=20231204-09:45:15.321|56=IDX|98=0|108=30|1137=7|10=058|8=FIXT.1.1|9=75|35=A|34=124|49=vbfc1001|52=20231204-09:45:17.329|56=IDX|98=0|108=30|1137=7|10=069|8=FIXT.1.1|9=75|35=A|34=125|49=vbfc1001|52=20231204-09:45:18.306|56=IDX|98=0|108=30|1137=7|10=066|8=FIXT.1.1|9=75|35=A|34=126|49=vbfc1001|52=20231204-09:45:19.255|56=IDX|98=0|108=30|1137=7|10=071|8=FIXT.1.1|9=75|35=A|34=127|49=vbfc1001|52=20231204-09:45:20.202|56=IDX|98=0|108=30|1137=7|10=056|8=FIXT.1.1|9=75|35=A|34=128|49=vbfc1001|52=20231204-09:45:21.163|56=IDX|98=0|108=30|1137=7|10=064|8=FIXT.1.1|9=75|35=A|34=129|49=vbfc1001|52=20231204-09:45:22.125|56=IDX|98=0|108=30|1137=7|10=064|8=FIXT.1.1|9=75|35=A|34=130|49=vbfc1001|52=20231204-09:45:23.070|56=IDX|98=0|108=30|1137=7|10=056|8=FIXT.1.1|9=75|35=A|34=131|49=vbfc1001|52=20231204-09:45:24.957|56=IDX|98=0|108=30|1137=7|10=072|8=FIXT.1.1|9=75|35=A|34=132|49=vbfc1001|52=20231204-09:45:25.905|56=IDX|98=0|108=30|1137=7|10=067|8=FIXT.1.1|9=75|35=A|34=133|49=vbfc1001|52=20231204-09:45:27.159|56=IDX|98=0|108=30|1137=7|10=071|8=FIXT.1.1|9=75|35=A|34=134|49=vbfc1001|52=20231204-09:45:28.470|56=IDX|98=0|108=30|1137=7|10=069|8=FIXT.1.1|9=75|35=A|34=135|49=vbfc1001|52=20231204-09:45:29.412|56=IDX|98=0|108=30|1137=7|10=067|8=FIXT.1.1|9=75|35=A|34=136|49=vbfc1001|52=20231204-09:45:30.368|56=IDX|98=0|108=30|1137=7|10=070|8=FIXT.1.1|9=75|35=A|34=137|49=vbfc1001|52=20231204-09:45:31.309|56=IDX|98=0|108=30|1137=7|10=067|8=FIXT.1.1|9=75|35=A|34=138|49=vbfc1001|52=20231204-09:45:32.249|56=IDX|98=0|108=30|1137=7|10=072|8=FIXT.1.1|9=75|35=A|34=139|49=vbfc1001|52=20231204-09:45:33.219|56=IDX|98=0|108=30|1137=7|10=071|8=FIXT.1.1|9=75|35=A|34=140|49=vbfc1001|52=20231204-09:45:34.163|56=IDX|98=0|108=30|1137=7|10=062|8=FIXT.1.1|9=75|35=A|34=141|49=vbfc1001|52=20231204-09:45:35.102|56=IDX|98=0|108=30|1137=7|10=057|8=FIXT.1.1|9=75|35=A|34=142|49=vbfc1001|52=20231204-09:45:36.065|56=IDX|98=0|108=30|1137=7|10=067|8=FIXT.1.1|9=75|35=A|34=143|49=vbfc1001|52=20231204-09:45:37.931|56=IDX|98=0|108=30|1137=7|10=071|8=FIXT.1.1|9=75|35=A|34=144|49=vbfc1001|52=20231204-09:45:38.872|56=IDX|98=0|108=30|1137=7|10=077|8=FIXT.1.1|9=75|35=A|34=145|49=vbfc1001|52=20231204-09:45:39.807|56=IDX|98=0|108=30|1137=7|10=077|8=FIXT.1.1|9=75|35=A|34=146|49=vbfc1001|52=20231204-09:45:40.744|56=IDX|98=0|108=30|1137=7|10=070|8=FIXT.1.1|9=75|35=A|34=147|49=vbfc1001|52=20231204-09:45:41.696|56=IDX|98=0|108=30|1137=7|10=078|8=FIXT.1.1|9=75|35=A|34=148|49=vbfc1001|52=20231204-09:45:42.628|56=IDX|98=0|108=30|1137=7|10=075|8=FIXT.1.1|9=75|35=A|34=149|49=vbfc1001|52=20231204-09:45:43.561|56=IDX|98=0|108=30|1137=7|10=073|8=FIXT.1.1|9=75|35=A|34=150|49=vbfc1001|52=20231204-09:45:44.495|56=IDX|98=0|108=30|1137=7|10=072|8=FIXT.1.1|9=75|35=A|34=151|49=vbfc1001|52=20231204-09:45:45.424|56=IDX|98=0|108=30|1137=7|10=066|8=FIXT.1.1|9=75|35=A|34=152|49=vbfc1001|52=20231204-09:45:46.356|56=IDX|98=0|108=30|1137=7|10=072|8=FIXT.1.1|9=75|35=A|34=153|49=vbfc1001|52=20231204-09:45:47.286|56=IDX|98=0|108=30|1137=7|10=076|8=FIXT.1.1|9=75|35=A|34=154|49=vbfc1001|52=20231204-09:45:48.216|56=IDX|98=0|108=30|1137=7|10=071|8=FIXT.1.1|9=75|35=A|34=155|49=vbfc1001|52=20231204-09:45:49.151|56=IDX|98=0|108=30|1137=7|10=071|8=FIXT.1.1|9=75|35=A|34=156|49=vbfc1001|52=20231204-09:45:50.079|56=IDX|98=0|108=30|1137=7|10=073|8=FIXT.1.1|9=75|35=A|34=157|49=vbfc1001|52=20231204-09:45:51.928|56=IDX|98=0|108=30|1137=7|10=078|8=FIXT.1.1|9=75|35=A|34=158|49=vbfc1001|52=20231204-09:45:52.860|56=IDX|98=0|108=30|1137=7|10=075|8=FIXT.1.1|9=75|35=A|34=159|49=vbfc1001|52=20231204-09:45:53.789|56=IDX|98=0|108=30|1137=7|10=087|8=FIXT.1.1|9=75|35=A|34=160|49=vbfc1001|52=20231204-09:45:54.717|56=IDX|98=0|108=30|1137=7|10=071|8=FIXT.1.1|9=75|35=A|34=161|49=vbfc1001|52=20231204-09:45:55.641|56=IDX|98=0|108=30|1137=7|10=069|8=FIXT.1.1|9=75|35=A|34=162|49=vbfc1001|52=20231204-09:45:56.563|56=IDX|98=0|108=30|1137=7|10=074|8=FIXT.1.1|9=75|35=A|34=163|49=vbfc1001|52=20231204-09:45:57.494|56=IDX|98=0|108=30|1137=7|10=079|8=FIXT.1.1|9=75|35=A|34=164|49=vbfc1001|52=20231204-09:45:58.427|56=IDX|98=0|108=30|1137=7|10=077|8=FIXT.1.1|9=75|35=A|34=165|49=vbfc1001|52=20231204-09:45:59.348|56=IDX|98=0|108=30|1137=7|10=081|8=FIXT.1.1|9=75|35=A|34=166|49=vbfc1001|52=20231204-09:46:00.272|56=IDX|98=0|108=30|1137=7|10=065|8=FIXT.1.1|9=75|35=A|34=167|49=vbfc1001|52=20231204-09:46:01.195|56=IDX|98=0|108=30|1137=7|10=071|8=FIXT.1.1|9=75|35=A|34=168|49=vbfc1001|52=20231204-09:46:02.115|56=IDX|98=0|108=30|1137=7|10=065|8=FIXT.1.1|9=75|35=A|34=169|49=vbfc1001|52=20231204-09:46:03.035|56=IDX|98=0|108=30|1137=7|10=068|8=FIXT.1.1|9=75|35=A|34=170|49=vbfc1001|52=20231204-09:46:04.869|56=IDX|98=0|108=30|1137=7|10=076|8=FIXT.1.1|9=75|35=A|34=171|49=vbfc1001|52=20231204-09:46:05.788|56=IDX|98=0|108=30|1137=7|10=078|8=FIXT.1.1|9=75|35=A|34=172|49=vbfc1001|52=20231204-09:46:06.705|56=IDX|98=0|108=30|1137=7|10=069|8=FIXT.1.1|9=75|35=A|34=173|49=vbfc1001|52=20231204-09:46:07.622|56=IDX|98=0|108=30|1137=7|10=069|8=FIXT.1.1|9=75|35=A|34=174|49=vbfc1001|52=20231204-09:46:08.539|56=IDX|98=0|108=30|1137=7|10=078|8=FIXT.1.1|9=75|35=A|34=175|49=vbfc1001|52=20231204-09:46:09.458|56=IDX|98=0|108=30|1137=7|10=080|8=FIXT.1.1|9=75|35=A|34=176|49=vbfc1001|52=20231204-09:46:10.377|56=IDX|98=0|108=30|1137=7|10=073|8=FIXT.1.1|9=75|35=A|34=177|49=vbfc1001|52=20231204-09:46:11.290|56=IDX|98=0|108=30|1137=7|10=069|8=FIXT.1.1|9=75|35=A|34=178|49=vbfc1001|52=20231204-09:46:12.205|56=IDX|98=0|108=30|1137=7|10=067|8=FIXT.1.1|9=75|35=A|34=179|49=vbfc1001|52=20231204-09:46:13.119|56=IDX|98=0|108=30|1137=7|10=073|8=FIXT.1.1|9=75|35=A|34=180|49=vbfc1001|52=20231204-09:46:14.032|56=IDX|98=0|108=30|1137=7|10=060|8=FIXT.1.1|9=75|35=A|34=181|49=vbfc1001|52=20231204-09:46:15.849|56=IDX|98=0|108=30|1137=7|10=078|8=FIXT.1.1|9=75|35=A|34=182|49=vbfc1001|52=20231204-09:46:16.760|56=IDX|98=0|108=30|1137=7|10=072|8=FIXT.1.1|9=75|35=A|34=183|49=vbfc1001|52=20231204-09:46:17.673|56=IDX|98=0|108=30|1137=7|10=077|8=FIXT.1.1|9=75|35=A|34=184|49=vbfc1001|52=20231204-09:46:18.583|56=IDX|98=0|108=30|1137=7|10=079|8=FIXT.1.1|9=75|35=A|34=185|49=vbfc1001|52=20231204-09:46:19.497|56=IDX|98=0|108=30|1137=7|10=085|8=FIXT.1.1|9=75|35=A|34=186|49=vbfc1001|52=20231204-09:46:20.417|56=IDX|98=0|108=30|1137=7|10=070|8=FIXT.1.1|9=75|35=A|34=187|49=vbfc1001|52=20231204-09:46:21.325|56=IDX|98=0|108=30|1137=7|10=070|8=FIXT.1.1|9=75|35=A|34=188|49=vbfc1001|52=20231204-09:46:22.234|56=IDX|98=0|108=30|1137=7|10=071|8=FIXT.1.1|9=75|35=A|34=189|49=vbfc1001|52=20231204-09:46:23.146|56=IDX|98=0|108=30|1137=7|10=075|8=FIXT.1.1|9=75|35=A|34=190|49=vbfc1001|52=20231204-09:46:24.052|56=IDX|98=0|108=30|1137=7|10=064|8=FIXT.1.1|9=75|35=A|34=191|49=vbfc1001|52=20231204-09:46:25.855|56=IDX|98=0|108=30|1137=7|10=077|8=FIXT.1.1|9=75|35=A|34=192|49=vbfc1001|52=20231204-09:46:26.764|56=IDX|98=0|108=30|1137=7|10=078|8=FIXT.1.1|9=75|35=A|34=193|49=vbfc1001|52=20231204-09:46:27.670|56=IDX|98=0|108=30|1137=7|10=076|8=FIXT.1.1|9=75|35=A|34=194|49=vbfc1001|52=20231204-09:46:28.590|56=IDX|98=0|108=30|1137=7|10=079|8=FIXT.1.1|9=75|35=A|34=195|49=vbfc1001|52=20231204-09:46:29.491|56=IDX|98=0|108=30|1137=7|10=081|8=FIXT.1.1|9=75|35=A|34=196|49=vbfc1001|52=20231204-09:46:30.421|56=IDX|98=0|108=30|1137=7|10=067|8=FIXT.1.1|9=75|35=A|34=197|49=vbfc1001|52=20231204-09:46:31.322|56=IDX|98=0|108=30|1137=7|10=069|8=FIXT.1.1|9=75|35=A|34=198|49=vbfc1001|52=20231204-09:46:32.221|56=IDX|98=0|108=30|1137=7|10=069|8=FIXT.1.1|9=75|35=A|34=199|49=vbfc1001|52=20231204-09:46:33.121|56=IDX|98=0|108=30|1137=7|10=070|8=FIXT.1.1|9=75|35=A|34=200|49=vbfc1001|52=20231204-09:46:34.021|56=IDX|98=0|108=30|1137=7|10=053|8=FIXT.1.1|9=75|35=A|34=201|49=vbfc1001|52=20231204-09:46:35.812|56=IDX|98=0|108=30|1137=7|10=063|8=FIXT.1.1|9=75|35=A|34=202|49=vbfc1001|52=20231204-09:46:36.712|56=IDX|98=0|108=30|1137=7|10=064|8=FIXT.1.1|9=75|35=A|34=203|49=vbfc1001|52=20231204-09:46:37.609|56=IDX|98=0|108=30|1137=7|10=071|8=FIXT.1.1|9=75|35=A|34=204|49=vbfc1001|52=20231204-09:46:38.509|56=IDX|98=0|108=30|1137=7|10=072|8=FIXT.1.1|9=75|35=A|34=205|49=vbfc1001|52=20231204-09:46:39.405|56=IDX|98=0|108=30|1137=7|10=069|8=FIXT.1.1|9=75|35=A|34=206|49=vbfc1001|52=20231204-09:46:40.302|56=IDX|98=0|108=30|1137=7|10=058|8=FIXT.1.1|9=75|35=A|34=207|49=vbfc1001|52=20231204-09:46:41.196|56=IDX|98=0|108=30|1137=7|10=071|8=FIXT.1.1|9=75|35=A|34=208|49=vbfc1001|52=20231204-09:46:42.093|56=IDX|98=0|108=30|1137=7|10=069|8=FIXT.1.1|9=75|35=A|34=209|49=vbfc1001|52=20231204-09:46:44.161|56=IDX|98=0|108=30|1137=7|10=068|8=FIXT.1.1|9=75|35=A|34=210|49=vbfc1001|52=20231204-09:46:45.053|56=IDX|98=0|108=30|1137=7|10=061|8=FIXT.1.1|9=75|35=A|34=211|49=vbfc1001|52=20231204-09:46:46.830|56=IDX|98=0|108=30|1137=7|10=066|8=FIXT.1.1|9=75|35=A|34=212|49=vbfc1001|52=20231204-09:46:47.723|56=IDX|98=0|108=30|1137=7|10=069|8=FIXT.1.1|9=75|35=A|34=213|49=vbfc1001|52=20231204-09:46:48.613|56=IDX|98=0|108=30|1137=7|10=069|8=FIXT.1.1|9=75|35=A|34=214|49=vbfc1001|52=20231204-09:46:49.506|56=IDX|98=0|108=30|1137=7|10=072|8=FIXT.1.1|9=75|35=A|34=215|49=vbfc1001|52=20231204-09:46:50.394|56=IDX|98=0|108=30|1137=7|10=070|8=FIXT.1.1|9=75|35=A|34=216|49=vbfc1001|52=20231204-09:46:51.350|56=IDX|98=0|108=30|1137=7|10=064|8=FIXT.1.1|9=75|35=A|34=217|49=vbfc1001|52=20231204-09:46:52.244|56=IDX|98=0|108=30|1137=7|10=068|8=FIXT.1.1|9=75|35=A|34=218|49=vbfc1001|52=20231204-09:46:53.133|56=IDX|98=0|108=30|1137=7|10=067|8=FIXT.1.1|9=75|35=A|34=219|49=vbfc1001|52=20231204-09:46:54.027|56=IDX|98=0|108=30|1137=7|10=071|8=FIXT.1.1|9=75|35=A|34=220|49=vbfc1001|52=20231204-09:46:55.790|56=IDX|98=0|108=30|1137=7|10=071|8=FIXT.1.1|9=75|35=A|34=221|49=vbfc1001|52=20231204-09:46:56.674|56=IDX|98=0|108=30|1137=7|10=074|8=FIXT.1.1|9=75|35=A|34=222|49=vbfc1001|52=20231204-09:46:57.558|56=IDX|98=0|108=30|1137=7|10=077|8=FIXT.1.1|9=75|35=A|34=223|49=vbfc1001|52=20231204-09:46:58.459|56=IDX|98=0|108=30|1137=7|10=079|8=FIXT.1.1|9=75|35=A|34=224|49=vbfc1001|52=20231204-09:46:59.386|56=IDX|98=0|108=30|1137=7|10=080|8=FIXT.1.1|9=75|35=A|34=225|49=vbfc1001|52=20231204-09:47:00.272|56=IDX|98=0|108=30|1137=7|10=062|8=FIXT.1.1|9=75|35=A|34=226|49=vbfc1001|52=20231204-09:47:01.154|56=IDX|98=0|108=30|1137=7|10=063|8=FIXT.1.1|9=75|35=A|34=227|49=vbfc1001|52=20231204-09:47:02.053|56=IDX|98=0|108=30|1137=7|10=063|8=FIXT.1.1|9=75|35=A|34=228|49=vbfc1001|52=20231204-09:47:03.808|56=IDX|98=0|108=30|1137=7|10=073|8=FIXT.1.1|9=75|35=A|34=229|49=vbfc1001|52=20231204-09:47:04.702|56=IDX|98=0|108=30|1137=7|10=068|8=FIXT.1.1|9=75|35=A|34=230|49=vbfc1001|52=20231204-09:47:05.588|56=IDX|98=0|108=30|1137=7|10=073|8=FIXT.1.1|9=75|35=A|34=231|49=vbfc1001|52=20231204-09:47:06.474|56=IDX|98=0|108=30|1137=7|10=069|8=FIXT.1.1|9=75|35=A|34=232|49=vbfc1001|52=20231204-09:47:07.354|56=IDX|98=0|108=30|1137=7|10=068|8=FIXT.1.1|9=75|35=A|34=233|49=vbfc1001|52=20231204-09:47:08.232|56=IDX|98=0|108=30|1137=7|10=065|8=FIXT.1.1|9=75|35=A|34=234|49=vbfc1001|52=20231204-09:47:09.108|56=IDX|98=0|108=30|1137=7|10=069|8=FIXT.1.1|9=75|35=A|34=235|49=vbfc1001|52=20231204-09:47:10.856|56=IDX|98=0|108=30|1137=7|10=072|8=FIXT.1.1|9=75|35=A|34=236|49=vbfc1001|52=20231204-09:47:11.733|56=IDX|98=0|108=30|1137=7|10=068|8=FIXT.1.1|9=75|35=A|34=237|49=vbfc1001|52=20231204-09:47:12.609|56=IDX|98=0|108=30|1137=7|10=072|8=FIXT.1.1|9=75|35=A|34=238|49=vbfc1001|52=20231204-09:47:13.484|56=IDX|98=0|108=30|1137=7|10=075|8=FIXT.1.1|9=75|35=A|34=239|49=vbfc1001|52=20231204-09:47:14.358|56=IDX|98=0|108=30|1137=7|10=077|8=FIXT.1.1|9=75|35=A|34=240|49=vbfc1001|52=20231204-09:47:15.251|56=IDX|98=0|108=30|1137=7|10=062|8=FIXT.1.1|9=75|35=A|34=241|49=vbfc1001|52=20231204-09:47:16.125|56=IDX|98=0|108=30|1137=7|10=064|8=FIXT.1.1|9=75|35=A|34=242|49=vbfc1001|52=20231204-09:47:17.862|56=IDX|98=0|108=30|1137=7|10=074|8=FIXT.1.1|9=75|35=A|34=243|49=vbfc1001|52=20231204-09:47:18.748|56=IDX|98=0|108=30|1137=7|10=079|8=FIXT.1.1|9=75|35=A|34=244|49=vbfc1001|52=20231204-09:47:19.646|56=IDX|98=0|108=30|1137=7|10=078|8=FIXT.1.1|9=75|35=A|34=245|49=vbfc1001|52=20231204-09:47:20.517|56=IDX|98=0|108=30|1137=7|10=068|8=FIXT.1.1|9=75|35=A|34=246|49=vbfc1001|52=20231204-09:47:21.387|56=IDX|98=0|108=30|1137=7|10=075|8=FIXT.1.1|9=75|35=A|34=247|49=vbfc1001|52=20231204-09:47:22.260|56=IDX|98=0|108=30|1137=7|10=067|8=FIXT.1.1|9=75|35=A|34=248|49=vbfc1001|52=20231204-09:47:23.129|56=IDX|98=0|108=30|1137=7|10=073|8=FIXT.1.1|9=75|35=A|34=249|49=vbfc1001|52=20231204-09:47:24.859|56=IDX|98=0|108=30|1137=7|10=085|8=FIXT.1.1|9=75|35=A|34=250|49=vbfc1001|52=20231204-09:47:25.730|56=IDX|98=0|108=30|1137=7|10=066|8=FIXT.1.1|9=75|35=A|34=251|49=vbfc1001|52=20231204-09:47:26.596|56=IDX|98=0|108=30|1137=7|10=078|8=FIXT.1.1|9=75|35=A|34=252|49=vbfc1001|52=20231204-09:47:27.467|56=IDX|98=0|108=30|1137=7|10=077|8=FIXT.1.1|9=75|35=A|34=253|49=vbfc1001|52=20231204-09:47:28.333|56=IDX|98=0|108=30|1137=7|10=071|8=FIXT.1.1|9=75|35=A|34=254|49=vbfc1001|52=20231204-09:47:29.198|56=IDX|98=0|108=30|1137=7|10=082|8=FIXT.1.1|9=75|35=A|34=255|49=vbfc1001|52=20231204-09:47:30.084|56=IDX|98=0|108=30|1137=7|10=069|8=FIXT.1.1|9=75|35=A|34=256|49=vbfc1001|52=20231204-09:47:31.807|56=IDX|98=0|108=30|1137=7|10=074|8=FIXT.1.1|9=75|35=A|34=257|49=vbfc1001|52=20231204-09:47:32.671|56=IDX|98=0|108=30|1137=7|10=075|8=FIXT.1.1|9=75|35=A|34=258|49=vbfc1001|52=20231204-09:47:33.534|56=IDX|98=0|108=30|1137=7|10=075|8=FIXT.1.1|9=75|35=A|34=259|49=vbfc1001|52=20231204-09:47:34.396|56=IDX|98=0|108=30|1137=7|10=083|8=FIXT.1.1|9=75|35=A|34=260|49=vbfc1001|52=20231204-09:47:35.256|56=IDX|98=0|108=30|1137=7|10=071|8=FIXT.1.1|9=75|35=A|34=261|49=vbfc1001|52=20231204-09:47:36.123|56=IDX|98=0|108=30|1137=7|10=066|8=FIXT.1.1|9=75|35=A|34=262|49=vbfc1001|52=20231204-09:47:37.838|56=IDX|98=0|108=30|1137=7|10=081|8=FIXT.1.1|9=75|35=A|34=263|49=vbfc1001|52=20231204-09:47:38.701|56=IDX|98=0|108=30|1137=7|10=072|8=FIXT.1.1|9=75|35=A|34=264|49=vbfc1001|52=20231204-09:47:39.559|56=IDX|98=0|108=30|1137=7|10=085|8=FIXT.1.1|9=75|35=A|34=265|49=vbfc1001|52=20231204-09:47:40.416|56=IDX|98=0|108=30|1137=7|10=070|8=FIXT.1.1|9=75|35=A|34=266|49=vbfc1001|52=20231204-09:47:41.275|56=IDX|98=0|108=30|1137=7|10=075|8=FIXT.1.1|9=75|35=A|34=267|49=vbfc1001|52=20231204-09:47:42.145|56=IDX|98=0|108=30|1137=7|10=073|8=FIXT.1.1|9=75|35=A|34=268|49=vbfc1001|52=20231204-09:47:44.134|56=IDX|98=0|108=30|1137=7|10=074|8=FIXT.1.1|9=75|35=A|34=269|49=vbfc1001|52=20231204-09:47:45.841|56=IDX|98=0|108=30|1137=7|10=081|8=FIXT.1.1|9=75|35=A|34=270|49=vbfc1001|52=20231204-09:47:46.697|56=IDX|98=0|108=30|1137=7|10=083|8=FIXT.1.1|9=75|35=A|34=271|49=vbfc1001|52=20231204-09:47:47.549|56=IDX|98=0|108=30|1137=7|10=081|8=FIXT.1.1|9=75|35=A|34=272|49=vbfc1001|52=20231204-09:47:48.401|56=IDX|98=0|108=30|1137=7|10=070|8=FIXT.1.1|9=75|35=A|34=273|49=vbfc1001|52=20231204-09:47:49.271|56=IDX|98=0|108=30|1137=7|10=077|8=FIXT.1.1|9=75|35=A|34=274|49=vbfc1001|52=20231204-09:47:50.122|56=IDX|98=0|108=30|1137=7|10=065|8=FIXT.1.1|9=75|35=A|34=275|49=vbfc1001|52=20231204-09:47:51.827|56=IDX|98=0|108=30|1137=7|10=079|8=FIXT.1.1|9=75|35=A|34=276|49=vbfc1001|52=20231204-09:47:52.676|56=IDX|98=0|108=30|1137=7|10=083|8=FIXT.1.1|9=75|35=A|34=277|49=vbfc1001|52=20231204-09:47:53.525|56=IDX|98=0|108=30|1137=7|10=078|8=FIXT.1.1|9=75|35=A|34=278|49=vbfc1001|52=20231204-09:47:54.374|56=IDX|98=0|108=30|1137=7|10=082|8=FIXT.1.1|9=75|35=A|34=279|49=vbfc1001|52=20231204-09:47:55.228|56=IDX|98=0|108=30|1137=7|10=082|8=FIXT.1.1|9=75|35=A|34=280|49=vbfc1001|52=20231204-09:47:56.076|56=IDX|98=0|108=30|1137=7|10=076|8=FIXT.1.1|9=75|35=A|34=281|49=vbfc1001|52=20231204-09:47:57.767|56=IDX|98=0|108=30|1137=7|10=085|8=FIXT.1.1|9=75|35=A|34=282|49=vbfc1001|52=20231204-09:47:58.613|56=IDX|98=0|108=30|1137=7|10=077|8=FIXT.1.1|9=75|35=A|34=283|49=vbfc1001|52=20231204-09:47:59.461|56=IDX|98=0|108=30|1137=7|10=080|8=FIXT.1.1|9=75|35=A|34=284|49=vbfc1001|52=20231204-09:48:00.316|56=IDX|98=0|108=30|1137=7|10=067|8=FIXT.1.1|9=75|35=A|34=285|49=vbfc1001|52=20231204-09:48:01.159|56=IDX|98=0|108=30|1137=7|10=074|8=FIXT.1.1|9=75|35=A|34=286|49=vbfc1001|52=20231204-09:48:02.841|56=IDX|98=0|108=30|1137=7|10=074|8=FIXT.1.1|9=75|35=A|34=287|49=vbfc1001|52=20231204-09:48:03.683|56=IDX|98=0|108=30|1137=7|10=080|8=FIXT.1.1|9=75|35=A|34=288|49=vbfc1001|52=20231204-09:48:04.525|56=IDX|98=0|108=30|1137=7|10=077|8=FIXT.1.1|9=75|35=A|34=289|49=vbfc1001|52=20231204-09:48:05.365|56=IDX|98=0|108=30|1137=7|10=081|8=FIXT.1.1|9=75|35=A|34=290|49=vbfc1001|52=20231204-09:48:06.208|56=IDX|98=0|108=30|1137=7|10=070|8=FIXT.1.1|9=75|35=A|34=291|49=vbfc1001|52=20231204-09:48:07.066|56=IDX|98=0|108=30|1137=7|10=074|8=FIXT.1.1|9=75|35=A|34=292|49=vbfc1001|52=20231204-09:48:08.745|56=IDX|98=0|108=30|1137=7|10=080|8=FIXT.1.1|9=75|35=A|34=293|49=vbfc1001|52=20231204-09:48:09.697|56=IDX|98=0|108=30|1137=7|10=088|8=FIXT.1.1|9=75|35=A|34=294|49=vbfc1001|52=20231204-09:48:10.533|56=IDX|98=0|108=30|1137=7|10=070|8=FIXT.1.1|9=75|35=A|34=295|49=vbfc1001|52=20231204-09:48:11.392|56=IDX|98=0|108=30|1137=7|10=075|8=FIXT.1.1|9=75|35=A|34=296|49=vbfc1001|52=20231204-09:48:12.229|56=IDX|98=0|108=30|1137=7|10=076|8=FIXT.1.1|9=75|35=A|34=297|49=vbfc1001|52=20231204-09:48:13.065|56=IDX|98=0|108=30|1137=7|10=076|8=FIXT.1.1|9=75|35=A|34=298|49=vbfc1001|52=20231204-09:48:14.727|56=IDX|98=0|108=30|1137=7|10=083|8=FIXT.1.1|9=75|35=A|34=299|49=vbfc1001|52=20231204-09:48:15.563|56=IDX|98=0|108=30|1137=7|10=083|8=FIXT.1.1|9=75|35=A|34=300|49=vbfc1001|52=20231204-09:48:16.397|56=IDX|98=0|108=30|1137=7|10=072|8=FIXT.1.1|9=75|35=A|34=301|49=vbfc1001|52=20231204-09:48:17.229|56=IDX|98=0|108=30|1137=7|10=068|8=FIXT.1.1|9=75|35=A|34=302|49=vbfc1001|52=20231204-09:48:18.062|56=IDX|98=0|108=30|1137=7|10=065|8=FIXT.1.1|9=75|35=A|34=303|49=vbfc1001|52=20231204-09:48:19.717|56=IDX|98=0|108=30|1137=7|10=074|8=FIXT.1.1|9=75|35=A|34=304|49=vbfc1001|52=20231204-09:48:20.548|56=IDX|98=0|108=30|1137=7|10=069|8=FIXT.1.1|9=75|35=A|34=305|49=vbfc1001|52=20231204-09:48:21.377|56=IDX|98=0|108=30|1137=7|10=071|8=FIXT.1.1|9=75|35=A|34=306|49=vbfc1001|52=20231204-09:48:22.206|56=IDX|98=0|108=30|1137=7|10=064|8=FIXT.1.1|9=75|35=A|34=307|49=vbfc1001|52=20231204-09:48:23.067|56=IDX|98=0|108=30|1137=7|10=071|8=FIXT.1.1|9=75|35=A|34=308|49=vbfc1001|52=20231204-09:48:24.716|56=IDX|98=0|108=30|1137=7|10=074|8=FIXT.1.1|9=75|35=A|34=309|49=vbfc1001|52=20231204-09:48:25.543|56=IDX|98=0|108=30|1137=7|10=074|8=FIXT.1.1|9=75|35=A|34=310|49=vbfc1001|52=20231204-09:48:26.368|56=IDX|98=0|108=30|1137=7|10=072|8=FIXT.1.1|9=75|35=A|34=311|49=vbfc1001|52=20231204-09:48:27.211|56=IDX|98=0|108=30|1137=7|10=061|8=FIXT.1.1|9=75|35=A|34=312|49=vbfc1001|52=20231204-09:48:28.042|56=IDX|98=0|108=30|1137=7|10=065|8=FIXT.1.1|9=75|35=A|34=313|49=vbfc1001|52=20231204-09:48:29.688|56=IDX|98=0|108=30|1137=7|10=083|8=FIXT.1.1|9=75|35=A|34=314|49=vbfc1001|52=20231204-09:48:30.510|56=IDX|98=0|108=30|1137=7|10=060|8=FIXT.1.1|9=75|35=A|34=315|49=vbfc1001|52=20231204-09:48:31.347|56=IDX|98=0|108=30|1137=7|10=070|8=FIXT.1.1|9=75|35=A|34=316|49=vbfc1001|52=20231204-09:48:32.185|56=IDX|98=0|108=30|1137=7|10=072|8=FIXT.1.1|9=75|35=A|34=317|49=vbfc1001|52=20231204-09:48:33.821|56=IDX|98=0|108=30|1137=7|10=071|8=FIXT.1.1|9=75|35=A|34=318|49=vbfc1001|52=20231204-09:48:34.641|56=IDX|98=0|108=30|1137=7|10=073|8=FIXT.1.1|9=75|35=A|34=319|49=vbfc1001|52=20231204-09:48:35.469|56=IDX|98=0|108=30|1137=7|10=083|8=FIXT.1.1|9=75|35=A|34=320|49=vbfc1001|52=20231204-09:48:36.299|56=IDX|98=0|108=30|1137=7|10=077|8=FIXT.1.1|9=75|35=A|34=321|49=vbfc1001|52=20231204-09:48:37.117|56=IDX|98=0|108=30|1137=7|10=068|8=FIXT.1.1|9=75|35=A|34=322|49=vbfc1001|52=20231204-09:48:38.746|56=IDX|98=0|108=30|1137=7|10=078|8=FIXT.1.1|9=75|35=A|34=323|49=vbfc1001|52=20231204-09:48:39.565|56=IDX|98=0|108=30|1137=7|10=079|8=FIXT.1.1|9=75|35=A|34=324|49=vbfc1001|52=20231204-09:48:40.659|56=IDX|98=0|108=30|1137=7|10=076|8=FIXT.1.1|9=75|35=A|34=325|49=vbfc1001|52=20231204-09:48:41.476|56=IDX|98=0|108=30|1137=7|10=075|8=FIXT.1.1|9=75|35=A|34=326|49=vbfc1001|52=20231204-09:48:42.289|56=IDX|98=0|108=30|1137=7|10=079|8=FIXT.1.1|9=75|35=A|34=327|49=vbfc1001|52=20231204-09:48:43.105|56=IDX|98=0|108=30|1137=7|10=068|8=FIXT.1.1|9=75|35=A|34=328|49=vbfc1001|52=20231204-09:48:44.730|56=IDX|98=0|108=30|1137=7|10=074|8=FIXT.1.1|9=75|35=A|34=329|49=vbfc1001|52=20231204-09:48:45.542|56=IDX|98=0|108=30|1137=7|10=077|8=FIXT.1.1|9=75|35=A|34=330|49=vbfc1001|52=20231204-09:48:46.354|56=IDX|98=0|108=30|1137=7|10=071|8=FIXT.1.1|9=75|35=A|34=331|49=vbfc1001|52=20231204-09:48:47.274|56=IDX|98=0|108=30|1137=7|10=074|8=FIXT.1.1|9=75|35=A|34=332|49=vbfc1001|52=20231204-09:48:48.090|56=IDX|98=0|108=30|1137=7|10=072|8=FIXT.1.1|9=75|35=A|34=333|49=vbfc1001|52=20231204-09:48:49.727|56=IDX|98=0|108=30|1137=7|10=081|8=FIXT.1.1|9=75|35=A|34=334|49=vbfc1001|52=20231204-09:48:50.538|56=IDX|98=0|108=30|1137=7|10=074|8=FIXT.1.1|9=75|35=A|34=335|49=vbfc1001|52=20231204-09:48:51.346|56=IDX|98=0|108=30|1137=7|10=073|8=FIXT.1.1|9=75|35=A|34=336|49=vbfc1001|52=20231204-09:48:52.157|56=IDX|98=0|108=30|1137=7|10=075|8=FIXT.1.1|9=75|35=A|34=337|49=vbfc1001|52=20231204-09:48:53.768|56=IDX|98=0|108=30|1137=7|10=085|8=FIXT.1.1|9=75|35=A|34=338|49=vbfc1001|52=20231204-09:48:54.613|56=IDX|98=0|108=30|1137=7|10=076|8=FIXT.1.1|9=75|35=A|34=339|49=vbfc1001|52=20231204-09:48:55.428|56=IDX|98=0|108=30|1137=7|10=082|8=FIXT.1.1|9=75|35=A|34=340|49=vbfc1001|52=20231204-09:48:56.266|56=IDX|98=0|108=30|1137=7|10=075|8=FIXT.1.1|9=75|35=A|34=341|49=vbfc1001|52=20231204-09:48:57.071|56=IDX|98=0|108=30|1137=7|10=071|8=FIXT.1.1|9=75|35=A|34=342|49=vbfc1001|52=20231204-09:48:58.675|56=IDX|98=0|108=30|1137=7|10=083|8=FIXT.1.1|9=75|35=A|34=343|49=vbfc1001|52=20231204-09:48:59.478|56=IDX|98=0|108=30|1137=7|10=086|8=FIXT.1.1|9=75|35=A|34=344|49=vbfc1001|52=20231204-09:49:00.289|56=IDX|98=0|108=30|1137=7|10=074|8=FIXT.1.1|9=75|35=A|34=345|49=vbfc1001|52=20231204-09:49:01.092|56=IDX|98=0|108=30|1137=7|10=068|8=FIXT.1.1|9=75|35=A|34=346|49=vbfc1001|52=20231204-09:49:02.688|56=IDX|98=0|108=30|1137=7|10=081|8=FIXT.1.1|9=75|35=A|34=347|49=vbfc1001|52=20231204-09:49:03.490|56=IDX|98=0|108=30|1137=7|10=074|8=FIXT.1.1|9=75|35=A|34=348|49=vbfc1001|52=20231204-09:49:04.292|56=IDX|98=0|108=30|1137=7|10=076|8=FIXT.1.1|9=75|35=A|34=349|49=vbfc1001|52=20231204-09:49:05.092|56=IDX|98=0|108=30|1137=7|10=076|8=FIXT.1.1|9=75|35=A|34=350|49=vbfc1001|52=20231204-09:49:06.682|56=IDX|98=0|108=30|1137=7|10=074|8=FIXT.1.1|9=75|35=A|34=351|49=vbfc1001|52=20231204-09:49:07.498|56=IDX|98=0|108=30|1137=7|10=081|8=FIXT.1.1|9=75|35=A|34=352|49=vbfc1001|52=20231204-09:49:08.295|56=IDX|98=0|108=30|1137=7|10=078|8=FIXT.1.1|9=75|35=A|34=353|49=vbfc1001|52=20231204-09:49:09.093|56=IDX|98=0|108=30|1137=7|10=076|8=FIXT.1.1|9=75|35=A|34=354|49=vbfc1001|52=20231204-09:49:10.705|56=IDX|98=0|108=30|1137=7|10=069|8=FIXT.1.1|9=75|35=A|34=355|49=vbfc1001|52=20231204-09:49:11.504|56=IDX|98=0|108=30|1137=7|10=068|8=FIXT.1.1|9=75|35=A|34=356|49=vbfc1001|52=20231204-09:49:12.300|56=IDX|98=0|108=30|1137=7|10=064|8=FIXT.1.1|9=75|35=A|34=357|49=vbfc1001|52=20231204-09:49:13.105|56=IDX|98=0|108=30|1137=7|10=069|8=FIXT.1.1|9=75|35=A|34=358|49=vbfc1001|52=20231204-09:49:14.690|56=IDX|98=0|108=30|1137=7|10=080|8=FIXT.1.1|9=75|35=A|34=359|49=vbfc1001|52=20231204-09:49:15.482|56=IDX|98=0|108=30|1137=7|10=081|8=FIXT.1.1|9=75|35=A|34=360|49=vbfc1001|52=20231204-09:49:16.275|56=IDX|98=0|108=30|1137=7|10=074|8=FIXT.1.1|9=75|35=A|34=361|49=vbfc1001|52=20231204-09:49:17.086|56=IDX|98=0|108=30|1137=7|10=076|8=FIXT.1.1|9=75|35=A|34=362|49=vbfc1001|52=20231204-09:49:18.665|56=IDX|98=0|108=30|1137=7|10=081|8=FIXT.1.1|9=75|35=A|34=363|49=vbfc1001|52=20231204-09:49:19.457|56=IDX|98=0|108=30|1137=7|10=082|8=FIXT.1.1|9=75|35=A|34=364|49=vbfc1001|52=20231204-09:49:20.247|56=IDX|98=0|108=30|1137=7|10=072|8=FIXT.1.1|9=75|35=A|34=365|49=vbfc1001|52=20231204-09:49:21.038|56=IDX|98=0|108=30|1137=7|10=072|8=FIXT.1.1|9=75|35=A|34=366|49=vbfc1001|52=20231204-09:49:22.612|56=IDX|98=0|108=30|1137=7|10=072|8=FIXT.1.1|9=75|35=A|34=367|49=vbfc1001|52=20231204-09:49:23.400|56=IDX|98=0|108=30|1137=7|10=069|8=FIXT.1.1|9=75|35=A|34=368|49=vbfc1001|52=20231204-09:49:24.187|56=IDX|98=0|108=30|1137=7|10=083|8=FIXT.1.1|9=75|35=A|34=369|49=vbfc1001|52=20231204-09:49:25.753|56=IDX|98=0|108=30|1137=7|10=084|8=FIXT.1.1|9=75|35=A|34=370|49=vbfc1001|52=20231204-09:49:26.573|56=IDX|98=0|108=30|1137=7|10=077|8=FIXT.1.1|9=75|35=A|34=371|49=vbfc1001|52=20231204-09:49:27.373|56=IDX|98=0|108=30|1137=7|10=077|8=FIXT.1.1|9=75|35=A|34=372|49=vbfc1001|52=20231204-09:49:28.173|56=IDX|98=0|108=30|1137=7|10=077|8=FIXT.1.1|9=75|35=A|34=373|49=vbfc1001|52=20231204-09:49:29.746|56=IDX|98=0|108=30|1137=7|10=085|8=FIXT.1.1|9=75|35=A|34=374|49=vbfc1001|52=20231204-09:49:30.532|56=IDX|98=0|108=30|1137=7|10=071|8=FIXT.1.1|9=75|35=A|34=375|49=vbfc1001|52=20231204-09:49:31.330|56=IDX|98=0|108=30|1137=7|10=069|8=FIXT.1.1|9=75|35=A|34=376|49=vbfc1001|52=20231204-09:49:32.132|56=IDX|98=0|108=30|1137=7|10=071|8=FIXT.1.1|9=75|35=A|34=377|49=vbfc1001|52=20231204-09:49:33.761|56=IDX|98=0|108=30|1137=7|10=081|8=FIXT.1.1|9=75|35=A|34=378|49=vbfc1001|52=20231204-09:49:34.625|56=IDX|98=0|108=30|1137=7|10=082|8=FIXT.1.1|9=75|35=A|34=379|49=vbfc1001|52=20231204-09:49:35.412|56=IDX|98=0|108=30|1137=7|10=078|8=FIXT.1.1|9=75|35=A|34=380|49=vbfc1001|52=20231204-09:49:36.216|56=IDX|98=0|108=30|1137=7|10=073|8=FIXT.1.1|9=75|35=A|34=381|49=vbfc1001|52=20231204-09:49:37.773|56=IDX|98=0|108=30|1137=7|10=083|8=FIXT.1.1|9=75|35=A|34=382|49=vbfc1001|52=20231204-09:49:38.558|56=IDX|98=0|108=30|1137=7|10=086|8=FIXT.1.1|9=75|35=A|34=383|49=vbfc1001|52=20231204-09:49:39.338|56=IDX|98=0|108=30|1137=7|10=084|8=FIXT.1.1|9=75|35=A|34=384|49=vbfc1001|52=20231204-09:49:40.136|56=IDX|98=0|108=30|1137=7|10=073|8=FIXT.1.1|9=75|35=A|34=385|49=vbfc1001|52=20231204-09:49:41.683|56=IDX|98=0|108=30|1137=7|10=082|8=FIXT.1.1|9=75|35=A|34=386|49=vbfc1001|52=20231204-09:49:42.505|56=IDX|98=0|108=30|1137=7|10=077|8=FIXT.1.1|9=75|35=A|34=387|49=vbfc1001|52=20231204-09:49:43.280|56=IDX|98=0|108=30|1137=7|10=079|8=FIXT.1.1|9=75|35=A|34=388|49=vbfc1001|52=20231204-09:49:44.055|56=IDX|98=0|108=30|1137=7|10=081|8=FIXT.1.1|9=75|35=A|34=389|49=vbfc1001|52=20231204-09:49:45.598|56=IDX|98=0|108=30|1137=7|10=095|8=FIXT.1.1|9=75|35=A|34=390|49=vbfc1001|52=20231204-09:49:46.370|56=IDX|98=0|108=30|1137=7|10=076|8=FIXT.1.1|9=75|35=A|34=391|49=vbfc1001|52=20231204-09:49:47.144|56=IDX|98=0|108=30|1137=7|10=077|8=FIXT.1.1|9=75|35=A|34=392|49=vbfc1001|52=20231204-09:49:48.686|56=IDX|98=0|108=30|1137=7|10=090|8=FIXT.1.1|9=75|35=A|34=393|49=vbfc1001|52=20231204-09:49:49.486|56=IDX|98=0|108=30|1137=7|10=090|8=FIXT.1.1|9=75|35=A|34=394|49=vbfc1001|52=20231204-09:49:50.267|56=IDX|98=0|108=30|1137=7|10=080|8=FIXT.1.1|9=75|35=A|34=395|49=vbfc1001|52=20231204-09:49:51.048|56=IDX|98=0|108=30|1137=7|10=079|8=FIXT.1.1|9=75|35=A|34=396|49=vbfc1001|52=20231204-09:49:52.663|56=IDX|98=0|108=30|1137=7|10=084|8=FIXT.1.1|9=75|35=A|34=397|49=vbfc1001|52=20231204-09:49:53.435|56=IDX|98=0|108=30|1137=7|10=083|8=FIXT.1.1|9=75|35=A|34=398|49=vbfc1001|52=20231204-09:49:54.211|56=IDX|98=0|108=30|1137=7|10=077|8=FIXT.1.1|9=75|35=A|34=399|49=vbfc1001|52=20231204-09:49:55.789|56=IDX|98=0|108=30|1137=7|10=099|8=FIXT.1.1|9=75|35=A|34=400|49=vbfc1001|52=20231204-09:49:56.576|56=IDX|98=0|108=30|1137=7|10=077|8=FIXT.1.1|9=75|35=A|34=401|49=vbfc1001|52=20231204-09:49:57.383|56=IDX|98=0|108=30|1137=7|10=075|8=FIXT.1.1|9=75|35=A|34=402|49=vbfc1001|52=20231204-09:49:58.150|56=IDX|98=0|108=30|1137=7|10=069|8=FIXT.1.1|9=75|35=A|34=403|49=vbfc1001|52=20231204-09:49:59.676|56=IDX|98=0|108=30|1137=7|10=084|8=FIXT.1.1|9=75|35=A|34=404|49=vbfc1001|52=20231204-09:50:00.523|56=IDX|98=0|108=30|1137=7|10=054|8=FIXT.1.1|9=75|35=A|34=405|49=vbfc1001|52=20231204-09:50:01.288|56=IDX|98=0|108=30|1137=7|10=064|8=FIXT.1.1|9=75|35=A|34=406|49=vbfc1001|52=20231204-09:50:02.051|56=IDX|98=0|108=30|1137=7|10=054|8=FIXT.1.1|9=75|35=A|34=407|49=vbfc1001|52=20231204-09:50:03.569|56=IDX|98=0|108=30|1137=7|10=070|8=FIXT.1.1|9=75|35=A|34=408|49=vbfc1001|52=20231204-09:50:04.331|56=IDX|98=0|108=30|1137=7|10=059|8=FIXT.1.1|9=75|35=A|34=409|49=vbfc1001|52=20231204-09:50:05.098|56=IDX|98=0|108=30|1137=7|10=071|8=FIXT.1.1|9=75|35=A|34=410|49=vbfc1001|52=20231204-09:50:06.672|56=IDX|98=0|108=30|1137=7|10=062|8=FIXT.1.1|9=75|35=A|34=411|49=vbfc1001|52=20231204-09:50:07.527|56=IDX|98=0|108=30|1137=7|10=063|8=FIXT.1.1|9=75|35=A|34=412|49=vbfc1001|52=20231204-09:50:08.334|56=IDX|98=0|108=30|1137=7|10=061|8=FIXT.1.1|9=75|35=A|34=413|49=vbfc1001|52=20231204-09:50:09.138|56=IDX|98=0|108=30|1137=7|10=065|8=FIXT.1.1|9=75|35=A|34=414|49=vbfc1001|52=20231204-09:50:10.664|56=IDX|98=0|108=30|1137=7|10=062|8=FIXT.1.1|9=75|35=A|34=415|49=vbfc1001|52=20231204-09:50:11.421|56=IDX|98=0|108=30|1137=7|10=055|8=FIXT.1.1|9=75|35=A|34=416|49=vbfc1001|52=20231204-09:50:12.178|56=IDX|98=0|108=30|1137=7|10=066|8=FIXT.1.1|9=75|35=A|34=417|49=vbfc1001|52=20231204-09:50:13.676|56=IDX|98=0|108=30|1137=7|10=071|8=FIXT.1.1|9=75|35=A|34=418|49=vbfc1001|52=20231204-09:50:14.434|56=IDX|98=0|108=30|1137=7|10=065|8=FIXT.1.1|9=75|35=A|34=419|49=vbfc1001|52=20231204-09:50:15.197|56=IDX|98=0|108=30|1137=7|10=073|8=FIXT.1.1|9=75|35=A|34=420|49=vbfc1001|52=20231204-09:50:16.696|56=IDX|98=0|108=30|1137=7|10=070|8=FIXT.1.1|9=75|35=A|34=421|49=vbfc1001|52=20231204-09:50:17.456|56=IDX|98=0|108=30|1137=7|10=066|8=FIXT.1.1|9=75|35=A|34=422|49=vbfc1001|52=20231204-09:50:18.209|56=IDX|98=0|108=30|1137=7|10=064|8=FIXT.1.1|9=75|35=A|34=423|49=vbfc1001|52=20231204-09:50:19.712|56=IDX|98=0|108=30|1137=7|10=065|8=FIXT.1.1|9=75|35=A|34=424|49=vbfc1001|52=20231204-09:50:20.467|56=IDX|98=0|108=30|1137=7|10=065|8=FIXT.1.1|9=75|35=A|34=425|49=vbfc1001|52=20231204-09:50:21.219|56=IDX|98=0|108=30|1137=7|10=062|8=FIXT.1.1|9=75|35=A|34=426|49=vbfc1001|52=20231204-09:50:22.713|56=IDX|98=0|108=30|1137=7|10=063|8=FIXT.1.1|9=75|35=A|34=427|49=vbfc1001|52=20231204-09:50:23.465|56=IDX|98=0|108=30|1137=7|10=069|8=FIXT.1.1|9=75|35=A|34=428|49=vbfc1001|52=20231204-09:50:24.234|56=IDX|98=0|108=30|1137=7|10=065|8=FIXT.1.1|9=75|35=A|34=429|49=vbfc1001|52=20231204-09:50:25.727|56=IDX|98=0|108=30|1137=7|10=074|8=FIXT.1.1|9=75|35=A|34=430|49=vbfc1001|52=20231204-09:50:26.476|56=IDX|98=0|108=30|1137=7|10=068|8=FIXT.1.1|9=75|35=A|34=431|49=vbfc1001|52=20231204-09:50:27.224|56=IDX|98=0|108=30|1137=7|10=061|8=FIXT.1.1|9=75|35=A|34=432|49=vbfc1001|52=20231204-09:50:28.720|56=IDX|98=0|108=30|1137=7|10=064|8=FIXT.1.1|9=75|35=A|34=433|49=vbfc1001|52=20231204-09:50:29.468|56=IDX|98=0|108=30|1137=7|10=075|8=FIXT.1.1|9=75|35=A|34=434|49=vbfc1001|52=20231204-09:50:30.221|56=IDX|98=0|108=30|1137=7|10=055|8=FIXT.1.1|9=75|35=A|34=435|49=vbfc1001|52=20231204-09:50:31.708|56=IDX|98=0|108=30|1137=7|10=067|8=FIXT.1.1|9=75|35=A|34=436|49=vbfc1001|52=20231204-09:50:32.477|56=IDX|98=0|108=30|1137=7|10=072|8=FIXT.1.1|9=75|35=A|34=437|49=vbfc1001|52=20231204-09:50:33.270|56=IDX|98=0|108=30|1137=7|10=065|8=FIXT.1.1|9=75|35=A|34=438|49=vbfc1001|52=20231204-09:50:34.768|56=IDX|98=0|108=30|1137=7|10=079|8=FIXT.1.1|9=75|35=A|34=439|49=vbfc1001|52=20231204-09:50:35.510|56=IDX|98=0|108=30|1137=7|10=066|8=FIXT.1.1|9=75|35=A|34=440|49=vbfc1001|52=20231204-09:50:36.252|56=IDX|98=0|108=30|1137=7|10=062|8=FIXT.1.1|9=75|35=A|34=441|49=vbfc1001|52=20231204-09:50:37.729|56=IDX|98=0|108=30|1137=7|10=073|8=FIXT.1.1|9=75|35=A|34=442|49=vbfc1001|52=20231204-09:50:38.468|56=IDX|98=0|108=30|1137=7|10=075|8=FIXT.1.1|9=75|35=A|34=443|49=vbfc1001|52=20231204-09:50:39.206|56=IDX|98=0|108=30|1137=7|10=067|8=FIXT.1.1|9=75|35=A|34=444|49=vbfc1001|52=20231204-09:50:40.763|56=IDX|98=0|108=30|1137=7|10=068|8=FIXT.1.1|9=75|35=A|34=445|49=vbfc1001|52=20231204-09:50:41.720|56=IDX|98=0|108=30|1137=7|10=063|8=FIXT.1.1|9=75|35=A|34=446|49=vbfc1001|52=20231204-09:50:42.509|56=IDX|98=0|108=30|1137=7|10=070|8=FIXT.1.1|9=75|35=A|34=447|49=vbfc1001|52=20231204-09:50:43.318|56=IDX|98=0|108=30|1137=7|10=070|8=FIXT.1.1|9=75|35=A|34=448|49=vbfc1001|52=20231204-09:50:44.077|56=IDX|98=0|108=30|1137=7|10=074|8=FIXT.1.1|9=75|35=A|34=449|49=vbfc1001|52=20231204-09:50:45.685|56=IDX|98=0|108=30|1137=7|10=081|8=FIXT.1.1|9=75|35=A|34=450|49=vbfc1001|52=20231204-09:50:46.477|56=IDX|98=0|108=30|1137=7|10=073|8=FIXT.1.1|9=75|35=A|34=451|49=vbfc1001|52=20231204-09:50:47.219|56=IDX|98=0|108=30|1137=7|10=069|8=FIXT.1.1|9=75|35=A|34=452|49=vbfc1001|52=20231204-09:50:48.695|56=IDX|98=0|108=30|1137=7|10=079|8=FIXT.1.1|9=75|35=A|34=453|49=vbfc1001|52=20231204-09:50:49.438|56=IDX|98=0|108=30|1137=7|10=076|8=FIXT.1.1|9=75|35=A|34=454|49=vbfc1001|52=20231204-09:50:50.213|56=IDX|98=0|108=30|1137=7|10=060|8=FIXT.1.1|9=75|35=A|34=455|49=vbfc1001|52=20231204-09:50:51.670|56=IDX|98=0|108=30|1137=7|10=069|8=FIXT.1.1|9=75|35=A|34=456|49=vbfc1001|52=20231204-09:50:52.411|56=IDX|98=0|108=30|1137=7|10=064|8=FIXT.1.1|9=75|35=A|34=457|49=vbfc1001|52=20231204-09:50:53.146|56=IDX|98=0|108=30|1137=7|10=071|8=FIXT.1.1|9=75|35=A|34=458|49=vbfc1001|52=20231204-09:50:54.634|56=IDX|98=0|108=30|1137=7|10=075|8=FIXT.1.1|9=75|35=A|34=459|49=vbfc1001|52=20231204-09:50:55.370|56=IDX|98=0|108=30|1137=7|10=074|8=FIXT.1.1|9=75|35=A|34=460|49=vbfc1001|52=20231204-09:50:56.099|56=IDX|98=0|108=30|1137=7|10=075|8=FIXT.1.1|9=75|35=A|34=461|49=vbfc1001|52=20231204-09:50:57.552|56=IDX|98=0|108=30|1137=7|10=071|8=FIXT.1.1|9=75|35=A|34=462|49=vbfc1001|52=20231204-09:50:58.280|56=IDX|98=0|108=30|1137=7|10=071|8=FIXT.1.1|9=75|35=A|34=463|49=vbfc1001|52=20231204-09:50:59.729|56=IDX|98=0|108=30|1137=7|10=081|8=FIXT.1.1|9=75|35=A|34=464|49=vbfc1001|52=20231204-09:51:00.455|56=IDX|98=0|108=30|1137=7|10=065|8=FIXT.1.1|9=75|35=A|34=465|49=vbfc1001|52=20231204-09:51:01.180|56=IDX|98=0|108=30|1137=7|10=062|8=FIXT.1.1|9=75|35=A|34=466|49=vbfc1001|52=20231204-09:51:02.623|56=IDX|98=0|108=30|1137=7|10=066|8=FIXT.1.1|9=75|35=A|34=467|49=vbfc1001|52=20231204-09:51:03.389|56=IDX|98=0|108=30|1137=7|10=077|8=FIXT.1.1|9=75|35=A|34=468|49=vbfc1001|52=20231204-09:51:04.115|56=IDX|98=0|108=30|1137=7|10=066|8=FIXT.1.1|9=75|35=A|34=469|49=vbfc1001|52=20231204-09:51:05.634|56=IDX|98=0|108=30|1137=7|10=074|8=FIXT.1.1|9=75|35=A|34=470|49=vbfc1001|52=20231204-09:51:06.365|56=IDX|98=0|108=30|1137=7|10=068|8=FIXT.1.1|9=75|35=A|34=471|49=vbfc1001|52=20231204-09:51:07.086|56=IDX|98=0|108=30|1137=7|10=070|8=FIXT.1.1|9=75|35=A|34=472|49=vbfc1001|52=20231204-09:51:08.523|56=IDX|98=0|108=30|1137=7|10=068|8=FIXT.1.1|9=75|35=A|34=473|49=vbfc1001|52=20231204-09:51:09.251|56=IDX|98=0|108=30|1137=7|10=068|8=FIXT.1.1|9=75|35=A|34=474|49=vbfc1001|52=20231204-09:51:10.684|56=IDX|98=0|108=30|1137=7|10=071|8=FIXT.1.1|9=75|35=A|34=475|49=vbfc1001|52=20231204-09:51:11.414|56=IDX|98=0|108=30|1137=7|10=064|8=FIXT.1.1|9=75|35=A|34=476|49=vbfc1001|52=20231204-09:51:12.562|56=IDX|98=0|108=30|1137=7|10=070|8=FIXT.1.1|9=75|35=A|34=477|49=vbfc1001|52=20231204-09:51:13.289|56=IDX|98=0|108=30|1137=7|10=078|8=FIXT.1.1|9=75|35=A|34=478|49=vbfc1001|52=20231204-09:51:14.745|56=IDX|98=0|108=30|1137=7|10=077|8=FIXT.1.1|9=75|35=A|34=479|49=vbfc1001|52=20231204-09:51:15.462|56=IDX|98=0|108=30|1137=7|10=075|8=FIXT.1.1|9=75|35=A|34=480|49=vbfc1001|52=20231204-09:51:16.185|56=IDX|98=0|108=30|1137=7|10=070|8=FIXT.1.1|9=75|35=A|34=481|49=vbfc1001|52=20231204-09:51:17.609|56=IDX|98=0|108=30|1137=7|10=073|8=FIXT.1.1|9=75|35=A|34=482|49=vbfc1001|52=20231204-09:51:18.347|56=IDX|98=0|108=30|1137=7|10=074|8=FIXT.1.1|9=75|35=A|34=483|49=vbfc1001|52=20231204-09:51:19.064|56=IDX|98=0|108=30|1137=7|10=072|8=FIXT.1.1|9=75|35=A|34=484|49=vbfc1001|52=20231204-09:51:20.482|56=IDX|98=0|108=30|1137=7|10=069|8=FIXT.1.1|9=75|35=A|34=485|49=vbfc1001|52=20231204-09:51:21.195|56=IDX|98=0|108=30|1137=7|10=072|8=FIXT.1.1|9=75|35=A|34=486|49=vbfc1001|52=20231204-09:51:22.625|56=IDX|98=0|108=30|1137=7|10=072|8=FIXT.1.1|9=75|35=A|34=487|49=vbfc1001|52=20231204-09:51:23.336|56=IDX|98=0|108=30|1137=7|10=073|8=FIXT.1.1|9=75|35=A|34=488|49=vbfc1001|52=20231204-09:51:24.224|56=IDX|98=0|108=30|1137=7|10=071|8=FIXT.1.1|9=75|35=A|34=489|49=vbfc1001|52=20231204-09:51:25.643|56=IDX|98=0|108=30|1137=7|10=078|8=FIXT.1.1|9=75|35=A|34=490|49=vbfc1001|52=20231204-09:51:26.363|56=IDX|98=0|108=30|1137=7|10=070|8=FIXT.1.1|9=75|35=A|34=491|49=vbfc1001|52=20231204-09:51:27.100|56=IDX|98=0|108=30|1137=7|10=061|8=FIXT.1.1|9=75|35=A|34=492|49=vbfc1001|52=20231204-09:51:28.513|56=IDX|98=0|108=30|1137=7|10=071|8=FIXT.1.1|9=75|35=A|34=493|49=vbfc1001|52=20231204-09:51:29.223|56=IDX|98=0|108=30|1137=7|10=071|8=FIXT.1.1|9=75|35=A|34=494|49=vbfc1001|52=20231204-09:51:30.632|56=IDX|98=0|108=30|1137=7|10=068|8=FIXT.1.1|9=75|35=A|34=495|49=vbfc1001|52=20231204-09:51:31.366|56=IDX|98=0|108=30|1137=7|10=074|8=FIXT.1.1|9=75|35=A|34=496|49=vbfc1001|52=20231204-09:51:32.079|56=IDX|98=0|108=30|1137=7|10=077|8=FIXT.1.1|9=75|35=A|34=497|49=vbfc1001|52=20231204-09:51:33.613|56=IDX|98=0|108=30|1137=7|10=073|8=FIXT.1.1|9=75|35=A|34=498|49=vbfc1001|52=20231204-09:51:34.361|56=IDX|98=0|108=30|1137=7|10=075|8=FIXT.1.1|9=75|35=A|34=499|49=vbfc1001|52=20231204-09:51:35.074|56=IDX|98=0|108=30|1137=7|10=078|8=FIXT.1.1|9=75|35=A|34=500|49=vbfc1001|52=20231204-09:51:36.575|56=IDX|98=0|108=30|1137=7|10=068|8=FIXT.1.1|9=75|35=A|34=501|49=vbfc1001|52=20231204-09:51:37.294|56=IDX|98=0|108=30|1137=7|10=068|8=FIXT.1.1|9=75|35=A|34=502|49=vbfc1001|52=20231204-09:51:38.696|56=IDX|98=0|108=30|1137=7|10=076|8=FIXT.1.1|9=75|35=A|34=503|49=vbfc1001|52=20231204-09:51:39.398|56=IDX|98=0|108=30|1137=7|10=077|8=FIXT.1.1|9=75|35=A|34=504|49=vbfc1001|52=20231204-09:51:40.102|56=IDX|98=0|108=30|1137=7|10=053|8=FIXT.1.1|9=75|35=A|34=505|49=vbfc1001|52=20231204-09:51:41.494|56=IDX|98=0|108=30|1137=7|10=069|8=FIXT.1.1|9=75|35=A|34=506|49=vbfc1001|52=20231204-09:51:42.215|56=IDX|98=0|108=30|1137=7|10=062|8=FIXT.1.1|9=75|35=A|34=507|49=vbfc1001|52=20231204-09:51:43.606|56=IDX|98=0|108=30|1137=7|10=068|8=FIXT.1.1|9=75|35=A|34=508|49=vbfc1001|52=20231204-09:51:44.307|56=IDX|98=0|108=30|1137=7|10=068|8=FIXT.1.1|9=75|35=A|34=509|49=vbfc1001|52=20231204-09:51:45.693|56=IDX|98=0|108=30|1137=7|10=078|8=FIXT.1.1|9=75|35=A|34=510|49=vbfc1001|52=20231204-09:51:46.390|56=IDX|98=0|108=30|1137=7|10=065|8=FIXT.1.1|9=75|35=A|34=511|49=vbfc1001|52=20231204-09:51:47.087|56=IDX|98=0|108=30|1137=7|10=070|8=FIXT.1.1|9=75|35=A|34=512|49=vbfc1001|52=20231204-09:51:48.525|56=IDX|98=0|108=30|1137=7|10=069|8=FIXT.1.1|9=75|35=A|34=513|49=vbfc1001|52=20231204-09:51:49.238|56=IDX|98=0|108=30|1137=7|10=072|8=FIXT.1.1|9=75|35=A|34=514|49=vbfc1001|52=20231204-09:51:50.619|56=IDX|98=0|108=30|1137=7|10=068|8=FIXT.1.1|9=75|35=A|34=515|49=vbfc1001|52=20231204-09:51:51.318|56=IDX|98=0|108=30|1137=7|10=066|8=FIXT.1.1|9=75|35=A|34=516|49=vbfc1001|52=20231204-09:51:53.081|56=IDX|98=0|108=30|1137=7|10=066|8=FIXT.1.1|9=75|35=A|34=517|49=vbfc1001|52=20231204-09:51:54.464|56=IDX|98=0|108=30|1137=7|10=073|8=FIXT.1.1|9=75|35=A|34=518|49=vbfc1001|52=20231204-09:51:55.202|56=IDX|98=0|108=30|1137=7|10=065|8=FIXT.1.1|9=75|35=A|34=519|49=vbfc1001|52=20231204-09:51:56.582|56=IDX|98=0|108=30|1137=7|10=078|8=FIXT.1.1|9=75|35=A|34=520|49=vbfc1001|52=20231204-09:51:57.276|56=IDX|98=0|108=30|1137=7|10=071|8=FIXT.1.1|9=75|35=A|34=521|49=vbfc1001|52=20231204-09:51:58.709|56=IDX|98=0|108=30|1137=7|10=074|8=FIXT.1.1|9=75|35=A|34=522|49=vbfc1001|52=20231204-09:51:59.399|56=IDX|98=0|108=30|1137=7|10=081|8=FIXT.1.1|9=75|35=A|34=523|49=vbfc1001|52=20231204-09:52:00.087|56=IDX|98=0|108=30|1137=7|10=063|8=FIXT.1.1|9=75|35=A|34=524|49=vbfc1001|52=20231204-09:52:01.459|56=IDX|98=0|108=30|1137=7|10=068|8=FIXT.1.1|9=75|35=A|34=525|49=vbfc1001|52=20231204-09:52:02.151|56=IDX|98=0|108=30|1137=7|10=059|8=FIXT.1.1|9=75|35=A|34=526|49=vbfc1001|52=20231204-09:52:03.531|56=IDX|98=0|108=30|1137=7|10=063|8=FIXT.1.1|9=75|35=A|34=527|49=vbfc1001|52=20231204-09:52:04.218|56=IDX|98=0|108=30|1137=7|10=067|8=FIXT.1.1|9=75|35=A|34=528|49=vbfc1001|52=20231204-09:52:05.585|56=IDX|98=0|108=30|1137=7|10=076|8=FIXT.1.1|9=75|35=A|34=529|49=vbfc1001|52=20231204-09:52:06.275|56=IDX|98=0|108=30|1137=7|10=074|8=FIXT.1.1|9=75|35=A|34=530|49=vbfc1001|52=20231204-09:52:07.661|56=IDX|98=0|108=30|1137=7|10=066|8=FIXT.1.1|9=75|35=A|34=531|49=vbfc1001|52=20231204-09:52:08.358|56=IDX|98=0|108=30|1137=7|10=071|8=FIXT.1.1|9=75|35=A|34=532|49=vbfc1001|52=20231204-09:52:09.042|56=IDX|98=0|108=30|1137=7|10=063|8=FIXT.1.1|9=75|35=A|34=533|49=vbfc1001|52=20231204-09:52:10.436|56=IDX|98=0|108=30|1137=7|10=063|8=FIXT.1.1|9=75|35=A|34=534|49=vbfc1001|52=20231204-09:52:11.211|56=IDX|98=0|108=30|1137=7|10=056|8=FIXT.1.1|9=75|35=A|34=535|49=vbfc1001|52=20231204-09:52:12.570|56=IDX|98=0|108=30|1137=7|10=066|8=FIXT.1.1|9=75|35=A|34=536|49=vbfc1001|52=20231204-09:52:13.305|56=IDX|98=0|108=30|1137=7|10=064|8=FIXT.1.1|9=75|35=A|34=537|49=vbfc1001|52=20231204-09:52:14.987|56=IDX|98=0|108=30|1137=7|10=082|8=FIXT.1.1|9=75|35=A|34=538|49=vbfc1001|52=20231204-09:52:15.687|56=IDX|98=0|108=30|1137=7|10=081|8=FIXT.1.1|9=75|35=A|34=539|49=vbfc1001|52=20231204-09:52:16.511|56=IDX|98=0|108=30|1137=7|10=069|8=FIXT.1.1|9=75|35=A|34=540|49=vbfc1001|52=20231204-09:52:17.276|56=IDX|98=0|108=30|1137=7|10=070|8=FIXT.1.1|9=75|35=A|34=541|49=vbfc1001|52=20231204-09:52:18.626|56=IDX|98=0|108=30|1137=7|10=071|8=FIXT.1.1|9=75|35=A|34=542|49=vbfc1001|52=20231204-09:52:19.308|56=IDX|98=0|108=30|1137=7|10=070|8=FIXT.1.1|9=75|35=A|34=543|49=vbfc1001|52=20231204-09:52:20.661|56=IDX|98=0|108=30|1137=7|10=065|8=FIXT.1.1|9=75|35=A|34=544|49=vbfc1001|52=20231204-09:52:21.339|56=IDX|98=0|108=30|1137=7|10=069|8=FIXT.1.1|9=75|35=A|34=545|49=vbfc1001|52=20231204-09:52:22.681|56=IDX|98=0|108=30|1137=7|10=071|8=FIXT.1.1|9=75|35=A|34=546|49=vbfc1001|52=20231204-09:52:23.356|56=IDX|98=0|108=30|1137=7|10=072|8=FIXT.1.1|9=75|35=A|34=547|49=vbfc1001|52=20231204-09:52:24.059|56=IDX|98=0|108=30|1137=7|10=074|8=FIXT.1.1|9=75|35=A|34=548|49=vbfc1001|52=20231204-09:52:25.413|56=IDX|98=0|108=30|1137=7|10=070|8=FIXT.1.1|9=75|35=A|34=549|49=vbfc1001|52=20231204-09:52:26.156|56=IDX|98=0|108=30|1137=7|10=076|8=FIXT.1.1|9=75|35=A|34=550|49=vbfc1001|52=20231204-09:52:27.493|56=IDX|98=0|108=30|1137=7|10=073|8=FIXT.1.1|9=75|35=A|34=551|49=vbfc1001|52=20231204-09:52:28.164|56=IDX|98=0|108=30|1137=7|10=070|8=FIXT.1.1|9=75|35=A|34=552|49=vbfc1001|52=20231204-09:52:29.496|56=IDX|98=0|108=30|1137=7|10=080|8=FIXT.1.1|9=75|35=A|34=553|49=vbfc1001|52=20231204-09:52:30.176|56=IDX|98=0|108=30|1137=7|10=068|8=FIXT.1.1|9=75|35=A|34=554|49=vbfc1001|52=20231204-09:52:31.511|56=IDX|98=0|108=30|1137=7|10=063|8=FIXT.1.1|9=75|35=A|34=555|49=vbfc1001|52=20231204-09:52:32.182|56=IDX|98=0|108=30|1137=7|10=069|8=FIXT.1.1|9=75|35=A|34=556|49=vbfc1001|52=20231204-09:52:33.513|56=IDX|98=0|108=30|1137=7|10=069|8=FIXT.1.1|9=75|35=A|34=557|49=vbfc1001|52=20231204-09:52:34.222|56=IDX|98=0|108=30|1137=7|10=068|8=FIXT.1.1|9=75|35=A|34=558|49=vbfc1001|52=20231204-09:52:35.552|56=IDX|98=0|108=30|1137=7|10=076|8=FIXT.1.1|9=75|35=A|34=559|49=vbfc1001|52=20231204-09:52:36.221|56=IDX|98=0|108=30|1137=7|10=071|8=FIXT.1.1|9=75|35=A|34=560|49=vbfc1001|52=20231204-09:52:37.566|56=IDX|98=0|108=30|1137=7|10=076|8=FIXT.1.1|9=75|35=A|34=561|49=vbfc1001|52=20231204-09:52:38.244|56=IDX|98=0|108=30|1137=7|10=071|8=FIXT.1.1|9=75|35=A|34=562|49=vbfc1001|52=20231204-09:52:39.579|56=IDX|98=0|108=30|1137=7|10=084|8=FIXT.1.1|9=75|35=A|34=563|49=vbfc1001|52=20231204-09:52:40.242|56=IDX|98=0|108=30|1137=7|10=064|8=FIXT.1.1|9=75|35=A|34=564|49=vbfc1001|52=20231204-09:52:41.563|56=IDX|98=0|108=30|1137=7|10=072|8=FIXT.1.1|9=75|35=A|34=565|49=vbfc1001|52=20231204-09:52:42.336|56=IDX|98=0|108=30|1137=7|10=072|8=FIXT.1.1|9=75|35=A|34=566|49=vbfc1001|52=20231204-09:52:43.656|56=IDX|98=0|108=30|1137=7|10=079|8=FIXT.1.1|9=75|35=A|34=567|49=vbfc1001|52=20231204-09:52:44.319|56=IDX|98=0|108=30|1137=7|10=077|8=FIXT.1.1|9=75|35=A|34=568|49=vbfc1001|52=20231204-09:52:45.670|56=IDX|98=0|108=30|1137=7|10=079|8=FIXT.1.1|9=75|35=A|34=569|49=vbfc1001|52=20231204-09:52:46.418|56=IDX|98=0|108=30|1137=7|10=081|8=FIXT.1.1|9=75|35=A|34=570|49=vbfc1001|52=20231204-09:52:47.108|56=IDX|98=0|108=30|1137=7|10=070|8=FIXT.1.1|9=75|35=A|34=571|49=vbfc1001|52=20231204-09:52:48.423|56=IDX|98=0|108=30|1137=7|10=072|8=FIXT.1.1|9=75|35=A|34=572|49=vbfc1001|52=20231204-09:52:49.409|56=IDX|98=0|108=30|1137=7|10=078|8=FIXT.1.1|9=75|35=A|34=573|49=vbfc1001|52=20231204-09:52:50.069|56=IDX|98=0|108=30|1137=7|10=073|8=FIXT.1.1|9=75|35=A|34=574|49=vbfc1001|52=20231204-09:52:51.385|56=IDX|98=0|108=30|1137=7|10=076|8=FIXT.1.1|9=75|35=A|34=575|49=vbfc1001|52=20231204-09:52:52.216|56=IDX|98=0|108=30|1137=7|10=071|8=FIXT.1.1|9=75|35=A|34=576|49=vbfc1001|52=20231204-09:52:53.522|56=IDX|98=0|108=30|1137=7|10=073|8=FIXT.1.1|9=75|35=A|34=577|49=vbfc1001|52=20231204-09:52:54.179|56=IDX|98=0|108=30|1137=7|10=083|8=FIXT.1.1|9=75|35=A|34=578|49=vbfc1001|52=20231204-09:52:55.484|56=IDX|98=0|108=30|1137=7|10=084|8=FIXT.1.1|9=75|35=A|34=579|49=vbfc1001|52=20231204-09:52:56.139|56=IDX|98=0|108=30|1137=7|10=083|8=FIXT.1.1|9=75|35=A|34=580|49=vbfc1001|52=20231204-09:52:57.442|56=IDX|98=0|108=30|1137=7|10=073|8=FIXT.1.1|9=75|35=A|34=581|49=vbfc1001|52=20231204-09:52:58.100|56=IDX|98=0|108=30|1137=7|10=066|8=FIXT.1.1|9=75|35=A|34=582|49=vbfc1001|52=20231204-09:52:59.400|56=IDX|98=0|108=30|1137=7|10=071|8=FIXT.1.1|9=75|35=A|34=583|49=vbfc1001|52=20231204-09:53:00.054|56=IDX|98=0|108=30|1137=7|10=064|8=FIXT.1.1|9=75|35=A|34=584|49=vbfc1001|52=20231204-09:53:01.352|56=IDX|98=0|108=30|1137=7|10=067|8=FIXT.1.1|9=75|35=A|34=585|49=vbfc1001|52=20231204-09:53:02.653|56=IDX|98=0|108=30|1137=7|10=073|8=FIXT.1.1|9=75|35=A|34=586|49=vbfc1001|52=20231204-09:53:03.303|56=IDX|98=0|108=30|1137=7|10=067|8=FIXT.1.1|9=75|35=A|34=587|49=vbfc1001|52=20231204-09:53:04.606|56=IDX|98=0|108=30|1137=7|10=075|8=FIXT.1.1|9=75|35=A|34=588|49=vbfc1001|52=20231204-09:53:05.257|56=IDX|98=0|108=30|1137=7|10=079|8=FIXT.1.1|9=75|35=A|34=589|49=vbfc1001|52=20231204-09:53:06.559|56=IDX|98=0|108=30|1137=7|10=086|8=FIXT.1.1|9=75|35=A|34=590|49=vbfc1001|52=20231204-09:53:07.222|56=IDX|98=0|108=30|1137=7|10=066|8=FIXT.1.1|9=75|35=A|34=591|49=vbfc1001|52=20231204-09:53:08.628|56=IDX|98=0|108=30|1137=7|10=078|8=FIXT.1.1|9=75|35=A|34=592|49=vbfc1001|52=20231204-09:53:09.333|56=IDX|98=0|108=30|1137=7|10=073|8=FIXT.1.1|9=75|35=A|34=593|49=vbfc1001|52=20231204-09:53:10.651|56=IDX|98=0|108=30|1137=7|10=069|8=FIXT.1.1|9=75|35=A|34=594|49=vbfc1001|52=20231204-09:53:11.320|56=IDX|98=0|108=30|1137=7|10=064|8=FIXT.1.1|9=75|35=A|34=595|49=vbfc1001|52=20231204-09:53:12.603|56=IDX|98=0|108=30|1137=7|10=070|8=FIXT.1.1|9=75|35=A|34=596|49=vbfc1001|52=20231204-09:53:13.303|56=IDX|98=0|108=30|1137=7|10=069|8=FIXT.1.1|9=75|35=A|34=597|49=vbfc1001|52=20231204-09:53:15.002|56=IDX|98=0|108=30|1137=7|10=068|8=FIXT.1.1|9=75|35=A|34=598|49=vbfc1001|52=20231204-09:53:15.822|56=IDX|98=0|108=30|1137=7|10=079|8=FIXT.1.1|9=75|35=A|34=599|49=vbfc1001|52=20231204-09:53:16.483|56=IDX|98=0|108=30|1137=7|10=084|8=FIXT.1.1|9=75|35=A|34=600|49=vbfc1001|52=20231204-09:53:17.137|56=IDX|98=0|108=30|1137=7|10=064|8=FIXT.1.1|9=75|35=A|34=601|49=vbfc1001|52=20231204-09:53:18.416|56=IDX|98=0|108=30|1137=7|10=066|8=FIXT.1.1|9=75|35=A|34=602|49=vbfc1001|52=20231204-09:53:19.057|56=IDX|98=0|108=30|1137=7|10=069|8=FIXT.1.1|9=75|35=A|34=603|49=vbfc1001|52=20231204-09:53:20.342|56=IDX|98=0|108=30|1137=7|10=059|8=FIXT.1.1|9=75|35=A|34=604|49=vbfc1001|52=20231204-09:53:21.681|56=IDX|98=0|108=30|1137=7|10=067|8=FIXT.1.1|9=75|35=A|34=605|49=vbfc1001|52=20231204-09:53:22.375|56=IDX|98=0|108=30|1137=7|10=069|8=FIXT.1.1|9=75|35=A|34=606|49=vbfc1001|52=20231204-09:53:23.649|56=IDX|98=0|108=30|1137=7|10=075|8=FIXT.1.1|9=75|35=A|34=607|49=vbfc1001|52=20231204-09:53:24.296|56=IDX|98=0|108=30|1137=7|10=075|8=FIXT.1.1|9=75|35=A|34=608|49=vbfc1001|52=20231204-09:53:25.593|56=IDX|98=0|108=30|1137=7|10=077|8=FIXT.1.1|9=75|35=A|34=609|49=vbfc1001|52=20231204-09:53:28.352|56=IDX|98=0|108=30|1137=7|10=074|8=FIXT.1.1|9=75|35=A|34=610|49=vbfc1001|52=20231204-09:53:30.908|56=IDX|98=0|108=30|1137=7|10=066|8=FIXT.1.1|9=75|35=A|34=611|49=vbfc1001|52=20231204-09:53:31.904|56=IDX|98=0|108=30|1137=7|10=064|8=FIXT.1.1|9=75|35=A|34=612|49=vbfc1001|52=20231204-09:53:37.220|56=IDX|98=0|108=30|1137=7|10=062|8=FIXT.1.1|9=75|35=A|34=613|49=vbfc1001|52=20231204-09:53:42.606|56=IDX|98=0|108=30|1137=7|10=067|8=FIXT.1.1|9=75|35=A|34=614|49=vbfc1001|52=20231204-09:53:43.305|56=IDX|98=0|108=30|1137=7|10=065|8=FIXT.1.1|9=75|35=A|34=615|49=vbfc1001|52=20231204-09:53:44.635|56=IDX|98=0|108=30|1137=7|10=073|8=FIXT.1.1|9=75|35=A|34=616|49=vbfc1001|52=20231204-09:53:45.746|56=IDX|98=0|108=30|1137=7|10=078|8=FIXT.1.1|9=75|35=A|34=617|49=vbfc1001|52=20231204-09:53:47.781|56=IDX|98=0|108=30|1137=7|10=080|8=FIXT.1.1|9=75|35=A|34=618|49=vbfc1001|52=20231204-09:53:55.942|56=IDX|98=0|108=30|1137=7|10=079|8=FIXT.1.1|9=75|35=A|34=619|49=vbfc1001|52=20231204-09:54:02.081|56=IDX|98=0|108=30|1137=7|10=067|8=FIXT.1.1|9=75|35=A|34=620|49=vbfc1001|52=20231204-09:54:09.204|56=IDX|98=0|108=30|1137=7|10=063|8=FIXT.1.1|9=75|35=A|34=621|49=vbfc1001|52=20231204-09:54:10.517|56=IDX|98=0|108=30|1137=7|10=063|8=FIXT.1.1|9=75|35=A|34=622|49=vbfc1001|52=20231204-09:54:11.188|56=IDX|98=0|108=30|1137=7|10=069|8=FIXT.1.1|9=75|35=A|34=623|49=vbfc1001|52=20231204-09:54:12.702|56=IDX|98=0|108=30|1137=7|10=063|8=FIXT.1.1|9=75|35=A|34=624|49=vbfc1001|52=20231204-09:54:13.501|56=IDX|98=0|108=30|1137=7|10=062|8=FIXT.1.1|9=75|35=A|34=625|49=vbfc1001|52=20231204-09:54:14.199|56=IDX|98=0|108=30|1137=7|10=077|8=FIXT.1.1|9=75|35=A|34=626|49=vbfc1001|52=20231204-09:54:15.489|56=IDX|98=0|108=30|1137=7|10=081|8=FIXT.1.1|9=75|35=A|34=627|49=vbfc1001|52=20231204-09:54:16.130|56=IDX|98=0|108=30|1137=7|10=066|8=FIXT.1.1|9=75|35=A|34=628|49=vbfc1001|52=20231204-09:54:17.596|56=IDX|98=0|108=30|1137=7|10=084|8=FIXT.1.1|9=75|35=A|34=629|49=vbfc1001|52=20231204-09:54:18.426|56=IDX|98=0|108=30|1137=7|10=078|8=FIXT.1.1|9=75|35=A|34=630|49=vbfc1001|52=20231204-09:54:19.053|56=IDX|98=0|108=30|1137=7|10=067|8=FIXT.1.1|9=75|35=A|34=631|49=vbfc1001|52=20231204-09:54:20.291|56=IDX|98=0|108=30|1137=7|10=064|8=FIXT.1.1|9=75|35=A|34=632|49=vbfc1001|52=20231204-09:54:22.879|56=IDX|98=0|108=30|1137=7|10=079|8=FIXT.1.1|9=75|35=A|34=633|49=vbfc1001|52=20231204-09:54:23.515|56=IDX|98=0|108=30|1137=7|10=068|8=FIXT.1.1|9=75|35=A|34=634|49=vbfc1001|52=20231204-09:54:24.143|56=IDX|98=0|108=30|1137=7|10=067|8=FIXT.1.1|9=75|35=A|34=635|49=vbfc1001|52=20231204-09:54:25.418|56=IDX|98=0|108=30|1137=7|10=074|8=FIXT.1.1|9=75|35=A|34=636|49=vbfc1001|52=20231204-09:54:26.040|56=IDX|98=0|108=30|1137=7|10=067|8=FIXT.1.1|9=75|35=A|34=637|49=vbfc1001|52=20231204-09:54:27.275|56=IDX|98=0|108=30|1137=7|10=079|8=FIXT.1.1|9=75|35=A|34=638|49=vbfc1001|52=20231204-09:54:28.648|56=IDX|98=0|108=30|1137=7|10=085|8=FIXT.1.1|9=75|35=A|34=639|49=vbfc1001|52=20231204-09:54:29.266|56=IDX|98=0|108=30|1137=7|10=083|8=FIXT.1.1|9=75|35=A|34=640|49=vbfc1001|52=20231204-09:54:30.577|56=IDX|98=0|108=30|1137=7|10=072|8=FIXT.1.1|9=75|35=A|34=641|49=vbfc1001|52=20231204-09:54:31.298|56=IDX|98=0|108=30|1137=7|10=074|8=FIXT.1.1|9=75|35=A|34=642|49=vbfc1001|52=20231204-09:54:33.328|56=IDX|98=0|108=30|1137=7|10=071|8=FIXT.1.1|9=75|35=A|34=643|49=vbfc1001|52=20231204-09:54:34.561|56=IDX|98=0|108=30|1137=7|10=072|8=FIXT.1.1|9=75|35=A|34=644|49=vbfc1001|52=20231204-09:54:35.183|56=IDX|98=0|108=30|1137=7|10=074|8=FIXT.1.1|9=75|35=A|34=645|49=vbfc1001|52=20231204-09:54:37.131|56=IDX|98=0|108=30|1137=7|10=070|8=FIXT.1.1|9=75|35=A|34=646|49=vbfc1001|52=20231204-09:54:38.936|56=IDX|98=0|108=30|1137=7|10=085|8=FIXT.1.1|9=75|35=A|34=647|49=vbfc1001|52=20231204-09:54:39.551|56=IDX|98=0|108=30|1137=7|10=080|8=FIXT.1.1|9=75|35=A|34=648|49=vbfc1001|52=20231204-09:54:40.278|56=IDX|98=0|108=30|1137=7|10=079|8=FIXT.1.1|9=75|35=A|34=649|49=vbfc1001|52=20231204-09:54:41.975|56=IDX|98=0|108=30|1137=7|10=085|8=FIXT.1.1|9=75|35=A|34=650|49=vbfc1001|52=20231204-09:54:43.312|56=IDX|98=0|108=30|1137=7|10=064|8=FIXT.1.1|9=75|35=A|34=651|49=vbfc1001|52=20231204-09:54:44.591|56=IDX|98=0|108=30|1137=7|10=075|8=FIXT.1.1|9=75|35=A|34=652|49=vbfc1001|52=20231204-09:54:45.407|56=IDX|98=0|108=30|1137=7|10=073|8=FIXT.1.1|9=75|35=A|34=653|49=vbfc1001|52=20231204-09:54:46.616|56=IDX|98=0|108=30|1137=7|10=077|8=FIXT.1.1|9=75|35=A|34=654|49=vbfc1001|52=20231204-09:54:47.226|56=IDX|98=0|108=30|1137=7|10=076|8=FIXT.1.1|9=75|35=A|34=655|49=vbfc1001|52=20231204-09:54:48.433|56=IDX|98=0|108=30|1137=7|10=078|8=FIXT.1.1|9=75|35=A|34=656|49=vbfc1001|52=20231204-09:54:49.044|56=IDX|98=0|108=30|1137=7|10=078|8=FIXT.1.1|9=75|35=A|34=657|49=vbfc1001|52=20231204-09:54:50.250|56=IDX|98=0|108=30|1137=7|10=070|8=FIXT.1.1|9=75|35=A|34=658|49=vbfc1001|52=20231204-09:54:51.454|56=IDX|98=0|108=30|1137=7|10=078|8=FIXT.1.1|9=75|35=A|34=659|49=vbfc1001|52=20231204-09:54:52.061|56=IDX|98=0|108=30|1137=7|10=074|8=FIXT.1.1|9=75|35=A|34=660|49=vbfc1001|52=20231204-09:54:53.261|56=IDX|98=0|108=30|1137=7|10=069|8=FIXT.1.1|9=75|35=A|34=661|49=vbfc1001|52=20231204-09:54:54.470|56=IDX|98=0|108=30|1137=7|10=073|8=FIXT.1.1|9=75|35=A|34=662|49=vbfc1001|52=20231204-09:54:55.073|56=IDX|98=0|108=30|1137=7|10=074|8=FIXT.1.1|9=75|35=A|34=663|49=vbfc1001|52=20231204-09:54:56.269|56=IDX|98=0|108=30|1137=7|10=083|8=FIXT.1.1|9=75|35=A|34=664|49=vbfc1001|52=20231204-09:54:57.469|56=IDX|98=0|108=30|1137=7|10=087|8=FIXT.1.1|9=75|35=A|34=665|49=vbfc1001|52=20231204-09:54:58.074|56=IDX|98=0|108=30|1137=7|10=081|8=FIXT.1.1|9=75|35=A|34=666|49=vbfc1001|52=20231204-09:54:59.270|56=IDX|98=0|108=30|1137=7|10=081|8=FIXT.1.1|9=75|35=A|34=667|49=vbfc1001|52=20231204-09:55:00.469|56=IDX|98=0|108=30|1137=7|10=079|8=FIXT.1.1|9=75|35=A|34=668|49=vbfc1001|52=20231204-09:55:01.069|56=IDX|98=0|108=30|1137=7|10=077|8=FIXT.1.1|9=75|35=A|34=669|49=vbfc1001|52=20231204-09:55:02.255|56=IDX|98=0|108=30|1137=7|10=076|8=FIXT.1.1|9=75|35=A|34=670|49=vbfc1001|52=20231204-09:55:03.446|56=IDX|98=0|108=30|1137=7|10=071|8=FIXT.1.1|9=75|35=A|34=671|49=vbfc1001|52=20231204-09:55:04.044|56=IDX|98=0|108=30|1137=7|10=067|8=FIXT.1.1|9=75|35=A|34=672|49=vbfc1001|52=20231204-09:55:05.233|56=IDX|98=0|108=30|1137=7|10=069|8=FIXT.1.1|9=75|35=A|34=673|49=vbfc1001|52=20231204-09:55:06.412|56=IDX|98=0|108=30|1137=7|10=070|8=FIXT.1.1|9=75|35=A|34=674|49=vbfc1001|52=20231204-09:55:07.937|56=IDX|98=0|108=30|1137=7|10=084|8=FIXT.1.1|9=75|35=A|34=675|49=vbfc1001|52=20231204-09:55:08.542|56=IDX|98=0|108=30|1137=7|10=078|8=FIXT.1.1|9=75|35=A|34=676|49=vbfc1001|52=20231204-09:55:09.142|56=IDX|98=0|108=30|1137=7|10=076|8=FIXT.1.1|9=75|35=A|34=677|49=vbfc1001|52=20231204-09:55:10.320|56=IDX|98=0|108=30|1137=7|10=067|8=FIXT.1.1|9=75|35=A|34=678|49=vbfc1001|52=20231204-09:55:11.496|56=IDX|98=0|108=30|1137=7|10=083|8=FIXT.1.1|9=75|35=A|34=679|49=vbfc1001|52=20231204-09:55:12.092|56=IDX|98=0|108=30|1137=7|10=077|8=FIXT.1.1|9=75|35=A|34=680|49=vbfc1001|52=20231204-09:55:13.263|56=IDX|98=0|108=30|1137=7|10=070|8=FIXT.1.1|9=75|35=A|34=681|49=vbfc1001|52=20231204-09:55:14.552|56=IDX|98=0|108=30|1137=7|10=073|8=FIXT.1.1|9=75|35=A|34=682|49=vbfc1001|52=20231204-09:55:15.139|56=IDX|98=0|108=30|1137=7|10=076|8=FIXT.1.1|9=75|35=A|34=683|49=vbfc1001|52=20231204-09:55:16.528|56=IDX|98=0|108=30|1137=7|10=080|8=FIXT.1.1|9=75|35=A|34=684|49=vbfc1001|52=20231204-09:55:17.119|56=IDX|98=0|108=30|1137=7|10=078|8=FIXT.1.1|9=75|35=A|34=685|49=vbfc1001|52=20231204-09:55:19.287|56=IDX|98=0|108=30|1137=7|10=087|8=FIXT.1.1|9=75|35=A|34=686|49=vbfc1001|52=20231204-09:55:27.688|56=IDX|98=0|108=30|1137=7|10=092|8=FIXT.1.1|9=75|35=A|34=687|49=vbfc1001|52=20231204-09:55:31.681|56=IDX|98=0|108=30|1137=7|10=081|8=FIXT.1.1|9=75|35=A|34=688|49=vbfc1001|52=20231204-09:55:32.864|56=IDX|98=0|108=30|1137=7|10=086|8=FIXT.1.1|9=75|35=A|34=689|49=vbfc1001|52=20231204-09:55:33.469|56=IDX|98=0|108=30|1137=7|10=089|8=FIXT.1.1|9=75|35=A|34=690|49=vbfc1001|52=20231204-09:55:34.065|56=IDX|98=0|108=30|1137=7|10=074|8=FIXT.1.1|9=75|35=A|34=691|49=vbfc1001|52=20231204-09:55:35.233|56=IDX|98=0|108=30|1137=7|10=073|8=FIXT.1.1|9=75|35=A|34=692|49=vbfc1001|52=20231204-09:55:36.400|56=IDX|98=0|108=30|1137=7|10=071|8=FIXT.1.1|9=75|35=A|34=693|49=vbfc1001|52=20231204-09:55:37.559|56=IDX|98=0|108=30|1137=7|10=088|8=FIXT.1.1|9=75|35=A|34=694|49=vbfc1001|52=20231204-09:55:38.141|56=IDX|98=0|108=30|1137=7|10=077|8=FIXT.1.1|9=75|35=A|34=695|49=vbfc1001|52=20231204-09:55:39.301|56=IDX|98=0|108=30|1137=7|10=077|8=FIXT.1.1|9=75|35=A|34=696|49=vbfc1001|52=20231204-09:55:40.556|56=IDX|98=0|108=30|1137=7|10=082|8=FIXT.1.1|9=75|35=A|34=697|49=vbfc1001|52=20231204-09:55:41.135|56=IDX|98=0|108=30|1137=7|10=077|8=FIXT.1.1|9=75|35=A|34=698|49=vbfc1001|52=20231204-09:55:42.288|56=IDX|98=0|108=30|1137=7|10=088|8=FIXT.1.1|9=75|35=A|34=699|49=vbfc1001|52=20231204-09:55:43.439|56=IDX|98=0|108=30|1137=7|10=088|8=FIXT.1.1|9=75|35=A|34=700|49=vbfc1001|52=20231204-09:55:44.593|56=IDX|98=0|108=30|1137=7|10=073|8=FIXT.1.1|9=75|35=A|34=701|49=vbfc1001|52=20231204-09:55:45.169|56=IDX|98=0|108=30|1137=7|10=074|8=FIXT.1.1|9=75|35=A|34=702|49=vbfc1001|52=20231204-09:55:46.311|56=IDX|98=0|108=30|1137=7|10=065|8=FIXT.1.1|9=75|35=A|34=703|49=vbfc1001|52=20231204-09:55:47.540|56=IDX|98=0|108=30|1137=7|10=071|8=FIXT.1.1|9=75|35=A|34=704|49=vbfc1001|52=20231204-09:55:48.115|56=IDX|98=0|108=30|1137=7|10=071|8=FIXT.1.1|9=75|35=A|34=705|49=vbfc1001|52=20231204-09:55:49.256|56=IDX|98=0|108=30|1137=7|10=079|8=FIXT.1.1|9=75|35=A|34=706|49=vbfc1001|52=20231204-09:55:50.396|56=IDX|98=0|108=30|1137=7|10=077|8=FIXT.1.1|9=75|35=A|34=707|49=vbfc1001|52=20231204-09:55:51.615|56=IDX|98=0|108=30|1137=7|10=073|8=FIXT.1.1|9=75|35=A|34=708|49=vbfc1001|52=20231204-09:55:52.211|56=IDX|98=0|108=30|1137=7|10=067|8=FIXT.1.1|9=75|35=A|34=709|49=vbfc1001|52=20231204-09:55:53.397|56=IDX|98=0|108=30|1137=7|10=084|8=FIXT.1.1|9=75|35=A|34=710|49=vbfc1001|52=20231204-09:55:54.557|56=IDX|98=0|108=30|1137=7|10=075|8=FIXT.1.1|9=75|35=A|34=711|49=vbfc1001|52=20231204-09:55:56.328|56=IDX|98=0|108=30|1137=7|10=074|8=FIXT.1.1|9=75|35=A|34=712|49=vbfc1001|52=20231204-09:55:59.503|56=IDX|98=0|108=30|1137=7|10=073|8=FIXT.1.1|9=75|35=A|34=713|49=vbfc1001|52=20231204-09:56:00.070|56=IDX|98=0|108=30|1137=7|10=060|8=FIXT.1.1|9=75|35=A|34=714|49=vbfc1001|52=20231204-09:56:01.197|56=IDX|98=0|108=30|1137=7|10=072|8=FIXT.1.1|9=75|35=A|34=715|49=vbfc1001|52=20231204-09:56:02.360|56=IDX|98=0|108=30|1137=7|10=066|8=FIXT.1.1|9=75|35=A|34=716|49=vbfc1001|52=20231204-09:56:03.491|56=IDX|98=0|108=30|1137=7|10=073|8=FIXT.1.1|9=75|35=A|34=717|49=vbfc1001|52=20231204-09:56:05.090|56=IDX|98=0|108=30|1137=7|10=071|8=FIXT.1.1|9=75|35=A|34=718|49=vbfc1001|52=20231204-09:56:07.647|56=IDX|98=0|108=30|1137=7|10=082|8=FIXT.1.1|9=75|35=A|34=719|49=vbfc1001|52=20231204-09:56:08.214|56=IDX|98=0|108=30|1137=7|10=074|8=FIXT.1.1|9=75|35=A|34=720|49=vbfc1001|52=20231204-09:56:10.158|56=IDX|98=0|108=30|1137=7|10=066|8=FIXT.1.1|9=75|35=A|34=721|49=vbfc1001|52=20231204-09:56:11.664|56=IDX|98=0|108=30|1137=7|10=070|8=FIXT.1.1|9=75|35=A|34=722|49=vbfc1001|52=20231204-09:56:12.226|56=IDX|98=0|108=30|1137=7|10=066|8=FIXT.1.1|9=75|35=A|34=723|49=vbfc1001|52=20231204-09:56:13.341|56=IDX|98=0|108=30|1137=7|10=066|8=FIXT.1.1|9=75|35=A|34=724|49=vbfc1001|52=20231204-09:56:14.830|56=IDX|98=0|108=30|1137=7|10=071|8=FIXT.1.1|9=75|35=A|34=725|49=vbfc1001|52=20231204-09:56:15.484|56=IDX|98=0|108=30|1137=7|10=078|8=FIXT.1.1|9=75|35=A|34=726|49=vbfc1001|52=20231204-09:56:16.319|56=IDX|98=0|108=30|1137=7|10=077|8=FIXT.1.1|9=75|35=A|34=727|49=vbfc1001|52=20231204-09:56:17.436|56=IDX|98=0|108=30|1137=7|10=079|8=FIXT.1.1|9=75|35=A|34=728|49=vbfc1001|52=20231204-09:56:18.558|56=IDX|98=0|108=30|1137=7|10=086|8=FIXT.1.1|9=75|35=A|34=729|49=vbfc1001|52=20231204-09:56:19.377|56=IDX|98=0|108=30|1137=7|10=087|8=FIXT.1.1|9=75|35=A|34=730|49=vbfc1001|52=20231204-09:56:20.493|56=IDX|98=0|108=30|1137=7|10=070|8=FIXT.1.1|9=75|35=A|34=731|49=vbfc1001|52=20231204-09:56:21.152|56=IDX|98=0|108=30|1137=7|10=064|8=FIXT.1.1|9=75|35=A|34=732|49=vbfc1001|52=20231204-09:56:22.250|56=IDX|98=0|108=30|1137=7|10=065|8=FIXT.1.1|9=75|35=A|34=733|49=vbfc1001|52=20231204-09:56:23.362|56=IDX|98=0|108=30|1137=7|10=071|8=FIXT.1.1|9=75|35=A|34=734|49=vbfc1001|52=20231204-09:56:24.466|56=IDX|98=0|108=30|1137=7|10=078|8=FIXT.1.1|9=75|35=A|34=735|49=vbfc1001|52=20231204-09:56:25.614|56=IDX|98=0|108=30|1137=7|10=075|8=FIXT.1.1|9=75|35=A|34=736|49=vbfc1001|52=20231204-09:56:26.164|56=IDX|98=0|108=30|1137=7|10=077|8=FIXT.1.1|9=75|35=A|34=737|49=vbfc1001|52=20231204-09:56:27.255|56=IDX|98=0|108=30|1137=7|10=080|8=FIXT.1.1|9=75|35=A|34=738|49=vbfc1001|52=20231204-09:56:28.355|56=IDX|98=0|108=30|1137=7|10=083|8=FIXT.1.1|9=75|35=A|34=739|49=vbfc1001|52=20231204-09:56:29.443|56=IDX|98=0|108=30|1137=7|10=083|8=FIXT.1.1|9=75|35=A|34=740|49=vbfc1001|52=20231204-09:56:30.550|56=IDX|98=0|108=30|1137=7|10=066|8=FIXT.1.1|9=75|35=A|34=741|49=vbfc1001|52=20231204-09:56:31.581|56=IDX|98=0|108=30|1137=7|10=072|8=FIXT.1.1|9=75|35=A|34=742|49=vbfc1001|52=20231204-09:56:32.341|56=IDX|98=0|108=30|1137=7|10=068|8=FIXT.1.1|9=75|35=A|34=743|49=vbfc1001|52=20231204-09:56:34.634|56=IDX|98=0|108=30|1137=7|10=076|8=FIXT.1.1|9=75|35=A|34=744|49=vbfc1001|52=20231204-09:56:35.435|56=IDX|98=0|108=30|1137=7|10=077|8=FIXT.1.1|9=75|35=A|34=745|49=vbfc1001|52=20231204-09:56:37.457|56=IDX|98=0|108=30|1137=7|10=084|8=FIXT.1.1|9=75|35=A|34=746|49=vbfc1001|52=20231204-09:56:40.589|56=IDX|98=0|108=30|1137=7|10=085|8=FIXT.1.1|9=75|35=A|34=747|49=vbfc1001|52=20231204-09:56:42.807|56=IDX|98=0|108=30|1137=7|10=081|8=FIXT.1.1|9=75|35=A|34=748|49=vbfc1001|52=20231204-09:56:43.353|56=IDX|98=0|108=30|1137=7|10=079|8=FIXT.1.1|9=75|35=A|34=749|49=vbfc1001|52=20231204-09:56:44.503|56=IDX|98=0|108=30|1137=7|10=078|8=FIXT.1.1|9=75|35=A|34=750|49=vbfc1001|52=20231204-09:56:45.048|56=IDX|98=0|108=30|1137=7|10=075|8=FIXT.1.1|9=75|35=A|34=751|49=vbfc1001|52=20231204-09:56:46.128|56=IDX|98=0|108=30|1137=7|10=076|8=FIXT.1.1|9=75|35=A|34=752|49=vbfc1001|52=20231204-09:56:47.199|56=IDX|98=0|108=30|1137=7|10=086|8=FIXT.1.1|9=75|35=A|34=753|49=vbfc1001|52=20231204-09:56:48.266|56=IDX|98=0|108=30|1137=7|10=083|8=FIXT.1.1|9=75|35=A|34=754|49=vbfc1001|52=20231204-09:56:49.333|56=IDX|98=0|108=30|1137=7|10=080|8=FIXT.1.1|9=75|35=A|34=755|49=vbfc1001|52=20231204-09:56:50.395|56=IDX|98=0|108=30|1137=7|10=081|8=FIXT.1.1|9=75|35=A|34=756|49=vbfc1001|52=20231204-09:56:51.459|56=IDX|98=0|108=30|1137=7|10=084|8=FIXT.1.1|9=75|35=A|34=757|49=vbfc1001|52=20231204-09:56:52.521|56=IDX|98=0|108=30|1137=7|10=076|8=FIXT.1.1|9=75|35=A|34=758|49=vbfc1001|52=20231204-09:56:53.057|56=IDX|98=0|108=30|1137=7|10=082|8=FIXT.1.1|9=75|35=A|34=759|49=vbfc1001|52=20231204-09:56:54.116|56=IDX|98=0|108=30|1137=7|10=080|8=FIXT.1.1|9=75|35=A|34=760|49=vbfc1001|52=20231204-09:56:55.176|56=IDX|98=0|108=30|1137=7|10=079|8=FIXT.1.1|9=75|35=A|34=761|49=vbfc1001|52=20231204-09:56:56.239|56=IDX|98=0|108=30|1137=7|10=081|8=FIXT.1.1|9=75|35=A|34=762|49=vbfc1001|52=20231204-09:56:57.295|56=IDX|98=0|108=30|1137=7|10=085|8=FIXT.1.1|9=75|35=A|34=763|49=vbfc1001|52=20231204-09:56:58.351|56=IDX|98=0|108=30|1137=7|10=080|8=FIXT.1.1|9=75|35=A|34=764|49=vbfc1001|52=20231204-09:56:59.407|56=IDX|98=0|108=30|1137=7|10=084|8=FIXT.1.1|9=75|35=A|34=765|49=vbfc1001|52=20231204-09:57:00.462|56=IDX|98=0|108=30|1137=7|10=073|8=FIXT.1.1|9=75|35=A|34=766|49=vbfc1001|52=20231204-09:57:01.539|56=IDX|98=0|108=30|1137=7|10=080|8=FIXT.1.1|9=75|35=A|34=767|49=vbfc1001|52=20231204-09:57:02.067|56=IDX|98=0|108=30|1137=7|10=078|8=FIXT.1.1|9=75|35=A|34=768|49=vbfc1001|52=20231204-09:57:03.117|56=IDX|98=0|108=30|1137=7|10=076|8=FIXT.1.1|9=75|35=A|34=769|49=vbfc1001|52=20231204-09:57:04.170|56=IDX|98=0|108=30|1137=7|10=077|8=FIXT.1.1|9=75|35=A|34=770|49=vbfc1001|52=20231204-09:57:05.216|56=IDX|98=0|108=30|1137=7|10=071|8=FIXT.1.1|9=75|35=A|34=771|49=vbfc1001|52=20231204-09:57:06.258|56=IDX|98=0|108=30|1137=7|10=079|8=FIXT.1.1|9=75|35=A|34=772|49=vbfc1001|52=20231204-09:57:07.299|56=IDX|98=0|108=30|1137=7|10=086|8=FIXT.1.1|9=75|35=A|34=773|49=vbfc1001|52=20231204-09:57:08.344|56=IDX|98=0|108=30|1137=7|10=079|8=FIXT.1.1|9=75|35=A|34=774|49=vbfc1001|52=20231204-09:57:09.398|56=IDX|98=0|108=30|1137=7|10=090|8=FIXT.1.1|9=75|35=A|34=775|49=vbfc1001|52=20231204-09:57:10.438|56=IDX|98=0|108=30|1137=7|10=078|8=FIXT.1.1|9=75|35=A|34=776|49=vbfc1001|52=20231204-09:57:11.477|56=IDX|98=0|108=30|1137=7|10=083|8=FIXT.1.1|9=75|35=A|34=777|49=vbfc1001|52=20231204-09:57:12.511|56=IDX|98=0|108=30|1137=7|10=074|8=FIXT.1.1|9=75|35=A|34=778|49=vbfc1001|52=20231204-09:57:13.044|56=IDX|98=0|108=30|1137=7|10=077|8=FIXT.1.1|9=75|35=A|34=779|49=vbfc1001|52=20231204-09:57:14.076|56=IDX|98=0|108=30|1137=7|10=084|8=FIXT.1.1|9=75|35=A|34=780|49=vbfc1001|52=20231204-09:57:15.108|56=IDX|98=0|108=30|1137=7|10=073|8=FIXT.1.1|9=75|35=A|34=781|49=vbfc1001|52=20231204-09:57:16.137|56=IDX|98=0|108=30|1137=7|10=077|8=FIXT.1.1|9=75|35=A|34=782|49=vbfc1001|52=20231204-09:57:17.167|56=IDX|98=0|108=30|1137=7|10=082|8=FIXT.1.1|9=75|35=A|34=783|49=vbfc1001|52=20231204-09:57:18.197|56=IDX|98=0|108=30|1137=7|10=087|8=FIXT.1.1|9=75|35=A|34=784|49=vbfc1001|52=20231204-09:57:19.220|56=IDX|98=0|108=30|1137=7|10=076|8=FIXT.1.1|9=75|35=A|34=785|49=vbfc1001|52=20231204-09:57:20.301|56=IDX|98=0|108=30|1137=7|10=069|8=FIXT.1.1|9=75|35=A|34=786|49=vbfc1001|52=20231204-09:57:21.378|56=IDX|98=0|108=30|1137=7|10=085|8=FIXT.1.1|9=75|35=A|34=787|49=vbfc1001|52=20231204-09:57:22.398|56=IDX|98=0|108=30|1137=7|10=089|8=FIXT.1.1|9=75|35=A|34=788|49=vbfc1001|52=20231204-09:57:23.420|56=IDX|98=0|108=30|1137=7|10=077|8=FIXT.1.1|9=75|35=A|34=789|49=vbfc1001|52=20231204-09:57:24.438|56=IDX|98=0|108=30|1137=7|10=088|8=FIXT.1.1|9=75|35=A|34=790|49=vbfc1001|52=20231204-09:57:25.454|56=IDX|98=0|108=30|1137=7|10=079|8=FIXT.1.1|9=75|35=A|34=791|49=vbfc1001|52=20231204-09:57:26.470|56=IDX|98=0|108=30|1137=7|10=079|8=FIXT.1.1|9=75|35=A|34=792|49=vbfc1001|52=20231204-09:57:27.513|56=IDX|98=0|108=30|1137=7|10=079|8=FIXT.1.1|9=75|35=A|34=793|49=vbfc1001|52=20231204-09:57:28.027|56=IDX|98=0|108=30|1137=7|10=081|8=FIXT.1.1|9=75|35=A|34=794|49=vbfc1001|52=20231204-09:57:29.056|56=IDX|98=0|108=30|1137=7|10=085|8=FIXT.1.1|9=75|35=A|34=795|49=vbfc1001|52=20231204-09:57:30.078|56=IDX|98=0|108=30|1137=7|10=082|8=FIXT.1.1|9=75|35=A|34=796|49=vbfc1001|52=20231204-09:57:31.086|56=IDX|98=0|108=30|1137=7|10=083|8=FIXT.1.1|9=75|35=A|34=797|49=vbfc1001|52=20231204-09:57:32.100|56=IDX|98=0|108=30|1137=7|10=072|8=FIXT.1.1|9=75|35=A|34=798|49=vbfc1001|52=20231204-09:57:33.105|56=IDX|98=0|108=30|1137=7|10=079|8=FIXT.1.1|9=75|35=A|34=799|49=vbfc1001|52=20231204-09:57:34.112|56=IDX|98=0|108=30|1137=7|10=079|8=FIXT.1.1|9=75|35=A|34=800|49=vbfc1001|52=20231204-09:57:35.115|56=IDX|98=0|108=30|1137=7|10=066|8=FIXT.1.1|9=75|35=A|34=801|49=vbfc1001|52=20231204-09:57:36.119|56=IDX|98=0|108=30|1137=7|10=072|8=FIXT.1.1|9=75|35=A|34=802|49=vbfc1001|52=20231204-09:57:37.124|56=IDX|98=0|108=30|1137=7|10=070|8=FIXT.1.1|9=75|35=A|34=803|49=vbfc1001|52=20231204-09:57:38.128|56=IDX|98=0|108=30|1137=7|10=076|8=FIXT.1.1|9=75|35=A|34=804|49=vbfc1001|52=20231204-09:57:39.148|56=IDX|98=0|108=30|1137=7|10=080|8=FIXT.1.1|9=75|35=A|34=805|49=vbfc1001|52=20231204-09:57:40.147|56=IDX|98=0|108=30|1137=7|10=072|8=FIXT.1.1|9=75|35=A|34=806|49=vbfc1001|52=20231204-09:57:41.147|56=IDX|98=0|108=30|1137=7|10=074|8=FIXT.1.1|9=75|35=A|34=807|49=vbfc1001|52=20231204-09:57:42.144|56=IDX|98=0|108=30|1137=7|10=073|8=FIXT.1.1|9=75|35=A|34=808|49=vbfc1001|52=20231204-09:57:43.141|56=IDX|98=0|108=30|1137=7|10=072|8=FIXT.1.1|9=75|35=A|34=809|49=vbfc1001|52=20231204-09:57:44.141|56=IDX|98=0|108=30|1137=7|10=074|8=FIXT.1.1|9=75|35=A|34=810|49=vbfc1001|52=20231204-09:57:45.136|56=IDX|98=0|108=30|1137=7|10=071|8=FIXT.1.1|9=75|35=A|34=811|49=vbfc1001|52=20231204-09:57:46.132|56=IDX|98=0|108=30|1137=7|10=069|8=FIXT.1.1|9=75|35=A|34=812|49=vbfc1001|52=20231204-09:57:47.130|56=IDX|98=0|108=30|1137=7|10=069|8=FIXT.1.1|9=75|35=A|34=813|49=vbfc1001|52=20231204-09:57:48.129|56=IDX|98=0|108=30|1137=7|10=079|8=FIXT.1.1|9=75|35=A|34=814|49=vbfc1001|52=20231204-09:57:49.132|56=IDX|98=0|108=30|1137=7|10=075|8=FIXT.1.1|9=75|35=A|34=815|49=vbfc1001|52=20231204-09:57:50.127|56=IDX|98=0|108=30|1137=7|10=072|8=FIXT.1.1|9=75|35=A|34=816|49=vbfc1001|52=20231204-09:57:51.117|56=IDX|98=0|108=30|1137=7|10=073|8=FIXT.1.1|9=75|35=A|34=817|49=vbfc1001|52=20231204-09:57:52.104|56=IDX|98=0|108=30|1137=7|10=071|8=FIXT.1.1|9=75|35=A|34=818|49=vbfc1001|52=20231204-09:57:53.093|56=IDX|98=0|108=30|1137=7|10=080|8=FIXT.1.1|9=75|35=A|34=819|49=vbfc1001|52=20231204-09:57:54.108|56=IDX|98=0|108=30|1137=7|10=079|8=FIXT.1.1|9=75|35=A|34=820|49=vbfc1001|52=20231204-09:57:55.098|56=IDX|98=0|108=30|1137=7|10=080|8=FIXT.1.1|9=75|35=A|34=821|49=vbfc1001|52=20231204-09:57:56.082|56=IDX|98=0|108=30|1137=7|10=075|8=FIXT.1.1|9=75|35=A|34=822|49=vbfc1001|52=20231204-09:57:57.067|56=IDX|98=0|108=30|1137=7|10=080|8=FIXT.1.1|9=75|35=A|34=823|49=vbfc1001|52=20231204-09:57:58.065|56=IDX|98=0|108=30|1137=7|10=080|8=FIXT.1.1|9=75|35=A|34=824|49=vbfc1001|52=20231204-09:57:59.047|56=IDX|98=0|108=30|1137=7|10=082|8=FIXT.1.1|9=75|35=A|34=825|49=vbfc1001|52=20231204-09:58:00.039|56=IDX|98=0|108=30|1137=7|10=071|8=FIXT.1.1|9=75|35=A|34=826|49=vbfc1001|52=20231204-09:58:01.510|56=IDX|98=0|108=30|1137=7|10=067|8=FIXT.1.1|9=75|35=A|34=827|49=vbfc1001|52=20231204-09:58:02.486|56=IDX|98=0|108=30|1137=7|10=081|8=FIXT.1.1|9=75|35=A|34=828|49=vbfc1001|52=20231204-09:58:03.461|56=IDX|98=0|108=30|1137=7|10=076|8=FIXT.1.1|9=75|35=A|34=829|49=vbfc1001|52=20231204-09:58:04.475|56=IDX|98=0|108=30|1137=7|10=083|8=FIXT.1.1|9=75|35=A|34=830|49=vbfc1001|52=20231204-09:58:05.469|56=IDX|98=0|108=30|1137=7|10=079|8=FIXT.1.1|9=75|35=A|34=831|49=vbfc1001|52=20231204-09:58:06.436|56=IDX|98=0|108=30|1137=7|10=075|8=FIXT.1.1|9=75|35=A|34=832|49=vbfc1001|52=20231204-09:58:07.412|56=IDX|98=0|108=30|1137=7|10=071|8=FIXT.1.1|9=75|35=A|34=833|49=vbfc1001|52=20231204-09:58:08.380|56=IDX|98=0|108=30|1137=7|10=077|8=FIXT.1.1|9=75|35=A|34=834|49=vbfc1001|52=20231204-09:58:09.365|56=IDX|98=0|108=30|1137=7|10=082|8=FIXT.1.1|9=75|35=A|34=835|49=vbfc1001|52=20231204-09:58:10.331|56=IDX|98=0|108=30|1137=7|10=068|8=FIXT.1.1|9=75|35=A|34=836|49=vbfc1001|52=20231204-09:58:11.295|56=IDX|98=0|108=30|1137=7|10=079|8=FIXT.1.1|9=75|35=A|34=837|49=vbfc1001|52=20231204-09:58:12.265|56=IDX|98=0|108=30|1137=7|10=078|8=FIXT.1.1|9=75|35=A|34=838|49=vbfc1001|52=20231204-09:58:13.223|56=IDX|98=0|108=30|1137=7|10=074|8=FIXT.1.1|9=75|35=A|34=839|49=vbfc1001|52=20231204-09:58:14.209|56=IDX|98=0|108=30|1137=7|10=080|8=FIXT.1.1|9=75|35=A|34=840|49=vbfc1001|52=20231204-09:58:15.167|56=IDX|98=0|108=30|1137=7|10=076|8=FIXT.1.1|9=75|35=A|34=841|49=vbfc1001|52=20231204-09:58:16.125|56=IDX|98=0|108=30|1137=7|10=072|8=FIXT.1.1|9=75|35=A|34=842|49=vbfc1001|52=20231204-09:58:17.080|56=IDX|98=0|108=30|1137=7|10=074|8=FIXT.1.1|9=75|35=A|34=843|49=vbfc1001|52=20231204-09:58:18.031|56=IDX|98=0|108=30|1137=7|10=072|8=FIXT.1.1|9=75|35=A|34=844|49=vbfc1001|52=20231204-09:58:19.450|56=IDX|98=0|108=30|1137=7|10=079|8=FIXT.1.1|9=75|35=A|34=845|49=vbfc1001|52=20231204-09:58:20.398|56=IDX|98=0|108=30|1137=7|10=083|8=FIXT.1.1|9=75|35=A|34=846|49=vbfc1001|52=20231204-09:58:21.345|56=IDX|98=0|108=30|1137=7|10=077|8=FIXT.1.1|9=75|35=A|34=847|49=vbfc1001|52=20231204-09:58:22.291|56=IDX|98=0|108=30|1137=7|10=079|8=FIXT.1.1|9=75|35=A|34=848|49=vbfc1001|52=20231204-09:58:23.237|56=IDX|98=0|108=30|1137=7|10=081|8=FIXT.1.1|9=75|35=A|34=849|49=vbfc1001|52=20231204-09:58:24.207|56=IDX|98=0|108=30|1137=7|10=080|8=FIXT.1.1|9=75|35=A|34=850|49=vbfc1001|52=20231204-09:58:25.149|56=IDX|98=0|108=30|1137=7|10=078|8=FIXT.1.1|9=75|35=A|34=851|49=vbfc1001|52=20231204-09:58:26.090|56=IDX|98=0|108=30|1137=7|10=075|8=FIXT.1.1|9=75|35=A|34=852|49=vbfc1001|52=20231204-09:58:27.029|56=IDX|98=0|108=30|1137=7|10=079|8=FIXT.1.1|9=75|35=A|34=853|49=vbfc1001|52=20231204-09:58:28.430|56=IDX|98=0|108=30|1137=7|10=077|8=FIXT.1.1|9=75|35=A|34=854|49=vbfc1001|52=20231204-09:58:29.366|56=IDX|98=0|108=30|1137=7|10=087|8=FIXT.1.1|9=75|35=A|34=855|49=vbfc1001|52=20231204-09:58:30.301|56=IDX|98=0|108=30|1137=7|10=069|8=FIXT.1.1|9=75|35=A|34=856|49=vbfc1001|52=20231204-09:58:31.235|56=IDX|98=0|108=30|1137=7|10=077|8=FIXT.1.1|9=75|35=A|34=857|49=vbfc1001|52=20231204-09:58:32.180|56=IDX|98=0|108=30|1137=7|10=078|8=FIXT.1.1|9=75|35=A|34=858|49=vbfc1001|52=20231204-09:58:33.286|56=IDX|98=0|108=30|1137=7|10=087|8=FIXT.1.1|9=75|35=A|34=859|49=vbfc1001|52=20231204-09:58:34.353|56=IDX|98=0|108=30|1137=7|10=084|8=FIXT.1.1|9=75|35=A|34=860|49=vbfc1001|52=20231204-09:58:35.279|56=IDX|98=0|108=30|1137=7|10=084|8=FIXT.1.1|9=75|35=A|34=861|49=vbfc1001|52=20231204-09:58:36.206|56=IDX|98=0|108=30|1137=7|10=076|8=FIXT.1.1|9=75|35=A|34=862|49=vbfc1001|52=20231204-09:58:37.140|56=IDX|98=0|108=30|1137=7|10=075|8=FIXT.1.1|9=75|35=A|34=863|49=vbfc1001|52=20231204-09:58:38.067|56=IDX|98=0|108=30|1137=7|10=085|8=FIXT.1.1|9=75|35=A|34=864|49=vbfc1001|52=20231204-09:58:39.448|56=IDX|98=0|108=30|1137=7|10=090|8=FIXT.1.1|9=75|35=A|34=865|49=vbfc1001|52=20231204-09:58:40.365|56=IDX|98=0|108=30|1137=7|10=081|8=FIXT.1.1|9=75|35=A|34=866|49=vbfc1001|52=20231204-09:58:41.282|56=IDX|98=0|108=30|1137=7|10=081|8=FIXT.1.1|9=75|35=A|34=867|49=vbfc1001|52=20231204-09:58:42.199|56=IDX|98=0|108=30|1137=7|10=090|8=FIXT.1.1|9=75|35=A|34=868|49=vbfc1001|52=20231204-09:58:43.117|56=IDX|98=0|108=30|1137=7|10=082|8=FIXT.1.1|9=75|35=A|34=869|49=vbfc1001|52=20231204-09:58:44.033|56=IDX|98=0|108=30|1137=7|10=081|8=FIXT.1.1|9=75|35=A|34=870|49=vbfc1001|52=20231204-09:58:45.398|56=IDX|98=0|108=30|1137=7|10=088|8=FIXT.1.1|9=75|35=A|34=871|49=vbfc1001|52=20231204-09:58:46.308|56=IDX|98=0|108=30|1137=7|10=081|8=FIXT.1.1|9=75|35=A|34=872|49=vbfc1001|52=20231204-09:58:47.220|56=IDX|98=0|108=30|1137=7|10=076|8=FIXT.1.1|9=75|35=A|34=873|49=vbfc1001|52=20231204-09:58:48.127|56=IDX|98=0|108=30|1137=7|10=084|8=FIXT.1.1|9=75|35=A|34=874|49=vbfc1001|52=20231204-09:58:49.031|56=IDX|98=0|108=30|1137=7|10=080|8=FIXT.1.1|9=75|35=A|34=875|49=vbfc1001|52=20231204-09:58:50.380|56=IDX|98=0|108=30|1137=7|10=080|8=FIXT.1.1|9=75|35=A|34=876|49=vbfc1001|52=20231204-09:58:51.285|56=IDX|98=0|108=30|1137=7|10=086|8=FIXT.1.1|9=75|35=A|34=877|49=vbfc1001|52=20231204-09:58:52.185|56=IDX|98=0|108=30|1137=7|10=087|8=FIXT.1.1|9=75|35=A|34=878|49=vbfc1001|52=20231204-09:58:53.105|56=IDX|98=0|108=30|1137=7|10=081|8=FIXT.1.1|9=75|35=A|34=879|49=vbfc1001|52=20231204-09:58:54.446|56=IDX|98=0|108=30|1137=7|10=091|8=FIXT.1.1|9=75|35=A|34=880|49=vbfc1001|52=20231204-09:58:55.343|56=IDX|98=0|108=30|1137=7|10=080|8=FIXT.1.1|9=75|35=A|34=881|49=vbfc1001|52=20231204-09:58:56.237|56=IDX|98=0|108=30|1137=7|10=084|8=FIXT.1.1|9=75|35=A|34=882|49=vbfc1001|52=20231204-09:58:57.129|56=IDX|98=0|108=30|1137=7|10=086|8=FIXT.1.1|9=75|35=A|34=883|49=vbfc1001|52=20231204-09:58:58.018|56=IDX|98=0|108=30|1137=7|10=085|8=FIXT.1.1|9=75|35=A|34=884|49=vbfc1001|52=20231204-09:58:59.350|56=IDX|98=0|108=30|1137=7|10=086|8=FIXT.1.1|9=75|35=A|34=885|49=vbfc1001|52=20231204-09:59:00.238|56=IDX|98=0|108=30|1137=7|10=079|8=FIXT.1.1|9=75|35=A|34=886|49=vbfc1001|52=20231204-09:59:01.124|56=IDX|98=0|108=30|1137=7|10=075|8=FIXT.1.1|9=75|35=A|34=887|49=vbfc1001|52=20231204-09:59:02.447|56=IDX|98=0|108=30|1137=7|10=085|8=FIXT.1.1|9=75|35=A|34=888|49=vbfc1001|52=20231204-09:59:03.340|56=IDX|98=0|108=30|1137=7|10=079|8=FIXT.1.1|9=75|35=A|34=889|49=vbfc1001|52=20231204-09:59:04.223|56=IDX|98=0|108=30|1137=7|10=081|8=FIXT.1.1|9=75|35=A|34=890|49=vbfc1001|52=20231204-09:59:05.103|56=IDX|98=0|108=30|1137=7|10=071|8=FIXT.1.1|9=75|35=A|34=891|49=vbfc1001|52=20231204-09:59:06.444|56=IDX|98=0|108=30|1137=7|10=081|8=FIXT.1.1|9=75|35=A|34=892|49=vbfc1001|52=20231204-09:59:07.323|56=IDX|98=0|108=30|1137=7|10=079|8=FIXT.1.1|9=75|35=A|34=893|49=vbfc1001|52=20231204-09:59:08.199|56=IDX|98=0|108=30|1137=7|10=092|8=FIXT.1.1|9=75|35=A|34=894|49=vbfc1001|52=20231204-09:59:09.079|56=IDX|98=0|108=30|1137=7|10=091|8=FIXT.1.1|9=75|35=A|34=895|49=vbfc1001|52=20231204-09:59:10.389|56=IDX|98=0|108=30|1137=7|10=088|8=FIXT.1.1|9=75|35=A|34=896|49=vbfc1001|52=20231204-09:59:11.266|56=IDX|98=0|108=30|1137=7|10=084|8=FIXT.1.1|9=75|35=A|34=897|49=vbfc1001|52=20231204-09:59:12.143|56=IDX|98=0|108=30|1137=7|10=080|8=FIXT.1.1|9=75|35=A|34=898|49=vbfc1001|52=20231204-09:59:13.447|56=IDX|98=0|108=30|1137=7|10=089|8=FIXT.1.1|9=75|35=A|34=899|49=vbfc1001|52=20231204-09:59:14.316|56=IDX|98=0|108=30|1137=7|10=086|8=FIXT.1.1|9=75|35=A|34=900|49=vbfc1001|52=20231204-09:59:15.186|56=IDX|98=0|108=30|1137=7|10=075|8=FIXT.1.1|9=75|35=A|34=901|49=vbfc1001|52=20231204-09:59:16.059|56=IDX|98=0|108=30|1137=7|10=076|8=FIXT.1.1|9=75|35=A|34=902|49=vbfc1001|52=20231204-09:59:17.370|56=IDX|98=0|108=30|1137=7|10=074|8=FIXT.1.1|9=75|35=A|34=903|49=vbfc1001|52=20231204-09:59:18.239|56=IDX|98=0|108=30|1137=7|10=080|8=FIXT.1.1|9=75|35=A|34=904|49=vbfc1001|52=20231204-09:59:19.109|56=IDX|98=0|108=30|1137=7|10=078|8=FIXT.1.1|9=75|35=A|34=905|49=vbfc1001|52=20231204-09:59:20.401|56=IDX|98=0|108=30|1137=7|10=066|8=FIXT.1.1|9=75|35=A|34=906|49=vbfc1001|52=20231204-09:59:21.271|56=IDX|98=0|108=30|1137=7|10=073|8=FIXT.1.1|9=75|35=A|34=907|49=vbfc1001|52=20231204-09:59:22.131|56=IDX|98=0|108=30|1137=7|10=070|8=FIXT.1.1|9=75|35=A|34=908|49=vbfc1001|52=20231204-09:59:23.415|56=IDX|98=0|108=30|1137=7|10=077|8=FIXT.1.1|9=75|35=A|34=909|49=vbfc1001|52=20231204-09:59:24.271|56=IDX|98=0|108=30|1137=7|10=079|8=FIXT.1.1|9=75|35=A|34=910|49=vbfc1001|52=20231204-09:59:25.126|56=IDX|98=0|108=30|1137=7|10=071|8=FIXT.1.1|9=75|35=A|34=911|49=vbfc1001|52=20231204-09:59:26.404|56=IDX|98=0|108=30|1137=7|10=072|8=FIXT.1.1|9=75|35=A|34=912|49=vbfc1001|52=20231204-09:59:27.256|56=IDX|98=0|108=30|1137=7|10=079|8=FIXT.1.1|9=75|35=A|34=913|49=vbfc1001|52=20231204-09:59:28.139|56=IDX|98=0|108=30|1137=7|10=081|8=FIXT.1.1|9=75|35=A|34=914|49=vbfc1001|52=20231204-09:59:29.416|56=IDX|98=0|108=30|1137=7|10=081|8=FIXT.1.1|9=75|35=A|34=915|49=vbfc1001|52=20231204-09:59:30.264|56=IDX|98=0|108=30|1137=7|10=075|8=FIXT.1.1|9=75|35=A|34=916|49=vbfc1001|52=20231204-09:59:31.110|56=IDX|98=0|108=30|1137=7|10=067|8=FIXT.1.1|9=75|35=A|34=917|49=vbfc1001|52=20231204-09:59:32.449|56=IDX|98=0|108=30|1137=7|10=084|8=FIXT.1.1|9=75|35=A|34=918|49=vbfc1001|52=20231204-09:59:33.296|56=IDX|98=0|108=30|1137=7|10=086|8=FIXT.1.1|9=75|35=A|34=919|49=vbfc1001|52=20231204-09:59:34.147|56=IDX|98=0|108=30|1137=7|10=083|8=FIXT.1.1|9=75|35=A|34=920|49=vbfc1001|52=20231204-09:59:35.404|56=IDX|98=0|108=30|1137=7|10=072|8=FIXT.1.1|9=75|35=A|34=921|49=vbfc1001|52=20231204-09:59:36.244|56=IDX|98=0|108=30|1137=7|10=076|8=FIXT.1.1|9=75|35=A|34=922|49=vbfc1001|52=20231204-09:59:37.132|56=IDX|98=0|108=30|1137=7|10=074|8=FIXT.1.1|9=75|35=A|34=923|49=vbfc1001|52=20231204-09:59:38.386|56=IDX|98=0|108=30|1137=7|10=087|8=FIXT.1.1|9=75|35=A|34=924|49=vbfc1001|52=20231204-09:59:39.220|56=IDX|98=0|108=30|1137=7|10=076|8=FIXT.1.1|9=75|35=A|34=925|49=vbfc1001|52=20231204-09:59:40.053|56=IDX|98=0|108=30|1137=7|10=073|8=FIXT.1.1|9=75|35=A|34=926|49=vbfc1001|52=20231204-09:59:41.341|56=IDX|98=0|108=30|1137=7|10=075|8=FIXT.1.1|9=75|35=A|34=927|49=vbfc1001|52=20231204-09:59:42.172|56=IDX|98=0|108=30|1137=7|10=079|8=FIXT.1.1|9=75|35=A|34=928|49=vbfc1001|52=20231204-09:59:43.416|56=IDX|98=0|108=30|1137=7|10=082|8=FIXT.1.1|9=75|35=A|34=929|49=vbfc1001|52=20231204-09:59:44.250|56=IDX|98=0|108=30|1137=7|10=080|8=FIXT.1.1|9=75|35=A|34=930|49=vbfc1001|52=20231204-09:59:45.085|56=IDX|98=0|108=30|1137=7|10=079|8=FIXT.1.1|9=75|35=A|34=931|49=vbfc1001|52=20231204-09:59:46.318|56=IDX|98=0|108=30|1137=7|10=080|8=FIXT.1.1|9=75|35=A|34=932|49=vbfc1001|52=20231204-09:59:47.141|56=IDX|98=0|108=30|1137=7|10=076|8=FIXT.1.1|9=75|35=A|34=933|49=vbfc1001|52=20231204-09:59:48.369|56=IDX|98=0|108=30|1137=7|10=090|8=FIXT.1.1|9=75|35=A|34=934|49=vbfc1001|52=20231204-09:59:49.234|56=IDX|98=0|108=30|1137=7|10=083|8=FIXT.1.1|9=75|35=A|34=935|49=vbfc1001|52=20231204-09:59:50.053|56=IDX|98=0|108=30|1137=7|10=075|8=FIXT.1.1|9=75|35=A|34=936|49=vbfc1001|52=20231204-09:59:51.287|56=IDX|98=0|108=30|1137=7|10=086|8=FIXT.1.1|9=75|35=A|34=937|49=vbfc1001|52=20231204-09:59:52.109|56=IDX|98=0|108=30|1137=7|10=081|8=FIXT.1.1|9=75|35=A|34=938|49=vbfc1001|52=20231204-09:59:53.330|56=IDX|98=0|108=30|1137=7|10=079|8=FIXT.1.1|9=75|35=A|34=939|49=vbfc1001|52=20231204-09:59:54.147|56=IDX|98=0|108=30|1137=7|10=087|8=FIXT.1.1|9=75|35=A|34=940|49=vbfc1001|52=20231204-09:59:55.361|56=IDX|98=0|108=30|1137=7|10=078|8=FIXT.1.1|9=75|35=A|34=941|49=vbfc1001|52=20231204-09:59:56.171|56=IDX|98=0|108=30|1137=7|10=079|8=FIXT.1.1|9=75|35=A|34=942|49=vbfc1001|52=20231204-09:59:57.379|56=IDX|98=0|108=30|1137=7|10=091|8=FIXT.1.1|9=75|35=A|34=943|49=vbfc1001|52=20231204-09:59:58.187|56=IDX|98=0|108=30|1137=7|10=090|8=FIXT.1.1|9=75|35=A|34=944|49=vbfc1001|52=20231204-09:59:59.393|56=IDX|98=0|108=30|1137=7|10=091|8=FIXT.1.1|9=75|35=A|34=945|49=vbfc1001|52=20231204-10:00:00.201|56=IDX|98=0|108=30|1137=7|10=044|8=FIXT.1.1|9=75|35=A|34=946|49=vbfc1001|52=20231204-10:00:01.402|56=IDX|98=0|108=30|1137=7|10=049|8=FIXT.1.1|9=75|35=A|34=947|49=vbfc1001|52=20231204-10:00:02.203|56=IDX|98=0|108=30|1137=7|10=050|8=FIXT.1.1|9=75|35=A|34=948|49=vbfc1001|52=20231204-10:00:03.408|56=IDX|98=0|108=30|1137=7|10=059|8=FIXT.1.1|9=75|35=A|34=949|49=vbfc1001|52=20231204-10:00:04.209|56=IDX|98=0|108=30|1137=7|10=060|8=FIXT.1.1|9=75|35=A|34=950|49=vbfc1001|52=20231204-10:00:05.399|56=IDX|98=0|108=30|1137=7|10=063|8=FIXT.1.1|9=75|35=A|34=951|49=vbfc1001|52=20231204-10:00:06.194|56=IDX|98=0|108=30|1137=7|10=058|8=FIXT.1.1|9=75|35=A|34=952|49=vbfc1001|52=20231204-10:00:07.423|56=IDX|98=0|108=30|1137=7|10=055|8=FIXT.1.1|9=75|35=A|34=953|49=vbfc1001|52=20231204-10:00:08.717|56=IDX|98=0|108=30|1137=7|10=063|8=FIXT.1.1|9=75|35=A|34=954|49=vbfc1001|52=20231204-10:00:09.128|56=IDX|98=0|108=30|1137=7|10=061|8=FIXT.1.1|9=75|35=A|34=955|49=vbfc1001|52=20231204-10:00:10.331|56=IDX|98=0|108=30|1137=7|10=050|8=FIXT.1.1|9=75|35=A|34=956|49=vbfc1001|52=20231204-10:00:11.126|56=IDX|98=0|108=30|1137=7|10=054|8=FIXT.1.1|9=75|35=A|34=957|49=vbfc1001|52=20231204-10:00:12.304|56=IDX|98=0|108=30|1137=7|10=054|8=FIXT.1.1|9=75|35=A|34=958|49=vbfc1001|52=20231204-10:00:13.099|56=IDX|98=0|108=30|1137=7|10=067|8=FIXT.1.1|9=75|35=A|34=959|49=vbfc1001|52=20231204-10:00:14.275|56=IDX|98=0|108=30|1137=7|10=065|8=FIXT.1.1|9=75|35=A|34=960|49=vbfc1001|52=20231204-10:00:15.059|56=IDX|98=0|108=30|1137=7|10=058|8=FIXT.1.1|9=75|35=A|34=961|49=vbfc1001|52=20231204-10:00:16.230|56=IDX|98=0|108=30|1137=7|10=051|8=FIXT.1.1|9=75|35=A|34=962|49=vbfc1001|52=20231204-10:00:17.404|56=IDX|98=0|108=30|1137=7|10=056|8=FIXT.1.1|9=75|35=A|34=963|49=vbfc1001|52=20231204-10:00:18.188|56=IDX|98=0|108=30|1137=7|10=067|8=FIXT.1.1|9=75|35=A|34=964|49=vbfc1001|52=20231204-10:00:19.360|56=IDX|98=0|108=30|1137=7|10=061|8=FIXT.1.1|9=75|35=A|34=965|49=vbfc1001|52=20231204-10:00:20.145|56=IDX|98=0|108=30|1137=7|10=055|8=FIXT.1.1|9=75|35=A|34=966|49=vbfc1001|52=20231204-10:00:21.880|56=IDX|98=0|108=30|1137=7|10=063|8=FIXT.1.1|9=75|35=A|34=967|49=vbfc1001|52=20231204-10:00:22.630|56=IDX|98=0|108=30|1137=7|10=058|8=FIXT.1.1|9=75|35=A|34=968|49=vbfc1001|52=20231204-10:00:23.036|56=IDX|98=0|108=30|1137=7|10=060|8=FIXT.1.1|9=75|35=A|34=969|49=vbfc1001|52=20231204-10:00:24.199|56=IDX|98=0|108=30|1137=7|10=072|8=FIXT.1.1|9=75|35=A|34=970|49=vbfc1001|52=20231204-10:00:25.377|56=IDX|98=0|108=30|1137=7|10=063|8=FIXT.1.1|9=75|35=A|34=971|49=vbfc1001|52=20231204-10:00:26.242|56=IDX|98=0|108=30|1137=7|10=056|8=FIXT.1.1|9=75|35=A|34=972|49=vbfc1001|52=20231204-10:00:27.394|56=IDX|98=0|108=30|1137=7|10=066|8=FIXT.1.1|9=75|35=A|34=973|49=vbfc1001|52=20231204-10:00:28.287|56=IDX|98=0|108=30|1137=7|10=069|8=FIXT.1.1|9=75|35=A|34=974|49=vbfc1001|52=20231204-10:00:29.139|56=IDX|98=0|108=30|1137=7|10=067|8=FIXT.1.1|9=75|35=A|34=975|49=vbfc1001|52=20231204-10:00:30.284|56=IDX|98=0|108=30|1137=7|10=061|8=FIXT.1.1|9=75|35=A|34=976|49=vbfc1001|52=20231204-10:00:31.060|56=IDX|98=0|108=30|1137=7|10=055|8=FIXT.1.1|9=75|35=A|34=977|49=vbfc1001|52=20231204-10:00:32.210|56=IDX|98=0|108=30|1137=7|10=054|8=FIXT.1.1|9=75|35=A|34=978|49=vbfc1001|52=20231204-10:00:33.349|56=IDX|98=0|108=30|1137=7|10=069|8=FIXT.1.1|9=75|35=A|34=979|49=vbfc1001|52=20231204-10:00:34.115|56=IDX|98=0|108=30|1137=7|10=062|8=FIXT.1.1|9=75|35=A|34=980|49=vbfc1001|52=20231204-10:00:35.256|56=IDX|98=0|108=30|1137=7|10=061|8=FIXT.1.1|9=75|35=A|34=981|49=vbfc1001|52=20231204-10:00:36.393|56=IDX|98=0|108=30|1137=7|10=065|8=FIXT.1.1|9=75|35=A|34=982|49=vbfc1001|52=20231204-10:00:37.170|56=IDX|98=0|108=30|1137=7|10=060|8=FIXT.1.1|9=75|35=A|34=983|49=vbfc1001|52=20231204-10:00:38.301|56=IDX|98=0|108=30|1137=7|10=058|8=FIXT.1.1|9=75|35=A|34=984|49=vbfc1001|52=20231204-10:00:39.054|56=IDX|98=0|108=30|1137=7|10=065|8=FIXT.1.1|9=75|35=A|34=985|49=vbfc1001|52=20231204-10:00:40.179|56=IDX|98=0|108=30|1137=7|10=066|8=FIXT.1.1|9=75|35=A|34=986|49=vbfc1001|52=20231204-10:00:41.305|56=IDX|98=0|108=30|1137=7|10=059|8=FIXT.1.1|9=75|35=A|34=987|49=vbfc1001|52=20231204-10:00:42.054|56=IDX|98=0|108=30|1137=7|10=062|8=FIXT.1.1|9=75|35=A|34=988|49=vbfc1001|52=20231204-10:00:43.174|56=IDX|98=0|108=30|1137=7|10=067|8=FIXT.1.1|9=75|35=A|34=989|49=vbfc1001|52=20231204-10:00:44.308|56=IDX|98=0|108=30|1137=7|10=068|8=FIXT.1.1|9=75|35=A|34=990|49=vbfc1001|52=20231204-10:00:45.054|56=IDX|98=0|108=30|1137=7|10=059|8=FIXT.1.1|9=75|35=A|34=991|49=vbfc1001|52=20231204-10:00:46.169|56=IDX|98=0|108=30|1137=7|10=068|8=FIXT.1.1|9=75|35=A|34=992|49=vbfc1001|52=20231204-10:00:47.287|56=IDX|98=0|108=30|1137=7|10=071|8=FIXT.1.1|9=75|35=A|34=993|49=vbfc1001|52=20231204-10:00:48.041|56=IDX|98=0|108=30|1137=7|10=061|8=FIXT.1.1|9=75|35=A|34=994|49=vbfc1001|52=20231204-10:00:49.150|56=IDX|98=0|108=30|1137=7|10=064|8=FIXT.1.1|9=75|35=A|34=995|49=vbfc1001|52=20231204-10:00:50.256|56=IDX|98=0|108=30|1137=7|10=064|8=FIXT.1.1|9=75|35=A|34=996|49=vbfc1001|52=20231204-10:00:51.361|56=IDX|98=0|108=30|1137=7|10=063|8=FIXT.1.1|9=75|35=A|34=997|49=vbfc1001|52=20231204-10:00:52.099|56=IDX|98=0|108=30|1137=7|10=073|8=FIXT.1.1|9=75|35=A|34=998|49=vbfc1001|52=20231204-10:00:53.204|56=IDX|98=0|108=30|1137=7|10=063|8=FIXT.1.1|9=75|35=A|34=999|49=vbfc1001|52=20231204-10:00:54.301|56=IDX|98=0|108=30|1137=7|10=063|8=FIXT.1.1|9=76|35=A|34=1000|49=vbfc1001|52=20231204-10:00:55.041|56=IDX|98=0|108=30|1137=7|10=088|8=FIXT.1.1|9=76|35=A|34=1001|49=vbfc1001|52=20231204-10:00:56.135|56=IDX|98=0|108=30|1137=7|10=094|8=FIXT.1.1|9=76|35=A|34=1002|49=vbfc1001|52=20231204-10:00:57.232|56=IDX|98=0|108=30|1137=7|10=094|8=FIXT.1.1|9=76|35=A|34=1003|49=vbfc1001|52=20231204-10:00:58.373|56=IDX|98=0|108=30|1137=7|10=102|8=FIXT.1.1|9=76|35=A|34=1004|49=vbfc1001|52=20231204-10:00:59.111|56=IDX|98=0|108=30|1137=7|10=094|8=FIXT.1.1|9=76|35=A|34=1005|49=vbfc1001|52=20231204-10:01:00.199|56=IDX|98=0|108=30|1137=7|10=098|8=FIXT.1.1|9=76|35=A|34=1006|49=vbfc1001|52=20231204-10:01:01.293|56=IDX|98=0|108=30|1137=7|10=095|8=FIXT.1.1|9=76|35=A|34=1007|49=vbfc1001|52=20231204-10:01:02.058|56=IDX|98=0|108=30|1137=7|10=096|8=FIXT.1.1|9=76|35=A|34=1008|49=vbfc1001|52=20231204-10:01:03.302|56=IDX|98=0|108=30|1137=7|10=090|8=FIXT.1.1|9=76|35=A|34=1009|49=vbfc1001|52=20231204-10:01:04.025|56=IDX|98=0|108=30|1137=7|10=094|8=FIXT.1.1|9=76|35=A|34=1010|49=vbfc1001|52=20231204-10:01:05.119|56=IDX|98=0|108=30|1137=7|10=091|8=FIXT.1.1|9=76|35=A|34=1011|49=vbfc1001|52=20231204-10:01:06.197|56=IDX|98=0|108=30|1137=7|10=099|8=FIXT.1.1|9=76|35=A|34=1012|49=vbfc1001|52=20231204-10:01:07.281|56=IDX|98=0|108=30|1137=7|10=095|8=FIXT.1.1|9=76|35=A|34=1013|49=vbfc1001|52=20231204-10:01:08.357|56=IDX|98=0|108=30|1137=7|10=101|8=FIXT.1.1|9=76|35=A|34=1014|49=vbfc1001|52=20231204-10:01:09.088|56=IDX|98=0|108=30|1137=7|10=104|8=FIXT.1.1|9=76|35=A|34=1015|49=vbfc1001|52=20231204-10:01:10.305|56=IDX|98=0|108=30|1137=7|10=089|8=FIXT.1.1|9=76|35=A|34=1016|49=vbfc1001|52=20231204-10:01:11.054|56=IDX|98=0|108=30|1137=7|10=092|8=FIXT.1.1|9=76|35=A|34=1017|49=vbfc1001|52=20231204-10:01:12.122|56=IDX|98=0|108=30|1137=7|10=090|8=FIXT.1.1|9=76|35=A|34=1018|49=vbfc1001|52=20231204-10:01:13.207|56=IDX|98=0|108=30|1137=7|10=096|8=FIXT.1.1|9=76|35=A|34=1019|49=vbfc1001|52=20231204-10:01:15.080|56=IDX|98=0|108=30|1137=7|10=098|8=FIXT.1.1|9=76|35=A|34=1020|49=vbfc1001|52=20231204-10:01:16.149|56=IDX|98=0|108=30|1137=7|10=097|8=FIXT.1.1|9=76|35=A|34=1021|49=vbfc1001|52=20231204-10:01:17.949|56=IDX|98=0|108=30|1137=7|10=107|8=FIXT.1.1|9=76|35=A|34=1022