8=FIXT.1.1|9=79|35=A|34=1|49=INITIATOR|52=20231202-03:50:19.155|56=ACCEPTOR|98=0|108=30|1137=7|10=146|8=FIXT.1.1|9=79|35=A|34=2|49=INITIATOR|52=20231202-03:50:20.154|56=ACCEPTOR|98=0|108=30|1137=7|10=138|8=FIXT.1.1|9=79|35=A|34=3|49=INITIATOR|52=20231202-03:50:21.154|56=ACCEPTOR|98=0|108=30|1137=7|10=140|8=FIXT.1.1|9=79|35=A|34=4|49=INITIATOR|52=20231202-03:50:22.153|56=ACCEPTOR|98=0|108=30|1137=7|10=141|8=FIXT.1.1|9=79|35=A|34=5|49=INITIATOR|52=20231202-03:50:23.152|56=ACCEPTOR|98=0|108=30|1137=7|10=142|8=FIXT.1.1|9=79|35=A|34=6|49=INITIATOR|52=20231202-03:50:24.150|56=ACCEPTOR|98=0|108=30|1137=7|10=142|8=FIXT.1.1|9=79|35=A|34=7|49=INITIATOR|52=20231202-03:50:25.148|56=ACCEPTOR|98=0|108=30|1137=7|10=151|8=FIXT.1.1|9=79|35=A|34=8|49=INITIATOR|52=20231202-03:50:26.147|56=ACCEPTOR|98=0|108=30|1137=7|10=152|8=FIXT.1.1|9=79|35=A|34=9|49=INITIATOR|52=20231202-03:50:27.145|56=ACCEPTOR|98=0|108=30|1137=7|10=152|8=FIXT.1.1|9=80|35=A|34=10|49=INITIATOR|52=20231202-03:50:28.142|56=ACCEPTOR|98=0|108=30|1137=7|10=182|8=FIXT.1.1|9=80|35=A|34=11|49=INITIATOR|52=20231202-03:50:29.139|56=ACCEPTOR|98=0|108=30|1137=7|10=190|8=FIXT.1.1|9=80|35=A|34=12|49=INITIATOR|52=20231202-03:50:30.136|56=ACCEPTOR|98=0|108=30|1137=7|10=180|8=FIXT.1.1|9=80|35=A|34=13|49=INITIATOR|52=20231202-03:50:31.132|56=ACCEPTOR|98=0|108=30|1137=7|10=178|8=FIXT.1.1|9=80|35=A|34=14|49=INITIATOR|52=20231202-03:50:32.129|56=ACCEPTOR|98=0|108=30|1137=7|10=186|8=FIXT.1.1|9=80|35=A|34=15|49=INITIATOR|52=20231202-03:50:33.125|56=ACCEPTOR|98=0|108=30|1137=7|10=184|8=FIXT.1.1|9=80|35=A|34=16|49=INITIATOR|52=20231202-03:50:34.121|56=ACCEPTOR|98=0|108=30|1137=7|10=182|8=FIXT.1.1|9=80|35=A|34=17|49=INITIATOR|52=20231202-03:50:35.116|56=ACCEPTOR|98=0|108=30|1137=7|10=188|8=FIXT.1.1|9=80|35=A|34=18|49=INITIATOR|52=20231202-03:50:36.112|56=ACCEPTOR|98=0|108=30|1137=7|10=186|8=FIXT.1.1|9=80|35=A|34=19|49=INITIATOR|52=20231202-03:50:37.107|56=ACCEPTOR|98=0|108=30|1137=7|10=192|8=FIXT.1.1|9=80|35=A|34=20|49=INITIATOR|52=20231202-03:50:38.102|56=ACCEPTOR|98=0|108=30|1137=7|10=180|8=FIXT.1.1|9=80|35=A|34=21|49=INITIATOR|52=20231202-03:50:39.096|56=ACCEPTOR|98=0|108=30|1137=7|10=194|8=FIXT.1.1|9=80|35=A|34=22|49=INITIATOR|52=20231202-03:50:40.091|56=ACCEPTOR|98=0|108=30|1137=7|10=182|8=FIXT.1.1|9=80|35=A|34=23|49=INITIATOR|52=20231202-03:50:41.084|56=ACCEPTOR|98=0|108=30|1137=7|10=186|8=FIXT.1.1|9=80|35=A|34=24|49=INITIATOR|52=20231202-03:50:42.078|56=ACCEPTOR|98=0|108=30|1137=7|10=191|8=FIXT.1.1|9=80|35=A|34=25|49=INITIATOR|52=20231202-03:50:43.071|56=ACCEPTOR|98=0|108=30|1137=7|10=186|8=FIXT.1.1|9=80|35=A|34=26|49=INITIATOR|52=20231202-03:50:44.065|56=ACCEPTOR|98=0|108=30|1137=7|10=191|8=FIXT.1.1|9=80|35=A|34=27|49=INITIATOR|52=20231202-03:50:45.057|56=ACCEPTOR|98=0|108=30|1137=7|10=194|8=FIXT.1.1|9=80|35=A|34=28|49=INITIATOR|52=20231202-03:50:46.050|56=ACCEPTOR|98=0|108=30|1137=7|10=189|8=FIXT.1.1|9=80|35=A|34=29|49=INITIATOR|52=20231202-03:50:47.042|56=ACCEPTOR|98=0|108=30|1137=7|10=192|8=FIXT.1.1|9=80|35=A|34=30|49=INITIATOR|52=20231202-03:50:48.034|56=ACCEPTOR|98=0|108=30|1137=7|10=186|8=FIXT.1.1|9=80|35=A|34=31|49=INITIATOR|52=20231202-03:50:49.025|56=ACCEPTOR|98=0|108=30|1137=7|10=188|8=FIXT.1.1|9=80|35=A|34=32|49=INITIATOR|52=20231202-03:50:50.017|56=ACCEPTOR|98=0|108=30|1137=7|10=182|8=FIXT.1.1|9=80|35=A|34=33|49=INITIATOR|52=20231202-03:50:51.998|56=ACCEPTOR|98=0|108=30|1137=7|10=202|8=FIXT.1.1|9=80|35=A|34=34|49=INITIATOR|52=20231202-03:50:52.987|56=ACCEPTOR|98=0|108=30|1137=7|10=202|8=FIXT.1.1|9=80|35=A|34=35|49=INITIATOR|52=20231202-03:50:53.978|56=ACCEPTOR|98=0|108=30|1137=7|10=204|8=FIXT.1.1|9=80|35=A|34=36|49=INITIATOR|52=20231202-03:50:54.968|56=ACCEPTOR|98=0|108=30|1137=7|10=205|8=FIXT.1.1|9=80|35=A|34=37|49=INITIATOR|52=20231202-03:50:55.958|56=ACCEPTOR|98=0|108=30|1137=7|10=206|8=FIXT.1.1|9=80|35=A|34=38|49=INITIATOR|52=20231202-03:50:56.947|56=ACCEPTOR|98=0|108=30|1137=7|10=206|8=FIXT.1.1|9=80|35=A|34=39|49=INITIATOR|52=20231202-03:50:57.936|56=ACCEPTOR|98=0|108=30|1137=7|10=206|8=FIXT.1.1|9=80|35=A|34=40|49=INITIATOR|52=20231202-03:50:58.926|56=ACCEPTOR|98=0|108=30|1137=7|10=198|8=FIXT.1.1|9=80|35=A|34=41|49=INITIATOR|52=20231202-03:50:59.914|56=ACCEPTOR|98=0|108=30|1137=7|10=197|8=FIXT.1.1|9=80|35=A|34=42|49=INITIATOR|52=20231202-03:51:00.903|56=ACCEPTOR|98=0|108=30|1137=7|10=183|8=FIXT.1.1|9=80|35=A|34=43|49=INITIATOR|52=20231202-03:51:01.891|56=ACCEPTOR|98=0|108=30|1137=7|10=191|8=FIXT.1.1|9=80|35=A|34=44|49=INITIATOR|52=20231202-03:51:02.879|56=ACCEPTOR|98=0|108=30|1137=7|10=199|8=FIXT.1.1|9=80|35=A|34=45|49=INITIATOR|52=20231202-03:51:03.866|56=ACCEPTOR|98=0|108=30|1137=7|10=197|8=FIXT.1.1|9=80|35=A|34=46|49=INITIATOR|52=20231202-03:51:04.854|56=ACCEPTOR|98=0|108=30|1137=7|10=196|8=FIXT.1.1|9=80|35=A|34=47|49=INITIATOR|52=20231202-03:51:05.841|56=ACCEPTOR|98=0|108=30|1137=7|10=194|8=FIXT.1.1|9=80|35=A|34=48|49=INITIATOR|52=20231202-03:51:06.827|56=ACCEPTOR|98=0|108=30|1137=7|10=200|8=FIXT.1.1|9=80|35=A|34=49|49=INITIATOR|52=20231202-03:51:07.814|56=ACCEPTOR|98=0|108=30|1137=7|10=198|8=FIXT.1.1|9=80|35=A|34=50|49=INITIATOR|52=20231202-03:51:08.800|56=ACCEPTOR|98=0|108=30|1137=7|10=186|8=FIXT.1.1|9=80|35=A|34=51|49=INITIATOR|52=20231202-03:51:09.786|56=ACCEPTOR|98=0|108=30|1137=7|10=201|8=FIXT.1.1|9=80|35=A|34=52|49=INITIATOR|52=20231202-03:51:10.770|56=ACCEPTOR|98=0|108=30|1137=7|10=187|8=FIXT.1.1|9=80|35=A|34=53|49=INITIATOR|52=20231202-03:51:11.755|56=ACCEPTOR|98=0|108=30|1137=7|10=192|8=FIXT.1.1|9=80|35=A|34=54|49=INITIATOR|52=20231202-03:51:12.740|56=ACCEPTOR|98=0|108=30|1137=7|10=188|8=FIXT.1.1|9=80|35=A|34=55|49=INITIATOR|52=20231202-03:51:13.724|56=ACCEPTOR|98=0|108=30|1137=7|10=192|8=FIXT.1.1|9=80|35=A|34=56|49=INITIATOR|52=20231202-03:51:14.709|56=ACCEPTOR|98=0|108=30|1137=7|10=197|8=FIXT.1.1|9=80|35=A|34=57|49=INITIATOR|52=20231202-03:51:15.693|56=ACCEPTOR|98=0|108=30|1137=7|10=201|8=FIXT.1.1|9=80|35=A|34=58|49=INITIATOR|52=20231202-03:51:16.676|56=ACCEPTOR|98=0|108=30|1137=7|10=204|8=FIXT.1.1|9=80|35=A|34=59|49=INITIATOR|52=20231202-03:51:17.659|56=ACCEPTOR|98=0|108=30|1137=7|10=207|8=FIXT.1.1|9=80|35=A|34=60|49=INITIATOR|52=20231202-03:51:18.642|56=ACCEPTOR|98=0|108=30|1137=7|10=192|8=FIXT.1.1|9=80|35=A|34=61|49=INITIATOR|52=20231202-03:51:19.626|56=ACCEPTOR|98=0|108=30|1137=7|10=196|8=FIXT.1.1|9=80|35=A|34=62|49=INITIATOR|52=20231202-03:51:20.608|56=ACCEPTOR|98=0|108=30|1137=7|10=189|8=FIXT.1.1|9=80|35=A|34=63|49=INITIATOR|52=20231202-03:51:21.590|56=ACCEPTOR|98=0|108=30|1137=7|10=191|8=FIXT.1.1|9=80|35=A|34=64|49=INITIATOR|52=20231202-03:51:22.572|56=ACCEPTOR|98=0|108=30|1137=7|10=193|8=FIXT.1.1|9=80|35=A|34=65|49=INITIATOR|52=20231202-03:51:23.555|56=ACCEPTOR|98=0|108=30|1137=7|10=196|8=FIXT.1.1|9=80|35=A|34=66|49=INITIATOR|52=20231202-03:51:24.536|56=ACCEPTOR|98=0|108=30|1137=7|10=197|8=FIXT.1.1|9=80|35=A|34=67|49=INITIATOR|52=20231202-03:51:25.518|56=ACCEPTOR|98=0|108=30|1137=7|10=199|8=FIXT.1.1|9=80|35=A|34=68|49=INITIATOR|52=20231202-03:51:26.499|56=ACCEPTOR|98=0|108=30|1137=7|10=209|8=FIXT.1.1|9=80|35=A|34=69|49=INITIATOR|52=20231202-03:51:27.479|56=ACCEPTOR|98=0|108=30|1137=7|10=209|8=FIXT.1.1|9=80|35=A|34=70|49=INITIATOR|52=20231202-03:51:28.460|56=ACCEPTOR|98=0|108=30|1137=7|10=192|8=FIXT.1.1|9=80|35=A|34=71|49=INITIATOR|52=20231202-03:51:29.440|56=ACCEPTOR|98=0|108=30|1137=7|10=192|8=FIXT.1.1|9=80|35=A|34=72|49=INITIATOR|52=20231202-03:51:30.421|56=ACCEPTOR|98=0|108=30|1137=7|10=184|8=FIXT.1.1|9=80|35=A|34=73|49=INITIATOR|52=20231202-03:51:31.400|56=ACCEPTOR|98=0|108=30|1137=7|10=183|8=FIXT.1.1|9=80|35=A|34=74|49=INITIATOR|52=20231202-03:51:32.379|56=ACCEPTOR|98=0|108=30|1137=7|10=200|8=FIXT.1.1|9=80|35=A|34=75|49=INITIATOR|52=20231202-03:51:33.359|56=ACCEPTOR|98=0|108=30|1137=7|10=200|8=FIXT.1.1|9=80|35=A|34=76|49=INITIATOR|52=20231202-03:51:34.338|56=ACCEPTOR|98=0|108=30|1137=7|10=199|8=FIXT.1.1|9=80|35=A|34=77|49=INITIATOR|52=20231202-03:51:35.316|56=ACCEPTOR|98=0|108=30|1137=7|10=197|8=FIXT.1.1|9=80|35=A|34=78|49=INITIATOR|52=20231202-03:51:36.294|56=ACCEPTOR|98=0|108=30|1137=7|10=204|8=FIXT.1.1|9=80|35=A|34=79|49=INITIATOR|52=20231202-03:51:37.273|56=ACCEPTOR|98=0|108=30|1137=7|10=203|8=FIXT.1.1|9=80|35=A|34=80|49=INITIATOR|52=20231202-03:51:38.250|56=ACCEPTOR|98=0|108=30|1137=7|10=191|8=FIXT.1.1|9=80|35=A|34=81|49=INITIATOR|52=20231202-03:52:00.278|56=ACCEPTOR|98=0|108=30|1137=7|10=192|8=FIXT.1.1|9=80|35=A|34=82|49=INITIATOR|52=20231202-03:52:01.279|56=ACCEPTOR|98=0|108=30|1137=7|10=195|8=FIXT.1.1|9=80|35=A|34=83|49=INITIATOR|52=20231202-03:52:02.278|56=ACCEPTOR|98=0|108=30|1137=7|10=196|8=FIXT.1.1|9=80|35=A|34=84|49=INITIATOR|52=20231202-03:52:03.277|56=ACCEPTOR|98=0|108=30|1137=7|10=197|8=FIXT.1.1|9=80|35=A|34=85|49=INITIATOR|52=20231202-03:52:04.277|56=ACCEPTOR|98=0|108=30|1137=7|10=199|8=FIXT.1.1|9=80|35=A|34=86|49=INITIATOR|52=20231202-03:52:05.275|56=ACCEPTOR|98=0|108=30|1137=7|10=199|8=FIXT.1.1|9=80|35=A|34=87|49=INITIATOR|52=20231202-03:52:06.273|56=ACCEPTOR|98=0|108=30|1137=7|10=199|8=FIXT.1.1|9=80|35=A|34=88|49=INITIATOR|52=20231202-03:52:07.272|56=ACCEPTOR|98=0|108=30|1137=7|10=200|8=FIXT.1.1|9=80|35=A|34=89|49=INITIATOR|52=20231202-03:52:08.270|56=ACCEPTOR|98=0|108=30|1137=7|10=200|8=FIXT.1.1|9=80|35=A|34=90|49=INITIATOR|52=20231202-03:52:09.268|56=ACCEPTOR|98=0|108=30|1137=7|10=200|8=FIXT.1.1|9=80|35=A|34=91|49=INITIATOR|52=20231202-03:52:10.265|56=ACCEPTOR|98=0|108=30|1137=7|10=190|8=FIXT.1.1|9=80|35=A|34=92|49=INITIATOR|52=20231202-03:52:11.263|56=ACCEPTOR|98=0|108=30|1137=7|10=190|8=FIXT.1.1|9=80|35=A|34=93|49=INITIATOR|52=20231202-03:52:12.259|56=ACCEPTOR|98=0|108=30|1137=7|10=197|8=FIXT.1.1|9=80|35=A|34=94|49=INITIATOR|52=20231202-03:52:13.255|56=ACCEPTOR|98=0|108=30|1137=7|10=195|8=FIXT.1.1|9=80|35=A|34=95|49=INITIATOR|52=20231202-03:52:14.252|56=ACCEPTOR|98=0|108=30|1137=7|10=194|8=FIXT.1.1|9=80|35=A|34=96|49=INITIATOR|52=20231202-03:52:15.248|56=ACCEPTOR|98=0|108=30|1137=7|10=201|8=FIXT.1.1|9=80|35=A|34=97|49=INITIATOR|52=20231202-03:52:16.244|56=ACCEPTOR|98=0|108=30|1137=7|10=199|8=FIXT.1.1|9=80|35=A|34=98|49=INITIATOR|52=20231202-03:52:17.239|56=ACCEPTOR|98=0|108=30|1137=7|10=205|8=FIXT.1.1|9=80|35=A|34=99|49=INITIATOR|52=20231202-03:52:18.234|56=ACCEPTOR|98=0|108=30|1137=7|10=202|8=FIXT.1.1|9=81|35=A|34=100|49=INITIATOR|52=20231202-03:52:19.229|56=ACCEPTOR|98=0|108=30|1137=7|10=239|8=FIXT.1.1|9=81|35=A|34=101|49=INITIATOR|52=20231202-03:52:20.223|56=ACCEPTOR|98=0|108=30|1137=7|10=226|8=FIXT.1.1|9=81|35=A|34=102|49=INITIATOR|52=20231202-03:52:21.217|56=ACCEPTOR|98=0|108=30|1137=7|10=231|8=FIXT.1.1|9=81|35=A|34=103|49=INITIATOR|52=20231202-03:52:22.212|56=ACCEPTOR|98=0|108=30|1137=7|10=228|8=FIXT.1.1|9=81|35=A|34=104|49=INITIATOR|52=20231202-03:52:23.205|56=ACCEPTOR|98=0|108=30|1137=7|10=232|8=FIXT.1.1|9=81|35=A|34=105|49=INITIATOR|52=20231202-03:52:24.198|56=ACCEPTOR|98=0|108=30|1137=7|10=245|8=FIXT.1.1|9=81|35=A|34=106|49=INITIATOR|52=20231202-03:52:25.192|56=ACCEPTOR|98=0|108=30|1137=7|10=241|8=FIXT.1.1|9=81|35=A|34=107|49=INITIATOR|52=20231202-03:52:26.185|56=ACCEPTOR|98=0|108=30|1137=7|10=245|8=FIXT.1.1|9=81|35=A|34=108|49=INITIATOR|52=20231202-03:52:27.177|56=ACCEPTOR|98=0|108=30|1137=7|10=248|8=FIXT.1.1|9=81|35=A|34=109|49=INITIATOR|52=20231202-03:52:28.170|56=ACCEPTOR|98=0|108=30|1137=7|10=243|8=FIXT.1.1|9=81|35=A|34=110|49=INITIATOR|52=20231202-03:52:29.162|56=ACCEPTOR|98=0|108=30|1137=7|10=237|8=FIXT.1.1|9=81|35=A|34=111|49=INITIATOR|52=20231202-03:52:30.154|56=ACCEPTOR|98=0|108=30|1137=7|10=231|8=FIXT.1.1|9=81|35=A|34=112|49=INITIATOR|52=20231202-03:52:31.145|56=ACCEPTOR|98=0|108=30|1137=7|10=233|8=FIXT.1.1|9=81|35=A|34=113|49=INITIATOR|52=20231202-03:52:32.137|56=ACCEPTOR|98=0|108=30|1137=7|10=236|8=FIXT.1.1|9=81|35=A|34=114|49=INITIATOR|52=20231202-03:52:33.127|56=ACCEPTOR|98=0|108=30|1137=7|10=237|8=FIXT.1.1|9=81|35=A|34=115|49=INITIATOR|52=20231202-03:52:34.117|56=ACCEPTOR|98=0|108=30|1137=7|10=238|8=FIXT.1.1|9=81|35=A|34=116|49=INITIATOR|52=20231202-03:52:35.108|56=ACCEPTOR|98=0|108=30|1137=7|10=240|8=FIXT.1.1|9=81|35=A|34=117|49=INITIATOR|52=20231202-03:52:36.098|56=ACCEPTOR|98=0|108=30|1137=7|10=250|8=FIXT.1.1|9=81|35=A|34=118|49=INITIATOR|52=20231202-03:52:37.088|56=ACCEPTOR|98=0|108=30|1137=7|10=251|8=FIXT.1.1|9=81|35=A|34=119|49=INITIATOR|52=20231202-03:52:38.077|56=ACCEPTOR|98=0|108=30|1137=7|10=251|8=FIXT.1.1|9=81|35=A|34=120|49=INITIATOR|52=20231202-03:52:39.067|56=ACCEPTOR|98=0|108=30|1137=7|10=243|8=FIXT.1.1|9=81|35=A|34=121|49=INITIATOR|52=20231202-03:52:40.055|56=ACCEPTOR|98=0|108=30|1137=7|10=233|8=FIXT.1.1|9=81|35=A|34=122|49=INITIATOR|52=20231202-03:52:41.043|56=ACCEPTOR|98=0|108=30|1137=7|10=232|8=FIXT.1.1|9=81|35=A|34=123|49=INITIATOR|52=20231202-03:52:42.032|56=ACCEPTOR|98=0|108=30|1137=7|10=232|8=FIXT.1.1|9=81|35=A|34=124|49=INITIATOR|52=20231202-03:52:43.020|56=ACCEPTOR|98=0|108=30|1137=7|10=231|8=FIXT.1.1|9=81|35=A|34=125|49=INITIATOR|52=20231202-03:52:44.995|56=ACCEPTOR|98=0|108=30|1137=7|10=254|8=FIXT.1.1|9=81|35=A|34=126|49=INITIATOR|52=20231202-03:52:45.982|56=ACCEPTOR|98=0|108=30|1137=7|10=252|8=FIXT.1.1|9=81|35=A|34=127|49=INITIATOR|52=20231202-03:52:46.970|56=ACCEPTOR|98=0|108=30|1137=7|10=251|8=FIXT.1.1|9=81|35=A|34=128|49=INITIATOR|52=20231202-03:52:47.957|56=ACCEPTOR|98=0|108=30|1137=7|10=002|8=FIXT.1.1|9=81|35=A|34=129|49=INITIATOR|52=20231202-03:52:48.943|56=ACCEPTOR|98=0|108=30|1137=7|10=255|8=FIXT.1.1|9=81|35=A|34=130|49=INITIATOR|52=20231202-03:52:49.930|56=ACCEPTOR|98=0|108=30|1137=7|10=244|8=FIXT.1.1|9=81|35=A|34=131|49=INITIATOR|52=20231202-03:52:50.916|56=ACCEPTOR|98=0|108=30|1137=7|10=241|8=FIXT.1.1|9=81|35=A|34=132|49=INITIATOR|52=20231202-03:52:51.901|56=ACCEPTOR|98=0|108=30|1137=7|10=237|8=FIXT.1.1|9=81|35=A|34=133|49=INITIATOR|52=20231202-03:52:52.886|56=ACCEPTOR|98=0|108=30|1137=7|10=251|8=FIXT.1.1|9=81|35=A|34=134|49=INITIATOR|52=20231202-03:52:53.872|56=ACCEPTOR|98=0|108=30|1137=7|10=248|8=FIXT.1.1|9=81|35=A|34=135|49=INITIATOR|52=20231202-03:52:54.857|56=ACCEPTOR|98=0|108=30|1137=7|10=253|8=FIXT.1.1|9=81|35=A|34=136|49=INITIATOR|52=20231202-03:52:55.842|56=ACCEPTOR|98=0|108=30|1137=7|10=249|8=FIXT.1.1|9=81|35=A|34=137|49=INITIATOR|52=20231202-03:52:56.826|56=ACCEPTOR|98=0|108=30|1137=7|10=253|8=FIXT.1.1|9=81|35=A|34=138|49=INITIATOR|52=20231202-03:52:57.810|56=ACCEPTOR|98=0|108=30|1137=7|10=248|8=FIXT.1.1|9=81|35=A|34=139|49=INITIATOR|52=20231202-03:52:58.794|56=ACCEPTOR|98=0|108=30|1137=7|10=005|8=FIXT.1.1|9=81|35=A|34=140|49=INITIATOR|52=20231202-03:52:59.777|56=ACCEPTOR|98=0|108=30|1137=7|10=255|8=FIXT.1.1|9=81|35=A|34=141|49=INITIATOR|52=20231202-03:53:00.760|56=ACCEPTOR|98=0|108=30|1137=7|10=235|8=FIXT.1.1|9=81|35=A|34=142|49=INITIATOR|52=20231202-03:53:01.744|56=ACCEPTOR|98=0|108=30|1137=7|10=239|8=FIXT.1.1|9=81|35=A|34=143|49=INITIATOR|52=20231202-03:53:02.726|56=ACCEPTOR|98=0|108=30|1137=7|10=241|8=FIXT.1.1|9=81|35=A|34=144|49=INITIATOR|52=20231202-03:53:03.708|56=ACCEPTOR|98=0|108=30|1137=7|10=243|8=FIXT.1.1|9=81|35=A|34=145|49=INITIATOR|52=20231202-03:53:04.690|56=ACCEPTOR|98=0|108=30|1137=7|10=245|8=FIXT.1.1|9=81|35=A|34=146|49=INITIATOR|52=20231202-03:53:05.671|56=ACCEPTOR|98=0|108=30|1137=7|10=246|8=FIXT.1.1|9=81|35=A|34=147|49=INITIATOR|52=20231202-03:53:06.653|56=ACCEPTOR|98=0|108=30|1137=7|10=248|8=FIXT.1.1|9=81|35=A|34=148|49=INITIATOR|52=20231202-03:53:07.634|56=ACCEPTOR|98=0|108=30|1137=7|10=249|8=FIXT.1.1|9=81|35=A|34=149|49=INITIATOR|52=20231202-03:53:08.616|56=ACCEPTOR|98=0|108=30|1137=7|10=251|8=FIXT.1.1|9=81|35=A|34=150|49=INITIATOR|52=20231202-03:53:09.596|56=ACCEPTOR|98=0|108=30|1137=7|10=251|8=FIXT.1.1|9=81|35=A|34=151|49=INITIATOR|52=20231202-03:53:10.576|56=ACCEPTOR|98=0|108=30|1137=7|10=242|8=FIXT.1.1|9=81|35=A|34=152|49=INITIATOR|52=20231202-03:53:11.557|56=ACCEPTOR|98=0|108=30|1137=7|10=243|8=FIXT.1.1|9=81|35=A|34=153|49=INITIATOR|52=20231202-03:53:12.536|56=ACCEPTOR|98=0|108=30|1137=7|10=242|8=FIXT.1.1|9=81|35=A|34=154|49=INITIATOR|52=20231202-03:53:13.515|56=ACCEPTOR|98=0|108=30|1137=7|10=241|8=FIXT.1.1|9=81|35=A|34=155|49=INITIATOR|52=20231202-03:53:14.495|56=ACCEPTOR|98=0|108=30|1137=7|10=250|8=FIXT.1.1|9=81|35=A|34=156|49=INITIATOR|52=20231202-03:53:15.473|56=ACCEPTOR|98=0|108=30|1137=7|10=248|8=FIXT.1.1|9=81|35=A|34=157|49=INITIATOR|52=20231202-03:53:16.452|56=ACCEPTOR|98=0|108=30|1137=7|10=247|8=FIXT.1.1|9=81|35=A|34=158|49=INITIATOR|52=20231202-03:53:17.430|56=ACCEPTOR|98=0|108=30|1137=7|10=245|8=FIXT.1.1|9=81|35=A|34=159|49=INITIATOR|52=20231202-03:53:18.408|56=ACCEPTOR|98=0|108=30|1137=7|10=252|8=FIXT.1.1|9=81|35=A|34=160|49=INITIATOR|52=20231202-03:53:19.386|56=ACCEPTOR|98=0|108=30|1137=7|10=250|8=FIXT.1.1|9=81|35=A|34=161|49=INITIATOR|52=20231202-03:53:20.363|56=ACCEPTOR|98=0|108=30|1137=7|10=238|8=FIXT.1.1|9=81|35=A|34=162|49=INITIATOR|52=20231202-03:53:21.341|56=ACCEPTOR|98=0|108=30|1137=7|10=236|8=FIXT.1.1|9=81|35=A|34=163|49=INITIATOR|52=20231202-03:53:22.317|56=ACCEPTOR|98=0|108=30|1137=7|10=241|8=FIXT.1.1|9=81|35=A|34=164|49=INITIATOR|52=20231202-03:53:23.293|56=ACCEPTOR|98=0|108=30|1137=7|10=246|8=FIXT.1.1|9=81|35=A|34=165|49=INITIATOR|52=20231202-03:53:24.270|56=ACCEPTOR|98=0|108=30|1137=7|10=243|8=FIXT.1.1|9=81|35=A|34=166|49=INITIATOR|52=20231202-03:53:25.246|56=ACCEPTOR|98=0|108=30|1137=7|10=248|8=FIXT.1.1|9=81|35=A|34=167|49=INITIATOR|52=20231202-03:53:26.221|56=ACCEPTOR|98=0|108=30|1137=7|10=243|8=FIXT.1.1|9=81|35=A|34=168|49=INITIATOR|52=20231202-03:53:27.197|56=ACCEPTOR|98=0|108=30|1137=7|10=001|8=FIXT.1.1|9=81|35=A|34=169|49=INITIATOR|52=20231202-03:53:28.172|56=ACCEPTOR|98=0|108=30|1137=7|10=252|8=FIXT.1.1|9=81|35=A|34=170|49=INITIATOR|52=20231202-03:53:29.148|56=ACCEPTOR|98=0|108=30|1137=7|10=248|8=FIXT.1.1|9=81|35=A|34=171|49=INITIATOR|52=20231202-03:53:30.122|56=ACCEPTOR|98=0|108=30|1137=7|10=233|8=FIXT.1.1|9=81|35=A|34=172|49=INITIATOR|52=20231202-03:53:31.096|56=ACCEPTOR|98=0|108=30|1137=7|10=245|8=FIXT.1.1|9=81|35=A|34=173|49=INITIATOR|52=20231202-03:53:32.071|56=ACCEPTOR|98=0|108=30|1137=7|10=240|8=FIXT.1.1|9=81|35=A|34=174|49=INITIATOR|52=20231202-03:53:33.044|56=ACCEPTOR|98=0|108=30|1137=7|10=242|8=FIXT.1.1|9=81|35=A|34=175|49=INITIATOR|52=20231202-03:53:34.018|56=ACCEPTOR|98=0|108=30|1137=7|10=245|8=FIXT.1.1|9=81|35=A|34=176|49=INITIATOR|52=20231202-03:53:35.964|56=ACCEPTOR|98=0|108=30|1137=7|10=001|8=FIXT.1.1|9=81|35=A|34=177|49=INITIATOR|52=20231202-03:53:36.938|56=ACCEPTOR|98=0|108=30|1137=7|10=004|8=FIXT.1.1|9=81|35=A|34=178|49=INITIATOR|52=20231202-03:53:37.910|56=ACCEPTOR|98=0|108=30|1137=7|10=252|8=FIXT.1.1|9=81|35=A|34=179|49=INITIATOR|52=20231202-03:53:38.883|56=ACCEPTOR|98=0|108=30|1137=7|10=007|8=FIXT.1.1|9=81|35=A|34=180|49=INITIATOR|52=20231202-03:53:39.854|56=ACCEPTOR|98=0|108=30|1137=7|10=254|8=FIXT.1.1|9=81|35=A|34=181|49=INITIATOR|52=20231202-03:53:40.826|56=ACCEPTOR|98=0|108=30|1137=7|10=246|8=FIXT.1.1|9=81|35=A|34=182|49=INITIATOR|52=20231202-03:53:41.797|56=ACCEPTOR|98=0|108=30|1137=7|10=255|8=FIXT.1.1|9=81|35=A|34=183|49=INITIATOR|52=20231202-03:53:42.768|56=ACCEPTOR|98=0|108=30|1137=7|10=255|8=FIXT.1.1|9=81|35=A|34=184|49=INITIATOR|52=20231202-03:53:43.738|56=ACCEPTOR|98=0|108=30|1137=7|10=254|8=FIXT.1.1|9=81|35=A|34=185|49=INITIATOR|52=20231202-03:53:44.709|56=ACCEPTOR|98=0|108=30|1137=7|10=254|8=FIXT.1.1|9=81|35=A|34=186|49=INITIATOR|52=20231202-03:53:45.678|56=ACCEPTOR|98=0|108=30|1137=7|10=005|8=FIXT.1.1|9=81|35=A|34=187|49=INITIATOR|52=20231202-03:53:46.647|56=ACCEPTOR|98=0|108=30|1137=7|10=003|8=FIXT.1.1|9=81|35=A|34=188|49=INITIATOR|52=20231202-03:53:47.617|56=ACCEPTOR|98=0|108=30|1137=7|10=002|8=FIXT.1.1|9=81|35=A|34=189|49=INITIATOR|52=20231202-03:53:48.586|56=ACCEPTOR|98=0|108=30|1137=7|10=009|8=FIXT.1.1|9=81|35=A|34=190|49=INITIATOR|52=20231202-03:53:49.555|56=ACCEPTOR|98=0|108=30|1137=7|10=254|8=FIXT.1.1|9=81|35=A|34=191|49=INITIATOR|52=20231202-03:53:50.523|56=ACCEPTOR|98=0|108=30|1137=7|10=242|8=FIXT.1.1|9=81|35=A|34=192|49=INITIATOR|52=20231202-03:53:51.491|56=ACCEPTOR|98=0|108=30|1137=7|10=248|8=FIXT.1.1|9=81|35=A|34=193|49=INITIATOR|52=20231202-03:53:52.459|56=ACCEPTOR|98=0|108=30|1137=7|10=254|8=FIXT.1.1|9=81|35=A|34=194|49=INITIATOR|52=20231202-03:53:53.426|56=ACCEPTOR|98=0|108=30|1137=7|10=250|8=FIXT.1.1|9=81|35=A|34=195|49=INITIATOR|52=20231202-03:53:54.394|56=ACCEPTOR|98=0|108=30|1137=7|10=000|8=FIXT.1.1|9=81|35=A|34=196|49=INITIATOR|52=20231202-03:53:55.360|56=ACCEPTOR|98=0|108=30|1137=7|10=251|8=FIXT.1.1|9=81|35=A|34=197|49=INITIATOR|52=20231202-03:53:56.326|56=ACCEPTOR|98=0|108=30|1137=7|10=255|8=FIXT.1.1|9=81|35=A|34=198|49=INITIATOR|52=20231202-03:53:57.293|56=ACCEPTOR|98=0|108=30|1137=7|10=004|8=FIXT.1.1|9=81|35=A|34=199|49=INITIATOR|52=20231202-03:53:58.259|56=ACCEPTOR|98=0|108=30|1137=7|10=008|8=FIXT.1.1|9=81|35=A|34=200|49=INITIATOR|52=20231202-03:53:59.224|56=ACCEPTOR|98=0|108=30|1137=7|10=240|8=FIXT.1.1|9=81|35=A|34=201|49=INITIATOR|52=20231202-03:54:00.190|56=ACCEPTOR|98=0|108=30|1137=7|10=230|8=FIXT.1.1|9=81|35=A|34=202|49=INITIATOR|52=20231202-03:54:01.155|56=ACCEPTOR|98=0|108=30|1137=7|10=233|8=FIXT.1.1|9=81|35=A|34=203|49=INITIATOR|52=20231202-03:54:02.120|56=ACCEPTOR|98=0|108=30|1137=7|10=227|8=FIXT.1.1|9=81|35=A|34=204|49=INITIATOR|52=20231202-03:54:03.084|56=ACCEPTOR|98=0|108=30|1137=7|10=238|8=FIXT.1.1|9=81|35=A|34=205|49=INITIATOR|52=20231202-03:54:04.048|56=ACCEPTOR|98=0|108=30|1137=7|10=240|8=FIXT.1.1|9=81|35=A|34=206|49=INITIATOR|52=20231202-03:54:05.013|56=ACCEPTOR|98=0|108=30|1137=7|10=234|8=FIXT.1.1|9=81|35=A|34=207|49=INITIATOR|52=20231202-03:54:06.939|56=ACCEPTOR|98=0|108=30|1137=7|10=253|8=FIXT.1.1|9=81|35=A|34=208|49=INITIATOR|52=20231202-03:54:07.903|56=ACCEPTOR|98=0|108=30|1137=7|10=246|8=FIXT.1.1|9=81|35=A|34=209|49=INITIATOR|52=20231202-03:54:08.866|56=ACCEPTOR|98=0|108=30|1137=7|10=000|8=FIXT.1.1|9=81|35=A|34=210|49=INITIATOR|52=20231202-03:54:09.828|56=ACCEPTOR|98=0|108=30|1137=7|10=247|8=FIXT.1.1|9=81|35=A|34=211|49=INITIATOR|52=20231202-03:54:10.791|56=ACCEPTOR|98=0|108=30|1137=7|10=239|8=FIXT.1.1|9=81|35=A|34=212|49=INITIATOR|52=20231202-03:54:11.754|56=ACCEPTOR|98=0|108=30|1137=7|10=240|8=FIXT.1.1|9=81|35=A|34=213|49=INITIATOR|52=20231202-03:54:12.715|56=ACCEPTOR|98=0|108=30|1137=7|10=239|8=FIXT.1.1|9=81|35=A|34=214|49=INITIATOR|52=20231202-03:54:13.677|56=ACCEPTOR|98=0|108=30|1137=7|10=248|8=FIXT.1.1|9=81|35=A|34=215|49=INITIATOR|52=20231202-03:54:14.638|56=ACCEPTOR|98=0|108=30|1137=7|10=247|8=FIXT.1.1|9=81|35=A|34=216|49=INITIATOR|52=20231202-03:54:15.598|56=ACCEPTOR|98=0|108=30|1137=7|10=254|8=FIXT.1.1|9=81|35=A|34=217|49=INITIATOR|52=20231202-03:54:16.559|56=ACCEPTOR|98=0|108=30|1137=7|10=253|8=FIXT.1.1|9=81|35=A|34=218|49=INITIATOR|52=20231202-03:54:17.519|56=ACCEPTOR|98=0|108=30|1137=7|10=251|8=FIXT.1.1|9=81|35=A|34=219|49=INITIATOR|52=20231202-03:54:18.478|56=ACCEPTOR|98=0|108=30|1137=7|10=001|8=FIXT.1.1|9=81|35=A|34=220|49=INITIATOR|52=20231202-03:54:19.438|56=ACCEPTOR|98=0|108=30|1137=7|10=246|8=FIXT.1.1|9=81|35=A|34=221|49=INITIATOR|52=20231202-03:54:20.398|56=ACCEPTOR|98=0|108=30|1137=7|10=244|8=FIXT.1.1|9=81|35=A|34=222|49=INITIATOR|52=20231202-03:54:21.357|56=ACCEPTOR|98=0|108=30|1137=7|10=241|8=FIXT.1.1|9=81|35=A|34=223|49=INITIATOR|52=20231202-03:54:22.315|56=ACCEPTOR|98=0|108=30|1137=7|10=237|8=FIXT.1.1|9=81|35=A|34=224|49=INITIATOR|52=20231202-03:54:23.274|56=ACCEPTOR|98=0|108=30|1137=7|10=243|8=FIXT.1.1|9=81|35=A|34=225|49=INITIATOR|52=20231202-03:54:24.232|56=ACCEPTOR|98=0|108=30|1137=7|10=239|8=FIXT.1.1|9=81|35=A|34=226|49=INITIATOR|52=20231202-03:54:25.189|56=ACCEPTOR|98=0|108=30|1137=7|10=252|8=FIXT.1.1|9=81|35=A|34=227|49=INITIATOR|52=20231202-03:54:26.147|56=ACCEPTOR|98=0|108=30|1137=7|10=248|8=FIXT.1.1|9=81|35=A|34=228|49=INITIATOR|52=20231202-03:54:27.104|56=ACCEPTOR|98=0|108=30|1137=7|10=243|8=FIXT.1.1|9=81|35=A|34=229|49=INITIATOR|52=20231202-03:54:28.060|56=ACCEPTOR|98=0|108=30|1137=7|10=246|8=FIXT.1.1|9=81|35=A|34=230|49=INITIATOR|52=20231202-03:54:29.017|56=ACCEPTOR|98=0|108=30|1137=7|10=241|8=FIXT.1.1|9=81|35=A|34=231|49=INITIATOR|52=20231202-03:54:30.929|56=ACCEPTOR|98=0|108=30|1137=7|10=246|8=FIXT.1.1|9=81|35=A|34=232|49=INITIATOR|52=20231202-03:54:31.886|56=ACCEPTOR|98=0|108=30|1137=7|10=250|8=FIXT.1.1|9=81|35=A|34=233|49=INITIATOR|52=20231202-03:54:32.841|56=ACCEPTOR|98=0|108=30|1137=7|10=243|8=FIXT.1.1|9=81|35=A|34=234|49=INITIATOR|52=20231202-03:54:33.796|56=ACCEPTOR|98=0|108=30|1137=7|10=254|8=FIXT.1.1|9=81|35=A|34=235|49=INITIATOR|52=20231202-03:54:34.752|56=ACCEPTOR|98=0|108=30|1137=7|10=248|8=FIXT.1.1|9=81|35=A|34=236|49=INITIATOR|52=20231202-03:54:35.707|56=ACCEPTOR|98=0|108=30|1137=7|10=250|8=FIXT.1.1|9=81|35=A|34=237|49=INITIATOR|52=20231202-03:54:36.662|56=ACCEPTOR|98=0|108=30|1137=7|10=252|8=FIXT.1.1|9=81|35=A|34=238|49=INITIATOR|52=20231202-03:54:37.616|56=ACCEPTOR|98=0|108=30|1137=7|10=253|8=FIXT.1.1|9=81|35=A|34=239|49=INITIATOR|52=20231202-03:54:38.571|56=ACCEPTOR|98=0|108=30|1137=7|10=255|8=FIXT.1.1|9=81|35=A|34=240|49=INITIATOR|52=20231202-03:54:39.524|56=ACCEPTOR|98=0|108=30|1137=7|10=246|8=FIXT.1.1|9=81|35=A|34=241|49=INITIATOR|52=20231202-03:54:40.478|56=ACCEPTOR|98=0|108=30|1137=7|10=247|8=FIXT.1.1|9=81|35=A|34=242|49=INITIATOR|52=20231202-03:54:41.431|56=ACCEPTOR|98=0|108=30|1137=7|10=238|8=FIXT.1.1|9=81|35=A|34=243|49=INITIATOR|52=20231202-03:54:42.384|56=ACCEPTOR|98=0|108=30|1137=7|10=247|8=FIXT.1.1|9=81|35=A|34=244|49=INITIATOR|52=20231202-03:54:43.336|56=ACCEPTOR|98=0|108=30|1137=7|10=246|8=FIXT.1.1|9=81|35=A|34=245|49=INITIATOR|52=20231202-03:54:44.288|56=ACCEPTOR|98=0|108=30|1137=7|10=254|8=FIXT.1.1|9=81|35=A|34=246|49=INITIATOR|52=20231202-03:54:45.240|56=ACCEPTOR|98=0|108=30|1137=7|10=244|8=FIXT.1.1|9=81|35=A|34=247|49=INITIATOR|52=20231202-03:54:46.191|56=ACCEPTOR|98=0|108=30|1137=7|10=251|8=FIXT.1.1|9=81|35=A|34=248|49=INITIATOR|52=20231202-03:54:47.143|56=ACCEPTOR|98=0|108=30|1137=7|10=250|8=FIXT.1.1|9=81|35=A|34=249|49=INITIATOR|52=20231202-03:54:48.094|56=ACCEPTOR|98=0|108=30|1137=7|10=001|8=FIXT.1.1|9=81|35=A|34=250|49=INITIATOR|52=20231202-03:54:49.044|56=ACCEPTOR|98=0|108=30|1137=7|10=245|8=FIXT.1.1|9=81|35=A|34=251|49=INITIATOR|52=20231202-03:54:50.945|56=ACCEPTOR|98=0|108=30|1137=7|10=248|8=FIXT.1.1|9=81|35=A|34=252|49=INITIATOR|52=20231202-03:54:51.895|56=ACCEPTOR|98=0|108=30|1137=7|10=254|8=FIXT.1.1|9=81|35=A|34=253|49=INITIATOR|52=20231202-03:54:52.845|56=ACCEPTOR|98=0|108=30|1137=7|10=251|8=FIXT.1.1|9=81|35=A|34=254|49=INITIATOR|52=20231202-03:54:53.794|56=ACCEPTOR|98=0|108=30|1137=7|10=000|8=FIXT.1.1|9=81|35=A|34=255|49=INITIATOR|52=20231202-03:54:54.743|56=ACCEPTOR|98=0|108=30|1137=7|10=252|8=FIXT.1.1|9=81|35=A|34=256|49=INITIATOR|52=20231202-03:54:55.692|56=ACCEPTOR|98=0|108=30|1137=7|10=001|8=FIXT.1.1|9=81|35=A|34=257|49=INITIATOR|52=20231202-03:54:56.640|56=ACCEPTOR|98=0|108=30|1137=7|10=252|8=FIXT.1.1|9=81|35=A|34=258|49=INITIATOR|52=20231202-03:54:57.588|56=ACCEPTOR|98=0|108=30|1137=7|10=009|8=FIXT.1.1|9=81|35=A|34=259|49=INITIATOR|52=20231202-03:54:58.537|56=ACCEPTOR|98=0|108=30|1137=7|10=005|8=FIXT.1.1|9=81|35=A|34=260|49=INITIATOR|52=20231202-03:54:59.484|56=ACCEPTOR|98=0|108=30|1137=7|10=255|8=FIXT.1.1|9=81|35=A|34=261|49=INITIATOR|52=20231202-03:55:00.431|56=ACCEPTOR|98=0|108=30|1137=7|10=235|8=FIXT.1.1|9=81|35=A|34=262|49=INITIATOR|52=20231202-03:55:01.379|56=ACCEPTOR|98=0|108=30|1137=7|10=248|8=FIXT.1.1|9=81|35=A|34=263|49=INITIATOR|52=20231202-03:55:02.326|56=ACCEPTOR|98=0|108=30|1137=7|10=242|8=FIXT.1.1|9=81|35=A|34=264|49=INITIATOR|52=20231202-03:55:03.272|56=ACCEPTOR|98=0|108=30|1137=7|10=244|8=FIXT.1.1|9=81|35=A|34=265|49=INITIATOR|52=20231202-03:55:04.219|56=ACCEPTOR|98=0|108=30|1137=7|10=247|8=FIXT.1.1|9=81|35=A|34=266|49=INITIATOR|52=20231202-03:55:05.165|56=ACCEPTOR|98=0|108=30|1137=7|10=249|8=FIXT.1.1|9=81|35=A|34=267|49=INITIATOR|52=20231202-03:55:06.111|56=ACCEPTOR|98=0|108=30|1137=7|10=242|8=FIXT.1.1|9=81|35=A|34=268|49=INITIATOR|52=20231202-03:55:07.057|56=ACCEPTOR|98=0|108=30|1137=7|10=253|8=FIXT.1.1|9=81|35=A|34=269|49=INITIATOR|52=20231202-03:55:08.947|56=ACCEPTOR|98=0|108=30|1137=7|10=007|8=FIXT.1.1|9=81|35=A|34=270|49=INITIATOR|52=20231202-03:55:09.893|56=ACCEPTOR|98=0|108=30|1137=7|10=000|8=FIXT.1.1|9=81|35=A|34=271|49=INITIATOR|52=20231202-03:55:10.837|56=ACCEPTOR|98=0|108=30|1137=7|10=247|8=FIXT.1.1|9=81|35=A|34=272|49=INITIATOR|52=20231202-03:55:11.782|56=ACCEPTOR|98=0|108=30|1137=7|10=248|8=FIXT.1.1|9=81|35=A|34=273|49=INITIATOR|52=20231202-03:55:12.731|56=ACCEPTOR|98=0|108=30|1137=7|10=244|8=FIXT.1.1|9=81|35=A|34=274|49=INITIATOR|52=20231202-03:55:13.674|56=ACCEPTOR|98=0|108=30|1137=7|10=252|8=FIXT.1.1|9=81|35=A|34=275|49=INITIATOR|52=20231202-03:55:14.618|56=ACCEPTOR|98=0|108=30|1137=7|10=252|8=FIXT.1.1|9=81|35=A|34=276|49=INITIATOR|52=20231202-03:55:15.561|56=ACCEPTOR|98=0|108=30|1137=7|10=251|8=FIXT.1.1|9=81|35=A|34=277|49=INITIATOR|52=20231202-03:55:16.504|56=ACCEPTOR|98=0|108=30|1137=7|10=250|8=FIXT.1.1|9=81|35=A|34=278|49=INITIATOR|52=20231202-03:55:17.447|56=ACCEPTOR|98=0|108=30|1137=7|10=002|8=FIXT.1.1|9=81|35=A|34=279|49=INITIATOR|52=20231202-03:55:18.389|56=ACCEPTOR|98=0|108=30|1137=7|10=009|8=FIXT.1.1|9=81|35=A|34=280|49=INITIATOR|52=20231202-03:55:19.332|56=ACCEPTOR|98=0|108=30|1137=7|10=246|8=FIXT.1.1|9=81|35=A|34=281|49=INITIATOR|52=20231202-03:55:20.273|56=ACCEPTOR|98=0|108=30|1137=7|10=243|8=FIXT.1.1|9=81|35=A|34=282|49=INITIATOR|52=20231202-03:55:21.215|56=ACCEPTOR|98=0|108=30|1137=7|10=241|8=FIXT.1.1|9=81|35=A|34=283|49=INITIATOR|52=20231202-03:55:22.156|56=ACCEPTOR|98=0|108=30|1137=7|10=247|8=FIXT.1.1|9=81|35=A|34=284|49=INITIATOR|52=20231202-03:55:23.096|56=ACCEPTOR|98=0|108=30|1137=7|10=252|8=FIXT.1.1|9=81|35=A|34=285|49=INITIATOR|52=20231202-03:55:24.037|56=ACCEPTOR|98=0|108=30|1137=7|10=249|8=FIXT.1.1|9=81|35=A|34=286|49=INITIATOR|52=20231202-03:55:25.917|56=ACCEPTOR|98=0|108=30|1137=7|10=002|8=FIXT.1.1|9=81|35=A|34=287|49=INITIATOR|52=20231202-03:55:26.857|56=ACCEPTOR|98=0|108=30|1137=7|10=007|8=FIXT.1.1|9=81|35=A|34=288|49=INITIATOR|52=20231202-03:55:27.797|56=ACCEPTOR|98=0|108=30|1137=7|10=012|8=FIXT.1.1|9=81|35=A|34=289|49=INITIATOR|52=20231202-03:55:28.736|56=ACCEPTOR|98=0|108=30|1137=7|10=007|8=FIXT.1.1|9=81|35=A|34=290|49=INITIATOR|52=20231202-03:55:29.675|56=ACCEPTOR|98=0|108=30|1137=7|10=002|8=FIXT.1.1|9=81|35=A|34=291|49=INITIATOR|52=20231202-03:55:30.614|56=ACCEPTOR|98=0|108=30|1137=7|10=244|8=FIXT.1.1|9=81|35=A|34=292|49=INITIATOR|52=20231202-03:55:31.552|56=ACCEPTOR|98=0|108=30|1137=7|10=247|8=FIXT.1.1|9=81|35=A|34=293|49=INITIATOR|52=20231202-03:55:32.490|56=ACCEPTOR|98=0|108=30|1137=7|10=250|8=FIXT.1.1|9=81|35=A|34=294|49=INITIATOR|52=20231202-03:55:33.429|56=ACCEPTOR|98=0|108=30|1137=7|10=254|8=FIXT.1.1|9=81|35=A|34=295|49=INITIATOR|52=20231202-03:55:34.366|56=ACCEPTOR|98=0|108=30|1137=7|10=000|8=FIXT.1.1|9=81|35=A|34=296|49=INITIATOR|52=20231202-03:55:35.304|56=ACCEPTOR|98=0|108=30|1137=7|10=250|8=FIXT.1.1|9=81|35=A|34=297|49=INITIATOR|52=20231202-03:55:36.241|56=ACCEPTOR|98=0|108=30|1137=7|10=252|8=FIXT.1.1|9=81|35=A|34=298|49=INITIATOR|52=20231202-03:55:37.177|56=ACCEPTOR|98=0|108=30|1137=7|10=006|8=FIXT.1.1|9=81|35=A|34=299|49=INITIATOR|52=20231202-03:55:38.114|56=ACCEPTOR|98=0|108=30|1137=7|10=255|8=FIXT.1.1|9=81|35=A|34=300|49=INITIATOR|52=20231202-03:55:39.051|56=ACCEPTOR|98=0|108=30|1137=7|10=239|8=FIXT.1.1|9=81|35=A|34=301|49=INITIATOR|52=20231202-03:55:40.923|56=ACCEPTOR|98=0|108=30|1137=7|10=240|8=FIXT.1.1|9=81|35=A|34=302|49=INITIATOR|52=20231202-03:55:41.858|56=ACCEPTOR|98=0|108=30|1137=7|10=249|8=FIXT.1.1|9=81|35=A|34=303|49=INITIATOR|52=20231202-03:55:42.794|56=ACCEPTOR|98=0|108=30|1137=7|10=250|8=FIXT.1.1|9=81|35=A|34=304|49=INITIATOR|52=20231202-03:55:43.729|56=ACCEPTOR|98=0|108=30|1137=7|10=250|8=FIXT.1.1|9=81|35=A|34=305|49=INITIATOR|52=20231202-03:55:44.664|56=ACCEPTOR|98=0|108=30|1137=7|10=250|8=FIXT.1.1|9=81|35=A|34=306|49=INITIATOR|52=20231202-03:55:45.598|56=ACCEPTOR|98=0|108=30|1137=7|10=002|8=FIXT.1.1|9=81|35=A|34=307|49=INITIATOR|52=20231202-03:55:46.533|56=ACCEPTOR|98=0|108=30|1137=7|10=249|8=FIXT.1.1|9=81|35=A|34=308|49=INITIATOR|52=20231202-03:55:47.466|56=ACCEPTOR|98=0|108=30|1137=7|10=000|8=FIXT.1.1|9=81|35=A|34=309|49=INITIATOR|52=20231202-03:55:48.399|56=ACCEPTOR|98=0|108=30|1137=7|10=007|8=FIXT.1.1|9=81|35=A|34=310|49=INITIATOR|52=20231202-03:55:49.333|56=ACCEPTOR|98=0|108=30|1137=7|10=244|8=FIXT.1.1|9=81|35=A|34=311|49=INITIATOR|52=20231202-03:55:50.266|56=ACCEPTOR|98=0|108=30|1137=7|10=242|8=FIXT.1.1|9=81|35=A|34=312|49=INITIATOR|52=20231202-03:55:51.199|56=ACCEPTOR|98=0|108=30|1137=7|10=249|8=FIXT.1.1|9=81|35=A|34=313|49=INITIATOR|52=20231202-03:55:52.131|56=ACCEPTOR|98=0|108=30|1137=7|10=237|8=FIXT.1.1|9=81|35=A|34=314|49=INITIATOR|52=20231202-03:55:53.063|56=ACCEPTOR|98=0|108=30|1137=7|10=243|8=FIXT.1.1|9=81|35=A|34=315|49=INITIATOR|52=20231202-03:55:54.926|56=ACCEPTOR|98=0|108=30|1137=7|10=253|8=FIXT.1.1|9=81|35=A|34=316|49=INITIATOR|52=20231202-03:55:55.857|56=ACCEPTOR|98=0|108=30|1137=7|10=002|8=FIXT.1.1|9=81|35=A|34=317|49=INITIATOR|52=20231202-03:55:56.789|56=ACCEPTOR|98=0|108=30|1137=7|10=008|8=FIXT.1.1|9=81|35=A|34=318|49=INITIATOR|52=20231202-03:55:57.720|56=ACCEPTOR|98=0|108=30|1137=7|10=251|8=FIXT.1.1|9=81|35=A|34=319|49=INITIATOR|52=20231202-03:55:58.650|56=ACCEPTOR|98=0|108=30|1137=7|10=255|8=FIXT.1.1|9=81|35=A|34=320|49=INITIATOR|52=20231202-03:55:59.581|56=ACCEPTOR|98=0|108=30|1137=7|10=251|8=FIXT.1.1|9=81|35=A|34=321|49=INITIATOR|52=20231202-03:56:00.511|56=ACCEPTOR|98=0|108=30|1137=7|10=232|8=FIXT.1.1|9=81|35=A|34=322|49=INITIATOR|52=20231202-03:56:01.441|56=ACCEPTOR|98=0|108=30|1137=7|10=236|8=FIXT.1.1|9=81|35=A|34=323|49=INITIATOR|52=20231202-03:56:02.370|56=ACCEPTOR|98=0|108=30|1137=7|10=239|8=FIXT.1.1|9=81|35=A|34=324|49=INITIATOR|52=20231202-03:56:03.299|56=ACCEPTOR|98=0|108=30|1137=7|10=251|8=FIXT.1.1|9=81|35=A|34=325|49=INITIATOR|52=20231202-03:56:04.229|56=ACCEPTOR|98=0|108=30|1137=7|10=246|8=FIXT.1.1|9=81|35=A|34=326|49=INITIATOR|52=20231202-03:56:05.157|56=ACCEPTOR|98=0|108=30|1137=7|10=248|8=FIXT.1.1|9=81|35=A|34=327|49=INITIATOR|52=20231202-03:56:06.085|56=ACCEPTOR|98=0|108=30|1137=7|10=250|8=FIXT.1.1|9=81|35=A|34=328|49=INITIATOR|52=20231202-03:56:07.014|56=ACCEPTOR|98=0|108=30|1137=7|10=244|8=FIXT.1.1|9=81|35=A|34=329|49=INITIATOR|52=20231202-03:56:08.870|56=ACCEPTOR|98=0|108=30|1137=7|10=000|8=FIXT.1.1|9=81|35=A|34=330|49=INITIATOR|52=20231202-03:56:09.797|56=ACCEPTOR|98=0|108=30|1137=7|10=001|8=FIXT.1.1|9=81|35=A|34=331|49=INITIATOR|52=20231202-03:56:10.725|56=ACCEPTOR|98=0|108=30|1137=7|10=241|8=FIXT.1.1|9=81|35=A|34=332|49=INITIATOR|52=20231202-03:56:11.652|56=ACCEPTOR|98=0|108=30|1137=7|10=242|8=FIXT.1.1|9=81|35=A|34=333|49=INITIATOR|52=20231202-03:56:12.578|56=ACCEPTOR|98=0|108=30|1137=7|10=251|8=FIXT.1.1|9=81|35=A|34=334|49=INITIATOR|52=20231202-03:56:13.505|56=ACCEPTOR|98=0|108=30|1137=7|10=243|8=FIXT.1.1|9=81|35=A|34=335|49=INITIATOR|52=20231202-03:56:14.431|56=ACCEPTOR|98=0|108=30|1137=7|10=243|8=FIXT.1.1|9=81|35=A|34=336|49=INITIATOR|52=20231202-03:56:15.357|56=ACCEPTOR|98=0|108=30|1137=7|10=252|8=FIXT.1.1|9=81|35=A|34=337|49=INITIATOR|52=20231202-03:56:16.283|56=ACCEPTOR|98=0|108=30|1137=7|10=252|8=FIXT.1.1|9=81|35=A|34=338|49=INITIATOR|52=20231202-03:56:17.208|56=ACCEPTOR|98=0|108=30|1137=7|10=251|8=FIXT.1.1|9=81|35=A|34=339|49=INITIATOR|52=20231202-03:56:18.133|56=ACCEPTOR|98=0|108=30|1137=7|10=250|8=FIXT.1.1|9=81|35=A|34=340|49=INITIATOR|52=20231202-03:56:19.058|56=ACCEPTOR|98=0|108=30|1137=7|10=249|8=FIXT.1.1|9=81|35=A|34=341|49=INITIATOR|52=20231202-03:56:20.906|56=ACCEPTOR|98=0|108=30|1137=7|10=244|8=FIXT.1.1|9=81|35=A|34=342|49=INITIATOR|52=20231202-03:56:21.831|56=ACCEPTOR|98=0|108=30|1137=7|10=243|8=FIXT.1.1|9=81|35=A|34=343|49=INITIATOR|52=20231202-03:56:22.754|56=ACCEPTOR|98=0|108=30|1137=7|10=249|8=FIXT.1.1|9=81|35=A|34=344|49=INITIATOR|52=20231202-03:56:23.677|56=ACCEPTOR|98=0|108=30|1137=7|10=255|8=FIXT.1.1|9=81|35=A|34=345|49=INITIATOR|52=20231202-03:56:24.601|56=ACCEPTOR|98=0|108=30|1137=7|10=244|8=FIXT.1.1|9=81|35=A|34=346|49=INITIATOR|52=20231202-03:56:25.523|56=ACCEPTOR|98=0|108=30|1137=7|10=249|8=FIXT.1.1|9=81|35=A|34=347|49=INITIATOR|52=20231202-03:56:26.445|56=ACCEPTOR|98=0|108=30|1137=7|10=254|8=FIXT.1.1|9=81|35=A|34=348|49=INITIATOR|52=20231202-03:56:27.368|56=ACCEPTOR|98=0|108=30|1137=7|10=004|8=FIXT.1.1|9=81|35=A|34=349|49=INITIATOR|52=20231202-03:56:28.290|56=ACCEPTOR|98=0|108=30|1137=7|10=000|8=FIXT.1.1|9=81|35=A|34=350|49=INITIATOR|52=20231202-03:56:29.212|56=ACCEPTOR|98=0|108=30|1137=7|10=243|8=FIXT.1.1|9=81|35=A|34=351|49=INITIATOR|52=20231202-03:56:30.133|56=ACCEPTOR|98=0|108=30|1137=7|10=238|8=FIXT.1.1|9=81|35=A|34=352|49=INITIATOR|52=20231202-03:56:31.054|56=ACCEPTOR|98=0|108=30|1137=7|10=242|8=FIXT.1.1|9=81|35=A|34=353|49=INITIATOR|52=20231202-03:56:32.895|56=ACCEPTOR|98=0|108=30|1137=7|10=001|8=FIXT.1.1|9=81|35=A|34=354|49=INITIATOR|52=20231202-03:56:33.815|56=ACCEPTOR|98=0|108=30|1137=7|10=251|8=FIXT.1.1|9=81|35=A|34=355|49=INITIATOR|52=20231202-03:56:34.735|56=ACCEPTOR|98=0|108=30|1137=7|10=254|8=FIXT.1.1|9=81|35=A|34=356|49=INITIATOR|52=20231202-03:56:35.656|56=ACCEPTOR|98=0|108=30|1137=7|10=002|8=FIXT.1.1|9=81|35=A|34=357|49=INITIATOR|52=20231202-03:56:36.575|56=ACCEPTOR|98=0|108=30|1137=7|10=004|8=FIXT.1.1|9=81|35=A|34=358|49=INITIATOR|52=20231202-03:56:37.494|56=ACCEPTOR|98=0|108=30|1137=7|10=006|8=FIXT.1.1|9=81|35=A|34=359|49=INITIATOR|52=20231202-03:56:38.414|56=ACCEPTOR|98=0|108=30|1137=7|10=000|8=FIXT.1.1|9=81|35=A|34=360|49=INITIATOR|52=20231202-03:56:39.332|56=ACCEPTOR|98=0|108=30|1137=7|10=248|8=FIXT.1.1|9=81|35=A|34=361|49=INITIATOR|52=20231202-03:56:40.250|56=ACCEPTOR|98=0|108=30|1137=7|10=240|8=FIXT.1.1|9=81|35=A|34=362|49=INITIATOR|52=20231202-03:56:41.169|56=ACCEPTOR|98=0|108=30|1137=7|10=251|8=FIXT.1.1|9=81|35=A|34=363|49=INITIATOR|52=20231202-03:56:42.086|56=ACCEPTOR|98=0|108=30|1137=7|10=251|8=FIXT.1.1|9=81|35=A|34=364|49=INITIATOR|52=20231202-03:56:43.921|56=ACCEPTOR|98=0|108=30|1137=7|10=251|8=FIXT.1.1|9=81|35=A|34=365|49=INITIATOR|52=20231202-03:56:44.838|56=ACCEPTOR|98=0|108=30|1137=7|10=004|8=FIXT.1.1|9=81|35=A|34=366|49=INITIATOR|52=20231202-03:56:45.754|56=ACCEPTOR|98=0|108=30|1137=7|10=003|8=FIXT.1.1|9=81|35=A|34=367|49=INITIATOR|52=20231202-03:56:46.671|56=ACCEPTOR|98=0|108=30|1137=7|10=003|8=FIXT.1.1|9=81|35=A|34=368|49=INITIATOR|52=20231202-03:56:47.587|56=ACCEPTOR|98=0|108=30|1137=7|10=011|8=FIXT.1.1|9=81|35=A|34=369|49=INITIATOR|52=20231202-03:56:48.503|56=ACCEPTOR|98=0|108=30|1137=7|10=001|8=FIXT.1.1|9=81|35=A|34=370|49=INITIATOR|52=20231202-03:56:49.419|56=ACCEPTOR|98=0|108=30|1137=7|10=000|8=FIXT.1.1|9=81|35=A|34=371|49=INITIATOR|52=20231202-03:56:50.334|56=ACCEPTOR|98=0|108=30|1137=7|10=245|8=FIXT.1.1|9=81|35=A|34=372|49=INITIATOR|52=20231202-03:56:51.250|56=ACCEPTOR|98=0|108=30|1137=7|10=244|8=FIXT.1.1|9=81|35=A|34=373|49=INITIATOR|52=20231202-03:56:52.164|56=ACCEPTOR|98=0|108=30|1137=7|10=250|8=FIXT.1.1|9=81|35=A|34=374|49=INITIATOR|52=20231202-03:56:53.078|56=ACCEPTOR|98=0|108=30|1137=7|10=000|8=FIXT.1.1|9=81|35=A|34=375|49=INITIATOR|52=20231202-03:56:54.907|56=ACCEPTOR|98=0|108=30|1137=7|10=003|8=FIXT.1.1|9=81|35=A|34=376|49=INITIATOR|52=20231202-03:56:55.820|56=ACCEPTOR|98=0|108=30|1137=7|10=255|8=FIXT.1.1|9=81|35=A|34=377|49=INITIATOR|52=20231202-03:56:56.734|56=ACCEPTOR|98=0|108=30|1137=7|10=005|8=FIXT.1.1|9=81|35=A|34=378|49=INITIATOR|52=20231202-03:56:57.647|56=ACCEPTOR|98=0|108=30|1137=7|10=010|8=FIXT.1.1|9=81|35=A|34=379|49=INITIATOR|52=20231202-03:56:58.560|56=ACCEPTOR|98=0|108=30|1137=7|10=006|8=FIXT.1.1|9=81|35=A|34=380|49=INITIATOR|52=20231202-03:56:59.473|56=ACCEPTOR|98=0|108=30|1137=7|10=002|8=FIXT.1.1|9=81|35=A|34=381|49=INITIATOR|52=20231202-03:57:00.385|56=ACCEPTOR|98=0|108=30|1137=7|10=248|8=FIXT.1.1|9=81|35=A|34=382|49=INITIATOR|52=20231202-03:57:01.297|56=ACCEPTOR|98=0|108=30|1137=7|10=252|8=FIXT.1.1|9=81|35=A|34=383|49=INITIATOR|52=20231202-03:57:02.209|56=ACCEPTOR|98=0|108=30|1137=7|10=247|8=FIXT.1.1|9=81|35=A|34=384|49=INITIATOR|52=20231202-03:57:03.120|56=ACCEPTOR|98=0|108=30|1137=7|10=241|8=FIXT.1.1|9=81|35=A|34=385|49=INITIATOR|52=20231202-03:57:04.031|56=ACCEPTOR|98=0|108=30|1137=7|10=244|8=FIXT.1.1|9=81|35=A|34=386|49=INITIATOR|52=20231202-03:57:05.854|56=ACCEPTOR|98=0|108=30|1137=7|10=003|8=FIXT.1.1|9=81|35=A|34=387|49=INITIATOR|52=20231202-03:57:06.764|56=ACCEPTOR|98=0|108=30|1137=7|10=005|8=FIXT.1.1|9=81|35=A|34=388|49=INITIATOR|52=20231202-03:57:07.675|56=ACCEPTOR|98=0|108=30|1137=7|10=008|8=FIXT.1.1|9=81|35=A|34=389|49=INITIATOR|52=20231202-03:57:08.585|56=ACCEPTOR|98=0|108=30|1137=7|10=010|8=FIXT.1.1|9=81|35=A|34=390|49=INITIATOR|52=20231202-03:57:09.494|56=ACCEPTOR|98=0|108=30|1137=7|10=002|8=FIXT.1.1|9=81|35=A|34=391|49=INITIATOR|52=20231202-03:57:10.404|56=ACCEPTOR|98=0|108=30|1137=7|10=242|8=FIXT.1.1|9=81|35=A|34=392|49=INITIATOR|52=20231202-03:57:11.313|56=ACCEPTOR|98=0|108=30|1137=7|10=243|8=FIXT.1.1|9=81|35=A|34=393|49=INITIATOR|52=20231202-03:57:12.222|56=ACCEPTOR|98=0|108=30|1137=7|10=244|8=FIXT.1.1|9=81|35=A|34=394|49=INITIATOR|52=20231202-03:57:13.131|56=ACCEPTOR|98=0|108=30|1137=7|10=245|8=FIXT.1.1|9=81|35=A|34=395|49=INITIATOR|52=20231202-03:57:14.039|56=ACCEPTOR|98=0|108=30|1137=7|10=254|8=FIXT.1.1|9=81|35=A|34=396|49=INITIATOR|52=20231202-03:57:15.855|56=ACCEPTOR|98=0|108=30|1137=7|10=006|8=FIXT.1.1|9=81|35=A|34=397|49=INITIATOR|52=20231202-03:57:16.762|56=ACCEPTOR|98=0|108=30|1137=7|10=005|8=FIXT.1.1|9=81|35=A|34=398|49=INITIATOR|52=20231202-03:57:17.669|56=ACCEPTOR|98=0|108=30|1137=7|10=013|8=FIXT.1.1|9=81|35=A|34=399|49=INITIATOR|52=20231202-03:57:18.577|56=ACCEPTOR|98=0|108=30|1137=7|10=013|8=FIXT.1.1|9=81|35=A|34=400|49=INITIATOR|52=20231202-03:57:19.483|56=ACCEPTOR|98=0|108=30|1137=7|10=249|8=FIXT.1.1|9=81|35=A|34=401|49=INITIATOR|52=20231202-03:57:20.389|56=ACCEPTOR|98=0|108=30|1137=7|10=247|8=FIXT.1.1|9=81|35=A|34=402|49=INITIATOR|52=20231202-03:57:21.296|56=ACCEPTOR|98=0|108=30|1137=7|10=246|8=FIXT.1.1|9=81|35=A|34=403|49=INITIATOR|52=20231202-03:57:22.202|56=ACCEPTOR|98=0|108=30|1137=7|10=235|8=FIXT.1.1|9=81|35=A|34=404|49=INITIATOR|52=20231202-03:57:23.108|56=ACCEPTOR|98=0|108=30|1137=7|10=242|8=FIXT.1.1|9=81|35=A|34=405|49=INITIATOR|52=20231202-03:57:24.013|56=ACCEPTOR|98=0|108=30|1137=7|10=239|8=FIXT.1.1|9=81|35=A|34=406|49=INITIATOR|52=20231202-03:57:25.823|56=ACCEPTOR|98=0|108=30|1137=7|10=250|8=FIXT.1.1|9=81|35=A|34=407|49=INITIATOR|52=20231202-03:57:26.727|56=ACCEPTOR|98=0|108=30|1137=7|10=255|8=FIXT.1.1|9=81|35=A|34=408|49=INITIATOR|52=20231202-03:57:27.632|56=ACCEPTOR|98=0|108=30|1137=7|10=252|8=FIXT.1.1|9=81|35=A|34=409|49=INITIATOR|52=20231202-03:57:28.536|56=ACCEPTOR|98=0|108=30|1137=7|10=001|8=FIXT.1.1|9=81|35=A|34=410|49=INITIATOR|52=20231202-03:57:29.440|56=ACCEPTOR|98=0|108=30|1137=7|10=244|8=FIXT.1.1|9=81|35=A|34=411|49=INITIATOR|52=20231202-03:57:30.344|56=ACCEPTOR|98=0|108=30|1137=7|10=240|8=FIXT.1.1|9=81|35=A|34=412|49=INITIATOR|52=20231202-03:57:31.247|56=ACCEPTOR|98=0|108=30|1137=7|10=244|8=FIXT.1.1|9=81|35=A|34=413|49=INITIATOR|52=20231202-03:57:32.150|56=ACCEPTOR|98=0|108=30|1137=7|10=239|8=FIXT.1.1|9=81|35=A|34=414|49=INITIATOR|52=20231202-03:57:33.052|56=ACCEPTOR|98=0|108=30|1137=7|10=242|8=FIXT.1.1|9=81|35=A|34=415|49=INITIATOR|52=20231202-03:57:34.857|56=ACCEPTOR|98=0|108=30|1137=7|10=001|8=FIXT.1.1|9=81|35=A|34=416|49=INITIATOR|52=20231202-03:57:35.759|56=ACCEPTOR|98=0|108=30|1137=7|10=004|8=FIXT.1.1|9=81|35=A|34=417|49=INITIATOR|52=20231202-03:57:36.660|56=ACCEPTOR|98=0|108=30|1137=7|10=253|8=FIXT.1.1|9=81|35=A|34=418|49=INITIATOR|52=20231202-03:57:37.562|56=ACCEPTOR|98=0|108=30|1137=7|10=000|8=FIXT.1.1|9=81|35=A|34=419|49=INITIATOR|52=20231202-03:57:38.463|56=ACCEPTOR|98=0|108=30|1137=7|10=002|8=FIXT.1.1|9=81|35=A|34=420|49=INITIATOR|52=20231202-03:57:39.364|56=ACCEPTOR|98=0|108=30|1137=7|10=251|8=FIXT.1.1|9=81|35=A|34=421|49=INITIATOR|52=20231202-03:57:40.265|56=ACCEPTOR|98=0|108=30|1137=7|10=244|8=FIXT.1.1|9=81|35=A|34=422|49=INITIATOR|52=20231202-03:57:41.165|56=ACCEPTOR|98=0|108=30|1137=7|10=245|8=FIXT.1.1|9=81|35=A|34=423|49=INITIATOR|52=20231202-03:57:42.065|56=ACCEPTOR|98=0|108=30|1137=7|10=246|8=FIXT.1.1|9=81|35=A|34=424|49=INITIATOR|52=20231202-03:57:43.864|56=ACCEPTOR|98=0|108=30|1137=7|10=255|8=FIXT.1.1|9=81|35=A|34=425|49=INITIATOR|52=20231202-03:57:44.763|56=ACCEPTOR|98=0|108=30|1137=7|10=255|8=FIXT.1.1|9=81|35=A|34=426|49=INITIATOR|52=20231202-03:57:45.663|56=ACCEPTOR|98=0|108=30|1137=7|10=000|8=FIXT.1.1|9=81|35=A|34=427|49=INITIATOR|52=20231202-03:57:46.561|56=ACCEPTOR|98=0|108=30|1137=7|10=255|8=FIXT.1.1|9=81|35=A|34=428|49=INITIATOR|52=20231202-03:57:47.459|56=ACCEPTOR|98=0|108=30|1137=7|10=007|8=FIXT.1.1|9=81|35=A|34=429|49=INITIATOR|52=20231202-03:57:48.358|56=ACCEPTOR|98=0|108=30|1137=7|10=007|8=FIXT.1.1|9=81|35=A|34=430|49=INITIATOR|52=20231202-03:57:49.255|56=ACCEPTOR|98=0|108=30|1137=7|10=252|8=FIXT.1.1|9=81|35=A|34=431|49=INITIATOR|52=20231202-03:57:50.153|56=ACCEPTOR|98=0|108=30|1137=7|10=242|8=FIXT.1.1|9=81|35=A|34=432|49=INITIATOR|52=20231202-03:57:51.049|56=ACCEPTOR|98=0|108=30|1137=7|10=248|8=FIXT.1.1|9=81|35=A|34=433|49=INITIATOR|52=20231202-03:57:52.842|56=ACCEPTOR|98=0|108=30|1137=7|10=251|8=FIXT.1.1|9=81|35=A|34=434|49=INITIATOR|52=20231202-03:57:53.738|56=ACCEPTOR|98=0|108=30|1137=7|10=001|8=FIXT.1.1|9=81|35=A|34=435|49=INITIATOR|52=20231202-03:57:54.633|56=ACCEPTOR|98=0|108=30|1137=7|10=253|8=FIXT.1.1|9=81|35=A|34=436|49=INITIATOR|52=20231202-03:57:55.529|56=ACCEPTOR|98=0|108=30|1137=7|10=003|8=FIXT.1.1|9=81|35=A|34=437|49=INITIATOR|52=20231202-03:57:56.424|56=ACCEPTOR|98=0|108=30|1137=7|10=255|8=FIXT.1.1|9=81|35=A|34=438|49=INITIATOR|52=20231202-03:57:57.319|56=ACCEPTOR|98=0|108=30|1137=7|10=004|8=FIXT.1.1|9=81|35=A|34=439|49=INITIATOR|52=20231202-03:57:58.213|56=ACCEPTOR|98=0|108=30|1137=7|10=255|8=FIXT.1.1|9=81|35=A|34=440|49=INITIATOR|52=20231202-03:57:59.108|56=ACCEPTOR|98=0|108=30|1137=7|10=251|8=FIXT.1.1|9=81|35=A|34=441|49=INITIATOR|52=20231202-03:58:00.896|56=ACCEPTOR|98=0|108=30|1137=7|10=253|8=FIXT.1.1|9=81|35=A|34=442|49=INITIATOR|52=20231202-03:58:01.789|56=ACCEPTOR|98=0|108=30|1137=7|10=000|8=FIXT.1.1|9=81|35=A|34=443|49=INITIATOR|52=20231202-03:58:02.683|56=ACCEPTOR|98=0|108=30|1137=7|10=251|8=FIXT.1.1|9=81|35=A|34=444|49=INITIATOR|52=20231202-03:58:03.576|56=ACCEPTOR|98=0|108=30|1137=7|10=254|8=FIXT.1.1|9=81|35=A|34=445|49=INITIATOR|52=20231202-03:58:04.469|56=ACCEPTOR|98=0|108=30|1137=7|10=001|8=FIXT.1.1|9=81|35=A|34=446|49=INITIATOR|52=20231202-03:58:05.361|56=ACCEPTOR|98=0|108=30|1137=7|10=250|8=FIXT.1.1|9=81|35=A|34=447|49=INITIATOR|52=20231202-03:58:06.253|56=ACCEPTOR|98=0|108=30|1137=7|10=252|8=FIXT.1.1|9=81|35=A|34=448|49=INITIATOR|52=20231202-03:58:07.145|56=ACCEPTOR|98=0|108=30|1137=7|10=254|8=FIXT.1.1|9=81|35=A|34=449|49=INITIATOR|52=20231202-03:58:08.036|56=ACCEPTOR|98=0|108=30|1137=7|10=255|8=FIXT.1.1|9=81|35=A|34=450|49=INITIATOR|52=20231202-03:58:09.818|56=ACCEPTOR|98=0|108=30|1137=7|10=000|8=FIXT.1.1|9=81|35=A|34=451|49=INITIATOR|52=20231202-03:58:10.709|56=ACCEPTOR|98=0|108=30|1137=7|10=248|8=FIXT.1.1|9=81|35=A|34=452|49=INITIATOR|52=20231202-03:58:11.599|56=ACCEPTOR|98=0|108=30|1137=7|10=001|8=FIXT.1.1|9=81|35=A|34=453|49=INITIATOR|52=20231202-03:58:12.489|56=ACCEPTOR|98=0|108=30|1137=7|10=001|8=FIXT.1.1|9=81|35=A|34=454|49=INITIATOR|52=20231202-03:58:13.379|56=ACCEPTOR|98=0|108=30|1137=7|10=001|8=FIXT.1.1|9=81|35=A|34=455|49=INITIATOR|52=20231202-03:58:14.268|56=ACCEPTOR|98=0|108=30|1137=7|10=000|8=FIXT.1.1|9=81|35=A|34=456|49=INITIATOR|52=20231202-03:58:15.157|56=ACCEPTOR|98=0|108=30|1137=7|10=255|8=FIXT.1.1|9=81|35=A|34=457|49=INITIATOR|52=20231202-03:58:16.046|56=ACCEPTOR|98=0|108=30|1137=7|10=254|8=FIXT.1.1|9=81|35=A|34=458|49=INITIATOR|52=20231202-03:58:17.822|56=ACCEPTOR|98=0|108=30|1137=7|10=002|8=FIXT.1.1|9=81|35=A|34=459|49=INITIATOR|52=20231202-03:58:18.710|56=ACCEPTOR|98=0|108=30|1137=7|10=000|8=FIXT.1.1|9=81|35=A|34=460|49=INITIATOR|52=20231202-03:58:19.599|56=ACCEPTOR|98=0|108=30|1137=7|10=008|8=FIXT.1.1|9=81|35=A|34=461|49=INITIATOR|52=20231202-03:58:20.486|56=ACCEPTOR|98=0|108=30|1137=7|10=252|8=FIXT.1.1|9=81|35=A|34=462|49=INITIATOR|52=20231202-03:58:21.373|56=ACCEPTOR|98=0|108=30|1137=7|10=249|8=FIXT.1.1|9=81|35=A|34=463|49=INITIATOR|52=20231202-03:58:22.261|56=ACCEPTOR|98=0|108=30|1137=7|10=247|8=FIXT.1.1|9=81|35=A|34=464|49=INITIATOR|52=20231202-03:58:23.147|56=ACCEPTOR|98=0|108=30|1137=7|10=252|8=FIXT.1.1|9=81|35=A|34=465|49=INITIATOR|52=20231202-03:58:24.034|56=ACCEPTOR|98=0|108=30|1137=7|10=249|8=FIXT.1.1|9=81|35=A|34=466|49=INITIATOR|52=20231202-03:58:25.804|56=ACCEPTOR|98=0|108=30|1137=7|10=000|8=FIXT.1.1|9=81|35=A|34=467|49=INITIATOR|52=20231202-03:58:26.689|56=ACCEPTOR|98=0|108=30|1137=7|10=013|8=FIXT.1.1|9=81|35=A|34=468|49=INITIATOR|52=20231202-03:58:27.574|56=ACCEPTOR|98=0|108=30|1137=7|10=008|8=FIXT.1.1|9=81|35=A|34=469|49=INITIATOR|52=20231202-03:58:28.460|56=ACCEPTOR|98=0|108=30|1137=7|10=004|8=FIXT.1.1|9=81|35=A|34=470|49=INITIATOR|52=20231202-03:58:29.344|56=ACCEPTOR|98=0|108=30|1137=7|10=254|8=FIXT.1.1|9=81|35=A|34=471|49=INITIATOR|52=20231202-03:58:30.228|56=ACCEPTOR|98=0|108=30|1137=7|10=248|8=FIXT.1.1|9=81|35=A|34=472|49=INITIATOR|52=20231202-03:58:31.112|56=ACCEPTOR|98=0|108=30|1137=7|10=242|8=FIXT.1.1|9=81|35=A|34=473|49=INITIATOR|52=20231202-03:58:32.881|56=ACCEPTOR|98=0|108=30|1137=7|10=001|8=FIXT.1.1|9=81|35=A|34=474|49=INITIATOR|52=20231202-03:58:33.764|56=ACCEPTOR|98=0|108=30|1137=7|10=003|8=FIXT.1.1|9=81|35=A|34=475|49=INITIATOR|52=20231202-03:58:34.647|56=ACCEPTOR|98=0|108=30|1137=7|10=005|8=FIXT.1.1|9=81|35=A|34=476|49=INITIATOR|52=20231202-03:58:35.530|56=ACCEPTOR|98=0|108=30|1137=7|10=254|8=FIXT.1.1|9=81|35=A|34=477|49=INITIATOR|52=20231202-03:58:36.412|56=ACCEPTOR|98=0|108=30|1137=7|10=255|8=FIXT.1.1|9=81|35=A|34=478|49=INITIATOR|52=20231202-03:58:37.294|56=ACCEPTOR|98=0|108=30|1137=7|10=009|8=FIXT.1.1|9=81|35=A|34=479|49=INITIATOR|52=20231202-03:58:38.177|56=ACCEPTOR|98=0|108=30|1137=7|10=011|8=FIXT.1.1|9=81|35=A|34=480|49=INITIATOR|52=20231202-03:58:39.058|56=ACCEPTOR|98=0|108=30|1137=7|10=002|8=FIXT.1.1|9=81|35=A|34=481|49=INITIATOR|52=20231202-03:58:40.821|56=ACCEPTOR|98=0|108=30|1137=7|10=249|8=FIXT.1.1|9=81|35=A|34=482|49=INITIATOR|52=20231202-03:58:41.702|56=ACCEPTOR|98=0|108=30|1137=7|10=249|8=FIXT.1.1|9=81|35=A|34=483|49=INITIATOR|52=20231202-03:58:42.583|56=ACCEPTOR|98=0|108=30|1137=7|10=002|8=FIXT.1.1|9=81|35=A|34=484|49=INITIATOR|52=20231202-03:58:43.463|56=ACCEPTOR|98=0|108=30|1137=7|10=001|8=FIXT.1.1|9=81|35=A|34=485|49=INITIATOR|52=20231202-03:58:44.344|56=ACCEPTOR|98=0|108=30|1137=7|10=001|8=FIXT.1.1|9=81|35=A|34=486|49=INITIATOR|52=20231202-03:58:45.224|56=ACCEPTOR|98=0|108=30|1137=7|10=000|8=FIXT.1.1|9=81|35=A|34=487|49=INITIATOR|52=20231202-03:58:46.104|56=ACCEPTOR|98=0|108=30|1137=7|10=255|8=FIXT.1.1|9=81|35=A|34=488|49=INITIATOR|52=20231202-03:58:47.862|56=ACCEPTOR|98=0|108=30|1137=7|10=012|8=FIXT.1.1|9=81|35=A|34=489|49=INITIATOR|52=20231202-03:58:48.741|56=ACCEPTOR|98=0|108=30|1137=7|10=010|8=FIXT.1.1|9=81|35=A|34=490|49=INITIATOR|52=20231202-03:58:49.620|56=ACCEPTOR|98=0|108=30|1137=7|10=255|8=FIXT.1.1|9=81|35=A|34=491|49=INITIATOR|52=20231202-03:58:50.498|56=ACCEPTOR|98=0|108=30|1137=7|10=005|8=FIXT.1.1|9=81|35=A|34=492|49=INITIATOR|52=20231202-03:58:51.376|56=ACCEPTOR|98=0|108=30|1137=7|10=002|8=FIXT.1.1|9=81|35=A|34=493|49=INITIATOR|52=20231202-03:58:52.254|56=ACCEPTOR|98=0|108=30|1137=7|10=255|8=FIXT.1.1|9=81|35=A|34=494|49=INITIATOR|52=20231202-03:58:53.131|56=ACCEPTOR|98=0|108=30|1137=7|10=251|8=FIXT.1.1|9=81|35=A|34=495|49=INITIATOR|52=20231202-03:58:54.885|56=ACCEPTOR|98=0|108=30|1137=7|10=013|8=FIXT.1.1|9=81|35=A|34=496|49=INITIATOR|52=20231202-03:58:55.761|56=ACCEPTOR|98=0|108=30|1137=7|10=008|8=FIXT.1.1|9=81|35=A|34=497|49=INITIATOR|52=20231202-03:58:56.638|56=ACCEPTOR|98=0|108=30|1137=7|10=013|8=FIXT.1.1|9=81|35=A|34=498|49=INITIATOR|52=20231202-03:58:57.514|56=ACCEPTOR|98=0|108=30|1137=7|10=008|8=FIXT.1.1|9=81|35=A|34=499|49=INITIATOR|52=20231202-03:58:58.390|56=ACCEPTOR|98=0|108=30|1137=7|10=012|8=FIXT.1.1|9=81|35=A|34=500|49=INITIATOR|52=20231202-03:58:59.265|56=ACCEPTOR|98=0|108=30|1137=7|10=253|8=FIXT.1.1|9=81|35=A|34=501|49=INITIATOR|52=20231202-03:59:00.141|56=ACCEPTOR|98=0|108=30|1137=7|10=234|8=FIXT.1.1|9=81|35=A|34=502|49=INITIATOR|52=20231202-03:59:01.016|56=ACCEPTOR|98=0|108=30|1137=7|10=237|8=FIXT.1.1|9=81|35=A|34=503|49=INITIATOR|52=20231202-03:59:02.764|56=ACCEPTOR|98=0|108=30|1137=7|10=249|8=FIXT.1.1|9=81|35=A|34=504|49=INITIATOR|52=20231202-03:59:03.639|56=ACCEPTOR|98=0|108=30|1137=7|10=252|8=FIXT.1.1|9=81|35=A|34=505|49=INITIATOR|52=20231202-03:59:04.513|56=ACCEPTOR|98=0|108=30|1137=7|10=245|8=FIXT.1.1|9=81|35=A|34=506|49=INITIATOR|52=20231202-03:59:05.386|56=ACCEPTOR|98=0|108=30|1137=7|10=255|8=FIXT.1.1|9=81|35=A|34=507|49=INITIATOR|52=20231202-03:59:06.260|56=ACCEPTOR|98=0|108=30|1137=7|10=248|8=FIXT.1.1|9=81|35=A|34=508|49=INITIATOR|52=20231202-03:59:07.133|56=ACCEPTOR|98=0|108=30|1137=7|10=249|8=FIXT.1.1|9=81|35=A|34=509|49=INITIATOR|52=20231202-03:59:08.877|56=ACCEPTOR|98=0|108=30|1137=7|10=010|8=FIXT.1.1|9=81|35=A|34=510|49=INITIATOR|52=20231202-03:59:09.750|56=ACCEPTOR|98=0|108=30|1137=7|10=249|8=FIXT.1.1|9=81|35=A|34=511|49=INITIATOR|52=20231202-03:59:10.622|56=ACCEPTOR|98=0|108=30|1137=7|10=240|8=FIXT.1.1|9=81|35=A|34=512|49=INITIATOR|52=20231202-03:59:11.494|56=ACCEPTOR|98=0|108=30|1137=7|10=249|8=FIXT.1.1|9=81|35=A|34=513|49=INITIATOR|52=20231202-03:59:12.366|56=ACCEPTOR|98=0|108=30|1137=7|10=249|8=FIXT.1.1|9=81|35=A|34=514|49=INITIATOR|52=20231202-03:59:13.237|56=ACCEPTOR|98=0|108=30|1137=7|10=248|8=FIXT.1.1|9=81|35=A|34=515|49=INITIATOR|52=20231202-03:59:14.108|56=ACCEPTOR|98=0|108=30|1137=7|10=247|8=FIXT.1.1|9=81|35=A|34=516|49=INITIATOR|52=20231202-03:59:15.850|56=ACCEPTOR|98=0|108=30|1137=7|10=253|8=FIXT.1.1|9=81|35=A|34=517|49=INITIATOR|52=20231202-03:59:16.721|56=ACCEPTOR|98=0|108=30|1137=7|10=252|8=FIXT.1.1|9=81|35=A|34=518|49=INITIATOR|52=20231202-03:59:17.591|56=ACCEPTOR|98=0|108=30|1137=7|10=003|8=FIXT.1.1|9=81|35=A|34=519|49=INITIATOR|52=20231202-03:59:18.461|56=ACCEPTOR|98=0|108=30|1137=7|10=001|8=FIXT.1.1|9=81|35=A|34=520|49=INITIATOR|52=20231202-03:59:19.331|56=ACCEPTOR|98=0|108=30|1137=7|10=246|8=FIXT.1.1|9=81|35=A|34=521|49=INITIATOR|52=20231202-03:59:20.200|56=ACCEPTOR|98=0|108=30|1137=7|10=234|8=FIXT.1.1|9=81|35=A|34=522|49=INITIATOR|52=20231202-03:59:21.069|56=ACCEPTOR|98=0|108=30|1137=7|10=249|8=FIXT.1.1|9=81|35=A|34=523|49=INITIATOR|52=20231202-03:59:22.807|56=ACCEPTOR|98=0|108=30|1137=7|10=251|8=FIXT.1.1|9=81|35=A|34=524|49=INITIATOR|52=20231202-03:59:23.676|56=ACCEPTOR|98=0|108=30|1137=7|10=001|8=FIXT.1.1|9=81|35=A|34=525|49=INITIATOR|52=20231202-03:59:24.544|56=ACCEPTOR|98=0|108=30|1137=7|10=253|8=FIXT.1.1|9=81|35=A|34=526|49=INITIATOR|52=20231202-03:59:25.413|56=ACCEPTOR|98=0|108=30|1137=7|10=250|8=FIXT.1.1|9=81|35=A|34=527|49=INITIATOR|52=20231202-03:59:26.280|56=ACCEPTOR|98=0|108=30|1137=7|10=254|8=FIXT.1.1|9=81|35=A|34=528|49=INITIATOR|52=20231202-03:59:27.147|56=ACCEPTOR|98=0|108=30|1137=7|10=002|8=FIXT.1.1|9=81|35=A|34=529|49=INITIATOR|52=20231202-03:59:28.015|56=ACCEPTOR|98=0|108=30|1137=7|10=254|8=FIXT.1.1|9=81|35=A|34=530|49=INITIATOR|52=20231202-03:59:29.747|56=ACCEPTOR|98=0|108=30|1137=7|10=003|8=FIXT.1.1|9=81|35=A|34=531|49=INITIATOR|52=20231202-03:59:30.613|56=ACCEPTOR|98=0|108=30|1137=7|10=244|8=FIXT.1.1|9=81|35=A|34=532|49=INITIATOR|52=20231202-03:59:31.480|56=ACCEPTOR|98=0|108=30|1137=7|10=248|8=FIXT.1.1|9=81|35=A|34=533|49=INITIATOR|52=20231202-03:59:32.345|56=ACCEPTOR|98=0|108=30|1137=7|10=250|8=FIXT.1.1|9=81|35=A|34=534|49=INITIATOR|52=20231202-03:59:33.210|56=ACCEPTOR|98=0|108=30|1137=7|10=243|8=FIXT.1.1|9=81|35=A|34=535|49=INITIATOR|52=20231202-03:59:34.075|56=ACCEPTOR|98=0|108=30|1137=7|10=254|8=FIXT.1.1|9=81|35=A|34=536|49=INITIATOR|52=20231202-03:59:35.806|56=ACCEPTOR|98=0|108=30|1137=7|10=002|8=FIXT.1.1|9=81|35=A|34=537|49=INITIATOR|52=20231202-03:59:36.670|56=ACCEPTOR|98=0|108=30|1137=7|10=003|8=FIXT.1.1|9=81|35=A|34=538|49=INITIATOR|52=20231202-03:59:37.534|56=ACCEPTOR|98=0|108=30|1137=7|10=004|8=FIXT.1.1|9=81|35=A|34=539|49=INITIATOR|52=20231202-03:59:38.399|56=ACCEPTOR|98=0|108=30|1137=7|10=015|8=FIXT.1.1|9=81|35=A|34=540|49=INITIATOR|52=20231202-03:59:39.262|56=ACCEPTOR|98=0|108=30|1137=7|10=253|8=FIXT.1.1|9=81|35=A|34=541|49=INITIATOR|52=20231202-03:59:40.125|56=ACCEPTOR|98=0|108=30|1137=7|10=244|8=FIXT.1.1|9=81|35=A|34=542|49=INITIATOR|52=20231202-03:59:41.852|56=ACCEPTOR|98=0|108=30|1137=7|10=253|8=FIXT.1.1|9=81|35=A|34=543|49=INITIATOR|52=20231202-03:59:42.714|56=ACCEPTOR|98=0|108=30|1137=7|10=252|8=FIXT.1.1|9=81|35=A|34=544|49=INITIATOR|52=20231202-03:59:43.576|56=ACCEPTOR|98=0|108=30|1137=7|10=004|8=FIXT.1.1|9=81|35=A|34=545|49=INITIATOR|52=20231202-03:59:44.438|56=ACCEPTOR|98=0|108=30|1137=7|10=003|8=FIXT.1.1|9=81|35=A|34=546|49=INITIATOR|52=20231202-03:59:45.301|56=ACCEPTOR|98=0|108=30|1137=7|10=250|8=FIXT.1.1|9=81|35=A|34=547|49=INITIATOR|52=20231202-03:59:46.162|56=ACCEPTOR|98=0|108=30|1137=7|10=001|8=FIXT.1.1|9=81|35=A|34=548|49=INITIATOR|52=20231202-03:59:47.023|56=ACCEPTOR|98=0|108=30|1137=7|10=255|8=FIXT.1.1|9=81|35=A|34=549|49=INITIATOR|52=20231202-03:59:48.746|56=ACCEPTOR|98=0|108=30|1137=7|10=013|8=FIXT.1.1|9=81|35=A|34=550|49=INITIATOR|52=20231202-03:59:49.606|56=ACCEPTOR|98=0|108=30|1137=7|10=001|8=FIXT.1.1|9=81|35=A|34=551|49=INITIATOR|52=20231202-03:59:50.466|56=ACCEPTOR|98=0|108=30|1137=7|10=254|8=FIXT.1.1|9=81|35=A|34=552|49=INITIATOR|52=20231202-03:59:51.326|56=ACCEPTOR|98=0|108=30|1137=7|10=251|8=FIXT.1.1|9=81|35=A|34=553|49=INITIATOR|52=20231202-03:59:52.187|56=ACCEPTOR|98=0|108=30|1137=7|10=002|8=FIXT.1.1|9=81|35=A|34=554|49=INITIATOR|52=20231202-03:59:53.046|56=ACCEPTOR|98=0|108=30|1137=7|10=254|8=FIXT.1.1|9=81|35=A|34=555|49=INITIATOR|52=20231202-03:59:54.764|56=ACCEPTOR|98=0|108=30|1137=7|10=007|8=FIXT.1.1|9=81|35=A|34=556|49=INITIATOR|52=20231202-03:59:55.624|56=ACCEPTOR|98=0|108=30|1137=7|10=004|8=FIXT.1.1|9=81|35=A|34=557|49=INITIATOR|52=20231202-03:59:56.482|56=ACCEPTOR|98=0|108=30|1137=7|10=008|8=FIXT.1.1|9=81|35=A|34=558|49=INITIATOR|52=20231202-03:59:57.340|56=ACCEPTOR|98=0|108=30|1137=7|10=003|8=FIXT.1.1|9=81|35=A|34=559|49=INITIATOR|52=20231202-03:59:58.198|56=ACCEPTOR|98=0|108=30|1137=7|10=016|8=FIXT.1.1|9=81|35=A|34=560|49=INITIATOR|52=20231202-03:59:59.057|56=ACCEPTOR|98=0|108=30|1137=7|10=003|8=FIXT.1.1|9=81|35=A|34=561|49=INITIATOR|52=20231202-04:00:00.771|56=ACCEPTOR|98=0|108=30|1137=7|10=236|8=FIXT.1.1|9=81|35=A|34=562|49=INITIATOR|52=20231202-04:00:01.628|56=ACCEPTOR|98=0|108=30|1137=7|10=239|8=FIXT.1.1|9=81|35=A|34=563|49=INITIATOR|52=20231202-04:00:02.484|56=ACCEPTOR|98=0|108=30|1137=7|10=241|8=FIXT.1.1|9=81|35=A|34=564|49=INITIATOR|52=20231202-04:00:03.340|56=ACCEPTOR|98=0|108=30|1137=7|10=234|8=FIXT.1.1|9=81|35=A|34=565|49=INITIATOR|52=20231202-04:00:04.197|56=ACCEPTOR|98=0|108=30|1137=7|10=246|8=FIXT.1.1|9=81|35=A|34=566|49=INITIATOR|52=20231202-04:00:05.053|56=ACCEPTOR|98=0|108=30|1137=7|10=239|8=FIXT.1.1|9=81|35=A|34=567|49=INITIATOR|52=20231202-04:00:06.763|56=ACCEPTOR|98=0|108=30|1137=7|10=249|8=FIXT.1.1|9=81|35=A|34=568|49=INITIATOR|52=20231202-04:00:07.619|56=ACCEPTOR|98=0|108=30|1137=7|10=251|8=FIXT.1.1|9=81|35=A|34=569|49=INITIATOR|52=20231202-04:00:08.474|56=ACCEPTOR|98=0|108=30|1137=7|10=252|8=FIXT.1.1|9=81|35=A|34=570|49=INITIATOR|52=20231202-04:00:09.328|56=ACCEPTOR|98=0|108=30|1137=7|10=243|8=FIXT.1.1|9=81|35=A|34=571|49=INITIATOR|52=20231202-04:00:10.183|56=ACCEPTOR|98=0|108=30|1137=7|10=235|8=FIXT.1.1|9=81|35=A|34=572|49=INITIATOR|52=20231202-04:00:11.037|56=ACCEPTOR|98=0|108=30|1137=7|10=235|8=FIXT.1.1|9=81|35=A|34=573|49=INITIATOR|52=20231202-04:00:12.743|56=ACCEPTOR|98=0|108=30|1137=7|10=241|8=FIXT.1.1|9=81|35=A|34=574|49=INITIATOR|52=20231202-04:00:13.596|56=ACCEPTOR|98=0|108=30|1137=7|10=249|8=FIXT.1.1|9=81|35=A|34=575|49=INITIATOR|52=20231202-04:00:14.450|56=ACCEPTOR|98=0|108=30|1137=7|10=240|8=FIXT.1.1|9=81|35=A|34=576|49=INITIATOR|52=20231202-04:00:15.303|56=ACCEPTOR|98=0|108=30|1137=7|10=239|8=FIXT.1.1|9=81|35=A|34=577|49=INITIATOR|52=20231202-04:00:16.155|56=ACCEPTOR|98=0|108=30|1137=7|10=246|8=FIXT.1.1|9=81|35=A|34=578|49=INITIATOR|52=20231202-04:00:17.859|56=ACCEPTOR|98=0|108=30|1137=7|10=003|8=FIXT.1.1|9=81|35=A|34=579|49=INITIATOR|52=20231202-04:00:18.712|56=ACCEPTOR|98=0|108=30|1137=7|10=249|8=FIXT.1.1|9=81|35=A|34=580|49=INITIATOR|52=20231202-04:00:19.563|56=ACCEPTOR|98=0|108=30|1137=7|10=246|8=FIXT.1.1|9=81|35=A|34=581|49=INITIATOR|52=20231202-04:00:20.414|56=ACCEPTOR|98=0|108=30|1137=7|10=234|8=FIXT.1.1|9=81|35=A|34=582|49=INITIATOR|52=20231202-04:00:21.265|56=ACCEPTOR|98=0|108=30|1137=7|10=240|8=FIXT.1.1|9=81|35=A|34=583|49=INITIATOR|52=20231202-04:00:22.116|56=ACCEPTOR|98=0|108=30|1137=7|10=237|8=FIXT.1.1|9=81|35=A|34=584|49=INITIATOR|52=20231202-04:00:23.816|56=ACCEPTOR|98=0|108=30|1137=7|10=246|8=FIXT.1.1|9=81|35=A|34=585|49=INITIATOR|52=20231202-04:00:24.666|56=ACCEPTOR|98=0|108=30|1137=7|10=251|8=FIXT.1.1|9=81|35=A|34=586|49=INITIATOR|52=20231202-04:00:25.516|56=ACCEPTOR|98=0|108=30|1137=7|10=247|8=FIXT.1.1|9=81|35=A|34=587|49=INITIATOR|52=20231202-04:00:26.365|56=ACCEPTOR|98=0|108=30|1137=7|10=251|8=FIXT.1.1|9=81|35=A|34=588|49=INITIATOR|52=20231202-04:00:27.214|56=ACCEPTOR|98=0|108=30|1137=7|10=246|8=FIXT.1.1|9=81|35=A|34=589|49=INITIATOR|52=20231202-04:00:28.064|56=ACCEPTOR|98=0|108=30|1137=7|10=251|8=FIXT.1.1|9=81|35=A|34=590|49=INITIATOR|52=20231202-04:00:29.760|56=ACCEPTOR|98=0|108=30|1137=7|10=247|8=FIXT.1.1|9=81|35=A|34=591|49=INITIATOR|52=20231202-04:00:30.608|56=ACCEPTOR|98=0|108=30|1137=7|10=241|8=FIXT.1.1|9=81|35=A|34=592|49=INITIATOR|52=20231202-04:00:31.456|56=ACCEPTOR|98=0|108=30|1137=7|10=244|8=FIXT.1.1|9=81|35=A|34=593|49=INITIATOR|52=20231202-04:00:32.304|56=ACCEPTOR|98=0|108=30|1137=7|10=238|8=FIXT.1.1|9=81|35=A|34=594|49=INITIATOR|52=20231202-04:00:33.151|56=ACCEPTOR|98=0|108=30|1137=7|10=240|8=FIXT.1.1|9=81|35=A|34=595|49=INITIATOR|52=20231202-04:00:34.845|56=ACCEPTOR|98=0|108=30|1137=7|10=252|8=FIXT.1.1|9=81|35=A|34=596|49=INITIATOR|52=20231202-04:00:35.692|56=ACCEPTOR|98=0|108=30|1137=7|10=254|8=FIXT.1.1|9=81|35=A|34=597|49=INITIATOR|52=20231202-04:00:36.538|56=ACCEPTOR|98=0|108=30|1137=7|10=255|8=FIXT.1.1|9=81|35=A|34=598|49=INITIATOR|52=20231202-04:00:37.384|56=ACCEPTOR|98=0|108=30|1137=7|10=000|8=FIXT.1.1|9=81|35=A|34=599|49=INITIATOR|52=20231202-04:00:38.231|56=ACCEPTOR|98=0|108=30|1137=7|10=249|8=FIXT.1.1|9=81|35=A|34=600|49=INITIATOR|52=20231202-04:00:39.076|56=ACCEPTOR|98=0|108=30|1137=7|10=240|8=FIXT.1.1|9=81|35=A|34=601|49=INITIATOR|52=20231202-04:00:40.766|56=ACCEPTOR|98=0|108=30|1137=7|10=239|8=FIXT.1.1|9=81|35=A|34=602|49=INITIATOR|52=20231202-04:00:41.612|56=ACCEPTOR|98=0|108=30|1137=7|10=231|8=FIXT.1.1|9=81|35=A|34=603|49=INITIATOR|52=20231202-04:00:42.456|56=ACCEPTOR|98=0|108=30|1137=7|10=239|8=FIXT.1.1|9=81|35=A|34=604|49=INITIATOR|52=20231202-04:00:43.300|56=ACCEPTOR|98=0|108=30|1137=7|10=229|8=FIXT.1.1|9=81|35=A|34=605|49=INITIATOR|52=20231202-04:00:44.145|56=ACCEPTOR|98=0|108=30|1137=7|10=238|8=FIXT.1.1|9=81|35=A|34=606|49=INITIATOR|52=20231202-04:00:45.831|56=ACCEPTOR|98=0|108=30|1137=7|10=242|8=FIXT.1.1|9=81|35=A|34=607|49=INITIATOR|52=20231202-04:00:46.674|56=ACCEPTOR|98=0|108=30|1137=7|10=249|8=FIXT.1.1|9=81|35=A|34=608|49=INITIATOR|52=20231202-04:00:47.517|56=ACCEPTOR|98=0|108=30|1137=7|10=247|8=FIXT.1.1|9=81|35=A|34=609|49=INITIATOR|52=20231202-04:00:48.360|56=ACCEPTOR|98=0|108=30|1137=7|10=245|8=FIXT.1.1|9=81|35=A|34=610|49=INITIATOR|52=20231202-04:00:49.203|56=ACCEPTOR|98=0|108=30|1137=7|10=234|8=FIXT.1.1|9=81|35=A|34=611|49=INITIATOR|52=20231202-04:00:50.045|56=ACCEPTOR|98=0|108=30|1137=7|10=231|8=FIXT.1.1|9=81|35=A|34=612|49=INITIATOR|52=20231202-04:00:51.729|56=ACCEPTOR|98=0|108=30|1137=7|10=242|8=FIXT.1.1|9=81|35=A|34=613|49=INITIATOR|52=20231202-04:00:52.570|56=ACCEPTOR|98=0|108=30|1137=7|10=238|8=FIXT.1.1|9=81|35=A|34=614|49=INITIATOR|52=20231202-04:00:53.412|56=ACCEPTOR|98=0|108=30|1137=7|10=235|8=FIXT.1.1|9=81|35=A|34=615|49=INITIATOR|52=20231202-04:00:54.253|56=ACCEPTOR|98=0|108=30|1137=7|10=240|8=FIXT.1.1|9=81|35=A|34=616|49=INITIATOR|52=20231202-04:00:55.094|56=ACCEPTOR|98=0|108=30|1137=7|10=245|8=FIXT.1.1|9=81|35=A|34=617|49=INITIATOR|52=20231202-04:00:56.774|56=ACCEPTOR|98=0|108=30|1137=7|10=252|8=FIXT.1.1|9=81|35=A|34=618|49=INITIATOR|52=20231202-04:00:57.615|56=ACCEPTOR|98=0|108=30|1137=7|10=248|8=FIXT.1.1|9=81|35=A|34=619|49=INITIATOR|52=20231202-04:00:58.455|56=ACCEPTOR|98=0|108=30|1137=7|10=252|8=FIXT.1.1|9=81|35=A|34=620|49=INITIATOR|52=20231202-04:00:59.294|56=ACCEPTOR|98=0|108=30|1137=7|10=246|8=FIXT.1.1|9=81|35=A|34=621|49=INITIATOR|52=20231202-04:01:00.134|56=ACCEPTOR|98=0|108=30|1137=7|10=227|8=FIXT.1.1|9=81|35=A|34=622|49=INITIATOR|52=20231202-04:01:01.812|56=ACCEPTOR|98=0|108=30|1137=7|10=232|8=FIXT.1.1|9=81|35=A|34=623|49=INITIATOR|52=20231202-04:01:02.651|56=ACCEPTOR|98=0|108=30|1137=7|10=235|8=FIXT.1.1|9=81|35=A|34=624|49=INITIATOR|52=20231202-04:01:03.489|56=ACCEPTOR|98=0|108=30|1137=7|10=246|8=FIXT.1.1|9=81|35=A|34=625|49=INITIATOR|52=20231202-04:01:04.328|56=ACCEPTOR|98=0|108=30|1137=7|10=240|8=FIXT.1.1|9=81|35=A|34=626|49=INITIATOR|52=20231202-04:01:05.166|56=ACCEPTOR|98=0|108=30|1137=7|10=242|8=FIXT.1.1|9=81|35=A|34=627|49=INITIATOR|52=20231202-04:01:06.840|56=ACCEPTOR|98=0|108=30|1137=7|10=243|8=FIXT.1.1|9=81|35=A|34=628|49=INITIATOR|52=20231202-04:01:07.678|56=ACCEPTOR|98=0|108=30|1137=7|10=254|8=FIXT.1.1|9=81|35=A|34=629|49=INITIATOR|52=20231202-04:01:08.515|56=ACCEPTOR|98=0|108=30|1137=7|10=246|8=FIXT.1.1|9=81|35=A|34=630|49=INITIATOR|52=20231202-04:01:09.351|56=ACCEPTOR|98=0|108=30|1137=7|10=237|8=FIXT.1.1|9=81|35=A|34=631|49=INITIATOR|52=20231202-04:01:10.188|56=ACCEPTOR|98=0|108=30|1137=7|10=238|8=FIXT.1.1|9=81|35=A|34=632|49=INITIATOR|52=20231202-04:01:11.024|56=ACCEPTOR|98=0|108=30|1137=7|10=229|8=FIXT.1.1|9=81|35=A|34=633|49=INITIATOR|52=20231202-04:01:12.696|56=ACCEPTOR|98=0|108=30|1137=7|10=246|8=FIXT.1.1|9=81|35=A|34=634|49=INITIATOR|52=20231202-04:01:13.531|56=ACCEPTOR|98=0|108=30|1137=7|10=236|8=FIXT.1.1|9=81|35=A|34=635|49=INITIATOR|52=20231202-04:01:14.367|56=ACCEPTOR|98=0|108=30|1137=7|10=245|8=FIXT.1.1|9=81|35=A|34=636|49=INITIATOR|52=20231202-04:01:15.202|56=ACCEPTOR|98=0|108=30|1137=7|10=235|8=FIXT.1.1|9=81|35=A|34=637|49=INITIATOR|52=20231202-04:01:16.036|56=ACCEPTOR|98=0|108=30|1137=7|10=242|8=FIXT.1.1|9=81|35=A|34=638|49=INITIATOR|52=20231202-04:01:17.705|56=ACCEPTOR|98=0|108=30|1137=7|10=247|8=FIXT.1.1|9=81|35=A|34=639|49=INITIATOR|52=20231202-04:01:18.539|56=ACCEPTOR|98=0|108=30|1137=7|10=254|8=FIXT.1.1|9=81|35=A|34=640|49=INITIATOR|52=20231202-04:01:19.373|56=ACCEPTOR|98=0|108=30|1137=7|10=243|8=FIXT.1.1|9=81|35=A|34=641|49=INITIATOR|52=20231202-04:01:20.206|56=ACCEPTOR|98=0|108=30|1137=7|10=231|8=FIXT.1.1|9=81|35=A|34=642|49=INITIATOR|52=20231202-04:01:21.040|56=ACCEPTOR|98=0|108=30|1137=7|10=229|8=FIXT.1.1|9=81|35=A|34=643|49=INITIATOR|52=20231202-04:01:22.706|56=ACCEPTOR|98=0|108=30|1137=7|10=240|8=FIXT.1.1|9=81|35=A|34=644|49=INITIATOR|52=20231202-04:01:23.538|56=ACCEPTOR|98=0|108=30|1137=7|10=245|8=FIXT.1.1|9=81|35=A|34=645|49=INITIATOR|52=20231202-04:01:24.370|56=ACCEPTOR|98=0|108=30|1137=7|10=241|8=FIXT.1.1|9=81|35=A|34=646|49=INITIATOR|52=20231202-04:01:25.203|56=ACCEPTOR|98=0|108=30|1137=7|10=238|8=FIXT.1.1|9=81|35=A|34=647|49=INITIATOR|52=20231202-04:01:26.034|56=ACCEPTOR|98=0|108=30|1137=7|10=242|8=FIXT.1.1|9=81|35=A|34=648|49=INITIATOR|52=20231202-04:01:27.696|56=ACCEPTOR|98=0|108=30|1137=7|10=002|8=FIXT.1.1|9=81|35=A|34=649|49=INITIATOR|52=20231202-04:01:28.528|56=ACCEPTOR|98=0|108=30|1137=7|10=254|8=FIXT.1.1|9=81|35=A|34=650|49=INITIATOR|52=20231202-04:01:29.358|56=ACCEPTOR|98=0|108=30|1137=7|10=248|8=FIXT.1.1|9=81|35=A|34=651|49=INITIATOR|52=20231202-04:01:30.188|56=ACCEPTOR|98=0|108=30|1137=7|10=242|8=FIXT.1.1|9=81|35=A|34=652|49=INITIATOR|52=20231202-04:01:31.019|56=ACCEPTOR|98=0|108=30|1137=7|10=237|8=FIXT.1.1|9=81|35=A|34=653|49=INITIATOR|52=20231202-04:01:32.679|56=ACCEPTOR|98=0|108=30|1137=7|10=251|8=FIXT.1.1|9=81|35=A|34=654|49=INITIATOR|52=20231202-04:01:33.508|56=ACCEPTOR|98=0|108=30|1137=7|10=244|8=FIXT.1.1|9=81|35=A|34=655|49=INITIATOR|52=20231202-04:01:34.337|56=ACCEPTOR|98=0|108=30|1137=7|10=246|8=FIXT.1.1|9=81|35=A|34=656|49=INITIATOR|52=20231202-04:01:35.167|56=ACCEPTOR|98=0|108=30|1137=7|10=249|8=FIXT.1.1|9=81|35=A|34=657|49=INITIATOR|52=20231202-04:01:36.824|56=ACCEPTOR|98=0|108=30|1137=7|10=251|8=FIXT.1.1|9=81|35=A|34=658|49=INITIATOR|52=20231202-04:01:37.651|56=ACCEPTOR|98=0|108=30|1137=7|10=251|8=FIXT.1.1|9=81|35=A|34=659|49=INITIATOR|52=20231202-04:01:38.480|56=ACCEPTOR|98=0|108=30|1137=7|10=253|8=FIXT.1.1|9=81|35=A|34=660|49=INITIATOR|52=20231202-04:01:39.308|56=ACCEPTOR|98=0|108=30|1137=7|10=245|8=FIXT.1.1|9=81|35=A|34=661|49=INITIATOR|52=20231202-04:01:40.135|56=ACCEPTOR|98=0|108=30|1137=7|10=236|8=FIXT.1.1|9=81|35=A|34=662|49=INITIATOR|52=20231202-04:01:41.789|56=ACCEPTOR|98=0|108=30|1137=7|10=253|8=FIXT.1.1|9=81|35=A|34=663|49=INITIATOR|52=20231202-04:01:42.617|56=ACCEPTOR|98=0|108=30|1137=7|10=245|8=FIXT.1.1|9=81|35=A|34=664|49=INITIATOR|52=20231202-04:01:43.443|56=ACCEPTOR|98=0|108=30|1137=7|10=244|8=FIXT.1.1|9=81|35=A|34=665|49=INITIATOR|52=20231202-04:01:44.269|56=ACCEPTOR|98=0|108=30|1137=7|10=252|8=FIXT.1.1|9=81|35=A|34=666|49=INITIATOR|52=20231202-04:01:45.095|56=ACCEPTOR|98=0|108=30|1137=7|10=251|8=FIXT.1.1|9=81|35=A|34=667|49=INITIATOR|52=20231202-04:01:46.747|56=ACCEPTOR|98=0|108=30|1137=7|10=001|8=FIXT.1.1|9=81|35=A|34=668|49=INITIATOR|52=20231202-04:01:47.573|56=ACCEPTOR|98=0|108=30|1137=7|10=000|8=FIXT.1.1|9=81|35=A|34=669|49=INITIATOR|52=20231202-04:01:48.398|56=ACCEPTOR|98=0|108=30|1137=7|10=007|8=FIXT.1.1|9=81|35=A|34=670|49=INITIATOR|52=20231202-04:01:49.223|56=ACCEPTOR|98=0|108=30|1137=7|10=243|8=FIXT.1.1|9=81|35=A|34=671|49=INITIATOR|52=20231202-04:01:50.048|56=ACCEPTOR|98=0|108=30|1137=7|10=241|8=FIXT.1.1|9=81|35=A|34=672|49=INITIATOR|52=20231202-04:01:51.696|56=ACCEPTOR|98=0|108=30|1137=7|10=252|8=FIXT.1.1|9=81|35=A|34=673|49=INITIATOR|52=20231202-04:01:52.520|56=ACCEPTOR|98=0|108=30|1137=7|10=240|8=FIXT.1.1|9=81|35=A|34=674|49=INITIATOR|52=20231202-04:01:53.343|56=ACCEPTOR|98=0|108=30|1137=7|10=245|8=FIXT.1.1|9=81|35=A|34=675|49=INITIATOR|52=20231202-04:01:54.167|56=ACCEPTOR|98=0|108=30|1137=7|10=251|8=FIXT.1.1|9=81|35=A|34=676|49=INITIATOR|52=20231202-04:01:55.811|56=ACCEPTOR|98=0|108=30|1137=7|10=249|8=FIXT.1.1|9=81|35=A|34=677|49=INITIATOR|52=20231202-04:01:56.633|56=ACCEPTOR|98=0|108=30|1137=7|10=253|8=FIXT.1.1|9=81|35=A|34=678|49=INITIATOR|52=20231202-04:01:57.456|56=ACCEPTOR|98=0|108=30|1137=7|10=002|8=FIXT.1.1|9=81|35=A|34=679|49=INITIATOR|52=20231202-04:01:58.277|56=ACCEPTOR|98=0|108=30|1137=7|10=005|8=FIXT.1.1|9=81|35=A|34=680|49=INITIATOR|52=20231202-04:01:59.098|56=ACCEPTOR|98=0|108=30|1137=7|10=255|8=FIXT.1.1|9=81|35=A|34=681|49=INITIATOR|52=20231202-04:02:00.740|56=ACCEPTOR|98=0|108=30|1137=7|10=237|8=FIXT.1.1|9=81|35=A|34=682|49=INITIATOR|52=20231202-04:02:01.560|56=ACCEPTOR|98=0|108=30|1137=7|10=239|8=FIXT.1.1|9=81|35=A|34=683|49=INITIATOR|52=20231202-04:02:02.380|56=ACCEPTOR|98=0|108=30|1137=7|10=241|8=FIXT.1.1|9=81|35=A|34=684|49=INITIATOR|52=20231202-04:02:03.200|56=ACCEPTOR|98=0|108=30|1137=7|10=234|8=FIXT.1.1|9=81|35=A|34=685|49=INITIATOR|52=20231202-04:02:04.020|56=ACCEPTOR|98=0|108=30|1137=7|10=236|8=FIXT.1.1|9=81|35=A|34=686|49=INITIATOR|52=20231202-04:02:05.658|56=ACCEPTOR|98=0|108=30|1137=7|10=255|8=FIXT.1.1|9=81|35=A|34=687|49=INITIATOR|52=20231202-04:02:06.477|56=ACCEPTOR|98=0|108=30|1137=7|10=000|8=FIXT.1.1|9=81|35=A|34=688|49=INITIATOR|52=20231202-04:02:07.295|56=ACCEPTOR|98=0|108=30|1137=7|10=000|8=FIXT.1.1|9=81|35=A|34=689|49=INITIATOR|52=20231202-04:02:08.113|56=ACCEPTOR|98=0|108=30|1137=7|10=247|8=FIXT.1.1|9=81|35=A|34=690|49=INITIATOR|52=20231202-04:02:09.750|56=ACCEPTOR|98=0|108=30|1137=7|10=247|8=FIXT.1.1|9=81|35=A|34=691|49=INITIATOR|52=20231202-04:02:10.568|56=ACCEPTOR|98=0|108=30|1137=7|10=247|8=FIXT.1.1|9=81|35=A|34=692|49=INITIATOR|52=20231202-04:02:11.385|56=ACCEPTOR|98=0|108=30|1137=7|10=246|8=FIXT.1.1|9=81|35=A|34=693|49=INITIATOR|52=20231202-04:02:12.203|56=ACCEPTOR|98=0|108=30|1137=7|10=237|8=FIXT.1.1|9=81|35=A|34=694|49=INITIATOR|52=20231202-04:02:13.020|56=ACCEPTOR|98=0|108=30|1137=7|10=236|8=FIXT.1.1|9=81|35=A|34=695|49=INITIATOR|52=20231202-04:02:14.652|56=ACCEPTOR|98=0|108=30|1137=7|10=249|8=FIXT.1.1|9=81|35=A|34=696|49=INITIATOR|52=20231202-04:02:15.468|56=ACCEPTOR|98=0|108=30|1137=7|10=000|8=FIXT.1.1|9=81|35=A|34=697|49=INITIATOR|52=20231202-04:02:16.285|56=ACCEPTOR|98=0|108=30|1137=7|10=255|8=FIXT.1.1|9=81|35=A|34=698|49=INITIATOR|52=20231202-04:02:17.100|56=ACCEPTOR|98=0|108=30|1137=7|10=243|8=FIXT.1.1|9=81|35=A|34=699|49=INITIATOR|52=20231202-04:02:18.730|56=ACCEPTOR|98=0|108=30|1137=7|10=254|8=FIXT.1.1|9=81|35=A|34=700|49=INITIATOR|52=20231202-04:02:19.546|56=ACCEPTOR|98=0|108=30|1137=7|10=243|8=FIXT.1.1|9=81|35=A|34=701|49=INITIATOR|52=20231202-04:02:20.360|56=ACCEPTOR|98=0|108=30|1137=7|10=230|8=FIXT.1.1|9=81|35=A|34=702|49=INITIATOR|52=20231202-04:02:21.174|56=ACCEPTOR|98=0|108=30|1137=7|10=235|8=FIXT.1.1|9=81|35=A|34=703|49=INITIATOR|52=20231202-04:02:22.802|56=ACCEPTOR|98=0|108=30|1137=7|10=235|8=FIXT.1.1|9=81|35=A|34=704|49=INITIATOR|52=20231202-04:02:23.615|56=ACCEPTOR|98=0|108=30|1137=7|10=239|8=FIXT.1.1|9=81|35=A|34=705|49=INITIATOR|52=20231202-04:02:24.429|56=ACCEPTOR|98=0|108=30|1137=7|10=244|8=FIXT.1.1|9=81|35=A|34=706|49=INITIATOR|52=20231202-04:02:25.242|56=ACCEPTOR|98=0|108=30|1137=7|10=239|8=FIXT.1.1|9=81|35=A|34=707|49=INITIATOR|52=20231202-04:02:26.054|56=ACCEPTOR|98=0|108=30|1137=7|10=242|8=FIXT.1.1|9=81|35=A|34=708|49=INITIATOR|52=20231202-04:02:27.679|56=ACCEPTOR|98=0|108=30|1137=7|10=001|8=FIXT.1.1|9=81|35=A|34=709|49=INITIATOR|52=20231202-04:02:28.491|56=ACCEPTOR|98=0|108=30|1137=7|10=251|8=FIXT.1.1|9=81|35=A|34=710|49=INITIATOR|52=20231202-04:02:29.302|56=ACCEPTOR|98=0|108=30|1137=7|10=235|8=FIXT.1.1|9=81|35=A|34=711|49=INITIATOR|52=20231202-04:02:30.114|56=ACCEPTOR|98=0|108=30|1137=7|10=229|8=FIXT.1.1|9=81|35=A|34=712|49=INITIATOR|52=20231202-04:02:31.734|56=ACCEPTOR|98=0|108=30|1137=7|10=239|8=FIXT.1.1|9=81|35=A|34=713|49=INITIATOR|52=20231202-04:02:32.544|56=ACCEPTOR|98=0|108=30|1137=7|10=240|8=FIXT.1.1|9=81|35=A|34=714|49=INITIATOR|52=20231202-04:02:33.354|56=ACCEPTOR|98=0|108=30|1137=7|10=241|8=FIXT.1.1|9=81|35=A|34=715|49=INITIATOR|52=20231202-04:02:34.164|56=ACCEPTOR|98=0|108=30|1137=7|10=242|8=FIXT.1.1|9=81|35=A|34=716|49=INITIATOR|52=20231202-04:02:35.782|56=ACCEPTOR|98=0|108=30|1137=7|10=250|8=FIXT.1.1|9=81|35=A|34=717|49=INITIATOR|52=20231202-04:02:36.591|56=ACCEPTOR|98=0|108=30|1137=7|10=250|8=FIXT.1.1|9=81|35=A|34=718|49=INITIATOR|52=20231202-04:02:37.399|56=ACCEPTOR|98=0|108=30|1137=7|10=002|8=FIXT.1.1|9=81|35=A|34=719|49=INITIATOR|52=20231202-04:02:38.208|56=ACCEPTOR|98=0|108=30|1137=7|10=249|8=FIXT.1.1|9=81|35=A|34=720|49=INITIATOR|52=20231202-04:02:39.016|56=ACCEPTOR|98=0|108=30|1137=7|10=239|8=FIXT.1.1|9=81|35=A|34=721|49=INITIATOR|52=20231202-04:02:40.630|56=ACCEPTOR|98=0|108=30|1137=7|10=234|8=FIXT.1.1|9=81|35=A|34=722|49=INITIATOR|52=20231202-04:02:41.438|56=ACCEPTOR|98=0|108=30|1137=7|10=242|8=FIXT.1.1|9=81|35=A|34=723|49=INITIATOR|52=20231202-04:02:42.245|56=ACCEPTOR|98=0|108=30|1137=7|10=240|8=FIXT.1.1|9=81|35=A|34=724|49=INITIATOR|52=20231202-04:02:43.051|56=ACCEPTOR|98=0|108=30|1137=7|10=237|8=FIXT.1.1|9=81|35=A|34=725|49=INITIATOR|52=20231202-04:02:44.663|56=ACCEPTOR|98=0|108=30|1137=7|10=248|8=FIXT.1.1|9=81|35=A|34=726|49=INITIATOR|52=20231202-04:02:45.469|56=ACCEPTOR|98=0|108=30|1137=7|10=254|8=FIXT.1.1|9=81|35=A|34=727|49=INITIATOR|52=20231202-04:02:46.275|56=ACCEPTOR|98=0|108=30|1137=7|10=251|8=FIXT.1.1|9=81|35=A|34=728|49=INITIATOR|52=20231202-04:02:47.080|56=ACCEPTOR|98=0|108=30|1137=7|10=247|8=FIXT.1.1|9=81|35=A|34=729|49=INITIATOR|52=20231202-04:02:48.690|56=ACCEPTOR|98=0|108=30|1137=7|10=000|8=FIXT.1.1|9=81|35=A|34=730|49=INITIATOR|52=20231202-04:02:49.495|56=ACCEPTOR|98=0|108=30|1137=7|10=252|8=FIXT.1.1|9=81|35=A|34=731|49=INITIATOR|52=20231202-04:02:50.300|56=ACCEPTOR|98=0|108=30|1137=7|10=230|8=FIXT.1.1|9=81|35=A|34=732|49=INITIATOR|52=20231202-04:02:51.104|56=ACCEPTOR|98=0|108=30|1137=7|10=234|8=FIXT.1.1|9=81|35=A|34=733|49=INITIATOR|52=20231202-04:02:52.712|56=ACCEPTOR|98=0|108=30|1137=7|10=241|8=FIXT.1.1|9=81|35=A|34=734|49=INITIATOR|52=20231202-04:02:53.515|56=ACCEPTOR|98=0|108=30|1137=7|10=244|8=FIXT.1.1|9=81|35=A|34=735|49=INITIATOR|52=20231202-04:02:54.318|56=ACCEPTOR|98=0|108=30|1137=7|10=247|8=FIXT.1.1|9=81|35=A|34=736|49=INITIATOR|52=20231202-04:02:55.122|56=ACCEPTOR|98=0|108=30|1137=7|10=242|8=FIXT.1.1|9=81|35=A|34=737|49=INITIATOR|52=20231202-04:02:56.728|56=ACCEPTOR|98=0|108=30|1137=7|10=000|8=FIXT.1.1|9=81|35=A|34=738|49=INITIATOR|52=20231202-04:02:57.530|56=ACCEPTOR|98=0|108=30|1137=7|10=249|8=FIXT.1.1|9=81|35=A|34=739|49=INITIATOR|52=20231202-04:02:58.332|56=ACCEPTOR|98=0|108=30|1137=7|10=251|8=FIXT.1.1|9=81|35=A|34=740|49=INITIATOR|52=20231202-04:02:59.135|56=ACCEPTOR|98=0|108=30|1137=7|10=245|8=FIXT.1.1|9=81|35=A|34=741|49=INITIATOR|52=20231202-04:03:00.737|56=ACCEPTOR|98=0|108=30|1137=7|10=241|8=FIXT.1.1|9=81|35=A|34=742|49=INITIATOR|52=20231202-04:03:01.538|56=ACCEPTOR|98=0|108=30|1137=7|10=242|8=FIXT.1.1|9=81|35=A|34=743|49=INITIATOR|52=20231202-04:03:02.339|56=ACCEPTOR|98=0|108=30|1137=7|10=243|8=FIXT.1.1|9=81|35=A|34=744|49=INITIATOR|52=20231202-04:03:03.140|56=ACCEPTOR|98=0|108=30|1137=7|10=235|8=FIXT.1.1|9=81|35=A|34=745|49=INITIATOR|52=20231202-04:03:04.740|56=ACCEPTOR|98=0|108=30|1137=7|10=243|8=FIXT.1.1|9=81|35=A|34=746|49=INITIATOR|52=20231202-04:03:05.541|56=ACCEPTOR|98=0|108=30|1137=7|10=244|8=FIXT.1.1|9=81|35=A|34=747|49=INITIATOR|52=20231202-04:03:06.341|56=ACCEPTOR|98=0|108=30|1137=7|10=244|8=FIXT.1.1|9=81|35=A|34=748|49=INITIATOR|52=20231202-04:03:07.140|56=ACCEPTOR|98=0|108=30|1137=7|10=243|8=FIXT.1.1|9=81|35=A|34=749|49=INITIATOR|52=20231202-04:03:08.738|56=ACCEPTOR|98=0|108=30|1137=7|10=002|8=FIXT.1.1|9=81|35=A|34=750|49=INITIATOR|52=20231202-04:03:09.537|56=ACCEPTOR|98=0|108=30|1137=7|10=248|8=FIXT.1.1|9=81|35=A|34=751|49=INITIATOR|52=20231202-04:03:10.336|56=ACCEPTOR|98=0|108=30|1137=7|10=238|8=FIXT.1.1|9=81|35=A|34=752|49=INITIATOR|52=20231202-04:03:11.134|56=ACCEPTOR|98=0|108=30|1137=7|10=236|8=FIXT.1.1|9=81|35=A|34=753|49=INITIATOR|52=20231202-04:03:12.730|56=ACCEPTOR|98=0|108=30|1137=7|10=240|8=FIXT.1.1|9=81|35=A|34=754|49=INITIATOR|52=20231202-04:03:13.529|56=ACCEPTOR|98=0|108=30|1137=7|10=248|8=FIXT.1.1|9=81|35=A|34=755|49=INITIATOR|52=20231202-04:03:14.326|56=ACCEPTOR|98=0|108=30|1137=7|10=245|8=FIXT.1.1|9=81|35=A|34=756|49=INITIATOR|52=20231202-04:03:15.123|56=ACCEPTOR|98=0|108=30|1137=7|10=242|8=FIXT.1.1|9=81|35=A|34=757|49=INITIATOR|52=20231202-04:03:16.717|56=ACCEPTOR|98=0|108=30|1137=7|10=253|8=FIXT.1.1|9=81|35=A|34=758|49=INITIATOR|52=20231202-04:03:17.514|56=ACCEPTOR|98=0|108=30|1137=7|10=250|8=FIXT.1.1|9=81|35=A|34=759|49=INITIATOR|52=20231202-04:03:18.310|56=ACCEPTOR|98=0|108=30|1137=7|10=246|8=FIXT.1.1|9=81|35=A|34=760|49=INITIATOR|52=20231202-04:03:19.106|56=ACCEPTOR|98=0|108=30|1137=7|10=242|8=FIXT.1.1|9=81|35=A|34=761|49=INITIATOR|52=20231202-04:03:20.697|56=ACCEPTOR|98=0|108=30|1137=7|10=250|8=FIXT.1.1|9=81|35=A|34=762|49=INITIATOR|52=20231202-04:03:21.493|56=ACCEPTOR|98=0|108=30|1137=7|10=246|8=FIXT.1.1|9=81|35=A|34=763|49=INITIATOR|52=20231202-04:03:22.288|56=ACCEPTOR|98=0|108=30|1137=7|10=250|8=FIXT.1.1|9=81|35=A|34=764|49=INITIATOR|52=20231202-04:03:23.083|56=ACCEPTOR|98=0|108=30|1137=7|10=245|8=FIXT.1.1|9=81|35=A|34=765|49=INITIATOR|52=20231202-04:03:24.671|56=ACCEPTOR|98=0|108=30|1137=7|10=250|8=FIXT.1.1|9=81|35=A|34=766|49=INITIATOR|52=20231202-04:03:25.466|56=ACCEPTOR|98=0|108=30|1137=7|10=254|8=FIXT.1.1|9=81|35=A|34=767|49=INITIATOR|52=20231202-04:03:26.260|56=ACCEPTOR|98=0|108=30|1137=7|10=248|8=FIXT.1.1|9=81|35=A|34=768|49=INITIATOR|52=20231202-04:03:27.053|56=ACCEPTOR|98=0|108=30|1137=7|10=250|8=FIXT.1.1|9=81|35=A|34=769|49=INITIATOR|52=20231202-04:03:28.639|56=ACCEPTOR|98=0|108=30|1137=7|10=006|8=FIXT.1.1|9=81|35=A|34=770|49=INITIATOR|52=20231202-04:03:29.433|56=ACCEPTOR|98=0|108=30|1137=7|10=247|8=FIXT.1.1|9=81|35=A|34=771|49=INITIATOR|52=20231202-04:03:30.225|56=ACCEPTOR|98=0|108=30|1137=7|10=239|8=FIXT.1.1|9=81|35=A|34=772|49=INITIATOR|52=20231202-04:03:31.017|56=ACCEPTOR|98=0|108=30|1137=7|10=240|8=FIXT.1.1|9=81|35=A|34=773|49=INITIATOR|52=20231202-04:03:32.601|56=ACCEPTOR|98=0|108=30|1137=7|10=241|8=FIXT.1.1|9=81|35=A|34=774|49=INITIATOR|52=20231202-04:03:33.394|56=ACCEPTOR|98=0|108=30|1137=7|10=252|8=FIXT.1.1|9=81|35=A|34=775|49=INITIATOR|52=20231202-04:03:34.185|56=ACCEPTOR|98=0|108=30|1137=7|10=252|8=FIXT.1.1|9=81|35=A|34=776|49=INITIATOR|52=20231202-04:03:35.767|56=ACCEPTOR|98=0|108=30|1137=7|10=004|8=FIXT.1.1|9=81|35=A|34=777|49=INITIATOR|52=20231202-04:03:36.558|56=ACCEPTOR|98=0|108=30|1137=7|10=004|8=FIXT.1.1|9=81|35=A|34=778|49=INITIATOR|52=20231202-04:03:37.348|56=ACCEPTOR|98=0|108=30|1137=7|10=003|8=FIXT.1.1|9=81|35=A|34=779|49=INITIATOR|52=20231202-04:03:38.139|56=ACCEPTOR|98=0|108=30|1137=7|10=003|8=FIXT.1.1|9=81|35=A|34=780|49=INITIATOR|52=20231202-04:03:39.719|56=ACCEPTOR|98=0|108=30|1137=7|10=000|8=FIXT.1.1|9=81|35=A|34=781|49=INITIATOR|52=20231202-04:03:40.509|56=ACCEPTOR|98=0|108=30|1137=7|10=246|8=FIXT.1.1|9=81|35=A|34=782|49=INITIATOR|52=20231202-04:03:41.298|56=ACCEPTOR|98=0|108=30|1137=7|10=253|8=FIXT.1.1|9=81|35=A|34=783|49=INITIATOR|52=20231202-04:03:42.087|56=ACCEPTOR|98=0|108=30|1137=7|10=251|8=FIXT.1.1|9=81|35=A|34=784|49=INITIATOR|52=20231202-04:03:43.665|56=ACCEPTOR|98=0|108=30|1137=7|10=255|8=FIXT.1.1|9=81|35=A|34=785|49=INITIATOR|52=20231202-04:03:44.453|56=ACCEPTOR|98=0|108=30|1137=7|10=252|8=FIXT.1.1|9=81|35=A|34=786|49=INITIATOR|52=20231202-04:03:45.242|56=ACCEPTOR|98=0|108=30|1137=7|10=250|8=FIXT.1.1|9=81|35=A|34=787|49=INITIATOR|52=20231202-04:03:46.030|56=ACCEPTOR|98=0|108=30|1137=7|10=247|8=FIXT.1.1|9=81|35=A|34=788|49=INITIATOR|52=20231202-04:03:47.604|56=ACCEPTOR|98=0|108=30|1137=7|10=000|8=FIXT.1.1|9=81|35=A|34=789|49=INITIATOR|52=20231202-04:03:48.391|56=ACCEPTOR|98=0|108=30|1137=7|10=005|8=FIXT.1.1|9=81|35=A|34=790|49=INITIATOR|52=20231202-04:03:49.179|56=ACCEPTOR|98=0|108=30|1137=7|10=002|8=FIXT.1.1|9=81|35=A|34=791|49=INITIATOR|52=20231202-04:03:50.750|56=ACCEPTOR|98=0|108=30|1137=7|10=246|8=FIXT.1.1|9=81|35=A|34=792|49=INITIATOR|52=20231202-04:03:51.536|56=ACCEPTOR|98=0|108=30|1137=7|10=250|8=FIXT.1.1|9=81|35=A|34=793|49=INITIATOR|52=20231202-04:03:52.322|56=ACCEPTOR|98=0|108=30|1137=7|10=245|8=FIXT.1.1|9=81|35=A|34=794|49=INITIATOR|52=20231202-04:03:53.108|56=ACCEPTOR|98=0|108=30|1137=7|10=249|8=FIXT.1.1|9=81|35=A|34=795|49=INITIATOR|52=20231202-04:03:54.679|56=ACCEPTOR|98=0|108=30|1137=7|10=008|8=FIXT.1.1|9=81|35=A|34=796|49=INITIATOR|52=20231202-04:03:55.464|56=ACCEPTOR|98=0|108=30|1137=7|10=002|8=FIXT.1.1|9=81|35=A|34=797|49=INITIATOR|52=20231202-04:03:56.249|56=ACCEPTOR|98=0|108=30|1137=7|10=005|8=FIXT.1.1|9=81|35=A|34=798|49=INITIATOR|52=20231202-04:03:57.033|56=ACCEPTOR|98=0|108=30|1137=7|10=254|8=FIXT.1.1|9=81|35=A|34=799|49=INITIATOR|52=20231202-04:03:58.601|56=ACCEPTOR|98=0|108=30|1137=7|10=001|8=FIXT.1.1|9=81|35=A|34=800|49=INITIATOR|52=20231202-04:03:59.386|56=ACCEPTOR|98=0|108=30|1137=7|10=251|8=FIXT.1.1|9=81|35=A|34=801|49=INITIATOR|52=20231202-04:04:00.169|56=ACCEPTOR|98=0|108=30|1137=7|10=238|8=FIXT.1.1|9=81|35=A|34=802|49=INITIATOR|52=20231202-04:04:01.735|56=ACCEPTOR|98=0|108=30|1137=7|10=239|8=FIXT.1.1|9=81|35=A|34=803|49=INITIATOR|52=20231202-04:04:02.518|56=ACCEPTOR|98=0|108=30|1137=7|10=240|8=FIXT.1.1|9=81|35=A|34=804|49=INITIATOR|52=20231202-04:04:03.301|56=ACCEPTOR|98=0|108=30|1137=7|10=232|8=FIXT.1.1|9=81|35=A|34=805|49=INITIATOR|52=20231202-04:04:04.083|56=ACCEPTOR|98=0|108=30|1137=7|10=241|8=FIXT.1.1|9=81|35=A|34=806|49=INITIATOR|52=20231202-04:04:05.647|56=ACCEPTOR|98=0|108=30|1137=7|10=249|8=FIXT.1.1|9=81|35=A|34=807|49=INITIATOR|52=20231202-04:04:06.429|56=ACCEPTOR|98=0|108=30|1137=7|10=249|8=FIXT.1.1|9=81|35=A|34=808|49=INITIATOR|52=20231202-04:04:07.210|56=ACCEPTOR|98=0|108=30|1137=7|10=239|8=FIXT.1.1|9=81|35=A|34=809|49=INITIATOR|52=20231202-04:04:08.772|56=ACCEPTOR|98=0|108=30|1137=7|10=254|8=FIXT.1.1|9=81|35=A|34=810|49=INITIATOR|52=20231202-04:04:09.554|56=ACCEPTOR|98=0|108=30|1137=7|10=245|8=FIXT.1.1|9=81|35=A|34=811|49=INITIATOR|52=20231202-04:04:10.334|56=ACCEPTOR|98=0|108=30|1137=7|10=234|8=FIXT.1.1|9=81|35=A|34=812|49=INITIATOR|52=20231202-04:04:11.114|56=ACCEPTOR|98=0|108=30|1137=7|10=232|8=FIXT.1.1|9=81|35=A|34=813|49=INITIATOR|52=20231202-04:04:12.674|56=ACCEPTOR|98=0|108=30|1137=7|10=245|8=FIXT.1.1|9=81|35=A|34=814|49=INITIATOR|52=20231202-04:04:13.453|56=ACCEPTOR|98=0|108=30|1137=7|10=242|8=FIXT.1.1|9=81|35=A|34=815|49=INITIATOR|52=20231202-04:04:14.233|56=ACCEPTOR|98=0|108=30|1137=7|10=240|8=FIXT.1.1|9=81|35=A|34=816|49=INITIATOR|52=20231202-04:04:15.012|56=ACCEPTOR|98=0|108=30|1137=7|10=237|8=FIXT.1.1|9=81|35=A|34=817|49=INITIATOR|52=20231202-04:04:16.570|56=ACCEPTOR|98=0|108=30|1137=7|10=248|8=FIXT.1.1|9=81|35=A|34=818|49=INITIATOR|52=20231202-04:04:17.348|56=ACCEPTOR|98=0|108=30|1137=7|10=253|8=FIXT.1.1|9=81|35=A|34=819|49=INITIATOR|52=20231202-04:04:18.126|56=ACCEPTOR|98=0|108=30|1137=7|10=249|8=FIXT.1.1|9=81|35=A|34=820|49=INITIATOR|52=20231202-04:04:19.682|56=ACCEPTOR|98=0|108=30|1137=7|10=249|8=FIXT.1.1|9=81|35=A|34=821|49=INITIATOR|52=20231202-04:04:20.460|56=ACCEPTOR|98=0|108=30|1137=7|10=236|8=FIXT.1.1|9=81|35=A|34=822|49=INITIATOR|52=20231202-04:04:21.237|56=ACCEPTOR|98=0|108=30|1137=7|10=240|8=FIXT.1.1|9=81|35=A|34=823|49=INITIATOR|52=20231202-04:04:22.014|56=ACCEPTOR|98=0|108=30|1137=7|10=235|8=FIXT.1.1|9=81|35=A|34=824|49=INITIATOR|52=20231202-04:04:23.566|56=ACCEPTOR|98=0|108=30|1137=7|10=249|8=FIXT.1.1|9=81|35=A|34=825|49=INITIATOR|52=20231202-04:04:24.342|56=ACCEPTOR|98=0|108=30|1137=7|10=243|8=FIXT.1.1|9=81|35=A|34=826|49=INITIATOR|52=20231202-04:04:25.119|56=ACCEPTOR|98=0|108=30|1137=7|10=247|8=FIXT.1.1|9=81|35=A|34=827|49=INITIATOR|52=20231202-04:04:26.669|56=ACCEPTOR|98=0|108=30|1137=7|10=003|8=FIXT.1.1|9=81|35=A|34=828|49=INITIATOR|52=20231202-04:04:27.444|56=ACCEPTOR|98=0|108=30|1137=7|10=252|8=FIXT.1.1|9=81|35=A|34=829|49=INITIATOR|52=20231202-04:04:28.219|56=ACCEPTOR|98=0|108=30|1137=7|10=254|8=FIXT.1.1|9=81|35=A|34=830|49=INITIATOR|52=20231202-04:04:29.769|56=ACCEPTOR|98=0|108=30|1137=7|10=001|8=FIXT.1.1|9=81|35=A|34=831|49=INITIATOR|52=20231202-04:04:30.544|56=ACCEPTOR|98=0|108=30|1137=7|10=241|8=FIXT.1.1|9=81|35=A|34=832|49=INITIATOR|52=20231202-04:04:31.318|56=ACCEPTOR|98=0|108=30|1137=7|10=242|8=FIXT.1.1|9=81|35=A|34=833|49=INITIATOR|52=20231202-04:04:32.092|56=ACCEPTOR|98=0|108=30|1137=7|10=243|8=FIXT.1.1|9=81|35=A|34=834|49=INITIATOR|52=20231202-04:04:33.638|56=ACCEPTOR|98=0|108=30|1137=7|10=251|8=FIXT.1.1|9=81|35=A|34=835|49=INITIATOR|52=20231202-04:04:34.411|56=ACCEPTOR|98=0|108=30|1137=7|10=242|8=FIXT.1.1|9=81|35=A|34=836|49=INITIATOR|52=20231202-04:04:35.185|56=ACCEPTOR|98=0|108=30|1137=7|10=252|8=FIXT.1.1|9=81|35=A|34=837|49=INITIATOR|52=20231202-04:04:36.730|56=ACCEPTOR|98=0|108=30|1137=7|10=250|8=FIXT.1.1|9=81|35=A|34=838|49=INITIATOR|52=20231202-04:04:37.502|56=ACCEPTOR|98=0|108=30|1137=7|10=249|8=FIXT.1.1|9=81|35=A|34=839|49=INITIATOR|52=20231202-04:04:38.274|56=ACCEPTOR|98=0|108=30|1137=7|10=001|8=FIXT.1.1|9=81|35=A|34=840|49=INITIATOR|52=20231202-04:04:39.046|56=ACCEPTOR|98=0|108=30|1137=7|10=247|8=FIXT.1.1|9=81|35=A|34=841|49=INITIATOR|52=20231202-04:04:40.589|56=ACCEPTOR|98=0|108=30|1137=7|10=252|8=FIXT.1.1|9=81|35=A|34=842|49=INITIATOR|52=20231202-04:04:41.360|56=ACCEPTOR|98=0|108=30|1137=7|10=241|8=FIXT.1.1|9=81|35=A|34=843|49=INITIATOR|52=20231202-04:04:42.130|56=ACCEPTOR|98=0|108=30|1137=7|10=238|8=FIXT.1.1|9=81|35=A|34=844|49=INITIATOR|52=20231202-04:04:43.670|56=ACCEPTOR|98=0|108=30|1137=7|10=249|8=FIXT.1.1|9=81|35=A|34=845|49=INITIATOR|52=20231202-04:04:44.440|56=ACCEPTOR|98=0|108=30|1137=7|10=246|8=FIXT.1.1|9=81|35=A|34=846|49=INITIATOR|52=20231202-04:04:45.210|56=ACCEPTOR|98=0|108=30|1137=7|10=243|8=FIXT.1.1|9=81|35=A|34=847|49=INITIATOR|52=20231202-04:04:46.748|56=ACCEPTOR|98=0|108=30|1137=7|10=005|8=FIXT.1.1|9=81|35=A|34=848|49=INITIATOR|52=20231202-04:04:47.518|56=ACCEPTOR|98=0|108=30|1137=7|10=002|8=FIXT.1.1|9=81|35=A|34=849|49=INITIATOR|52=20231202-04:04:48.287|56=ACCEPTOR|98=0|108=30|1137=7|10=007|8=FIXT.1.1|9=81|35=A|34=850|49=INITIATOR|52=20231202-04:04:49.055|56=ACCEPTOR|98=0|108=30|1137=7|10=249|8=FIXT.1.1|9=81|35=A|34=851|49=INITIATOR|52=20231202-04:04:50.591|56=ACCEPTOR|98=0|108=30|1137=7|10=247|8=FIXT.1.1|9=81|35=A|34=852|49=INITIATOR|52=20231202-04:04:51.359|56=ACCEPTOR|98=0|108=30|1137=7|10=251|8=FIXT.1.1|9=81|35=A|34=853|49=INITIATOR|52=20231202-04:04:52.127|56=ACCEPTOR|98=0|108=30|1137=7|10=246|8=FIXT.1.1|9=81|35=A|34=854|49=INITIATOR|52=20231202-04:04:53.661|56=ACCEPTOR|98=0|108=30|1137=7|10=251|8=FIXT.1.1|9=81|35=A|34=855|49=INITIATOR|52=20231202-04:04:54.429|56=ACCEPTOR|98=0|108=30|1137=7|10=255|8=FIXT.1.1|9=81|35=A|34=856|49=INITIATOR|52=20231202-04:04:55.196|56=ACCEPTOR|98=0|108=30|1137=7|10=002|8=FIXT.1.1|9=81|35=A|34=857|49=INITIATOR|52=20231202-04:04:56.728|56=ACCEPTOR|98=0|108=30|1137=7|10=005|8=FIXT.1.1|9=81|35=A|34=858|49=INITIATOR|52=20231202-04:04:57.494|56=ACCEPTOR|98=0|108=30|1137=7|10=007|8=FIXT.1.1|9=81|35=A|34=859|49=INITIATOR|52=20231202-04:04:58.260|56=ACCEPTOR|98=0|108=30|1137=7|10=000|8=FIXT.1.1|9=81|35=A|34=860|49=INITIATOR|52=20231202-04:04:59.027|56=ACCEPTOR|98=0|108=30|1137=7|10=250|8=FIXT.1.1|9=81|35=A|34=861|49=INITIATOR|52=20231202-04:05:00.557|56=ACCEPTOR|98=0|108=30|1137=7|10=246|8=FIXT.1.1|9=81|35=A|34=862|49=INITIATOR|52=20231202-04:05:01.322|56=ACCEPTOR|98=0|108=30|1137=7|10=238|8=FIXT.1.1|9=81|35=A|34=863|49=INITIATOR|52=20231202-04:05:02.087|56=ACCEPTOR|98=0|108=30|1137=7|10=248|8=FIXT.1.1|9=81|35=A|34=864|49=INITIATOR|52=20231202-04:05:03.615|56=ACCEPTOR|98=0|108=30|1137=7|10=247|8=FIXT.1.1|9=81|35=A|34=865|49=INITIATOR|52=20231202-04:05:04.379|56=ACCEPTOR|98=0|108=30|1137=7|10=000|8=FIXT.1.1|9=81|35=A|34=866|49=INITIATOR|52=20231202-04:05:05.144|56=ACCEPTOR|98=0|108=30|1137=7|10=248|8=FIXT.1.1|9=81|35=A|34=867|49=INITIATOR|52=20231202-04:05:06.672|56=ACCEPTOR|98=0|108=30|1137=7|10=000|8=FIXT.1.1|9=81|35=A|34=868|49=INITIATOR|52=20231202-04:05:07.435|56=ACCEPTOR|98=0|108=30|1137=7|10=255|8=FIXT.1.1|9=81|35=A|34=869|49=INITIATOR|52=20231202-04:05:08.198|56=ACCEPTOR|98=0|108=30|1137=7|10=007|8=FIXT.1.1|9=81|35=A|34=870|49=INITIATOR|52=20231202-04:05:09.724|56=ACCEPTOR|98=0|108=30|1137=7|10=251|8=FIXT.1.1|9=81|35=A|34=871|49=INITIATOR|52=20231202-04:05:10.486|56=ACCEPTOR|98=0|108=30|1137=7|10=249|8=FIXT.1.1|9=81|35=A|34=872|49=INITIATOR|52=20231202-04:05:11.248|56=ACCEPTOR|98=0|108=30|1137=7|10=247|8=FIXT.1.1|9=81|35=A|34=873|49=INITIATOR|52=20231202-04:05:12.010|56=ACCEPTOR|98=0|108=30|1137=7|10=236|8=FIXT.1.1|9=81|35=A|34=874|49=INITIATOR|52=20231202-04:05:13.534|56=ACCEPTOR|98=0|108=30|1137=7|10=249|8=FIXT.1.1|9=81|35=A|34=875|49=INITIATOR|52=20231202-04:05:14.295|56=ACCEPTOR|98=0|108=30|1137=7|10=255|8=FIXT.1.1|9=81|35=A|34=876|49=INITIATOR|52=20231202-04:05:15.057|56=ACCEPTOR|98=0|108=30|1137=7|10=253|8=FIXT.1.1|9=81|35=A|34=877|49=INITIATOR|52=20231202-04:05:16.579|56=ACCEPTOR|98=0|108=30|1137=7|10=008|8=FIXT.1.1|9=81|35=A|34=878|49=INITIATOR|52=20231202-04:05:17.339|56=ACCEPTOR|98=0|108=30|1137=7|10=004|8=FIXT.1.1|9=81|35=A|34=879|49=INITIATOR|52=20231202-04:05:18.099|56=ACCEPTOR|98=0|108=30|1137=7|10=009|8=FIXT.1.1|9=81|35=A|34=880|49=INITIATOR|52=20231202-04:05:19.619|56=ACCEPTOR|98=0|108=30|1137=7|10=000|8=FIXT.1.1|9=81|35=A|34=881|49=INITIATOR|52=20231202-04:05:20.378|56=ACCEPTOR|98=0|108=30|1137=7|10=251|8=FIXT.1.1|9=81|35=A|34=882|49=INITIATOR|52=20231202-04:05:21.138|56=ACCEPTOR|98=0|108=30|1137=7|10=247|8=FIXT.1.1|9=81|35=A|34=883|49=INITIATOR|52=20231202-04:05:22.656|56=ACCEPTOR|98=0|108=30|1137=7|10=254|8=FIXT.1.1|9=81|35=A|34=884|49=INITIATOR|52=20231202-04:05:23.415|56=ACCEPTOR|98=0|108=30|1137=7|10=249|8=FIXT.1.1|9=81|35=A|34=885|49=INITIATOR|52=20231202-04:05:24.173|56=ACCEPTOR|98=0|108=30|1137=7|10=252|8=FIXT.1.1|9=81|35=A|34=886|49=INITIATOR|52=20231202-04:05:25.689|56=ACCEPTOR|98=0|108=30|1137=7|10=010|8=FIXT.1.1|9=81|35=A|34=887|49=INITIATOR|52=20231202-04:05:26.447|56=ACCEPTOR|98=0|108=30|1137=7|10=004|8=FIXT.1.1|9=81|35=A|34=888|49=INITIATOR|52=20231202-04:05:27.205|56=ACCEPTOR|98=0|108=30|1137=7|10=254|8=FIXT.1.1|9=81|35=A|34=889|49=INITIATOR|52=20231202-04:05:28.719|56=ACCEPTOR|98=0|108=30|1137=7|10=010|8=FIXT.1.1|9=81|35=A|34=890|49=INITIATOR|52=20231202-04:05:29.476|56=ACCEPTOR|98=0|108=30|1137=7|10=003|8=FIXT.1.1|9=81|35=A|34=891|49=INITIATOR|52=20231202-04:05:30.233|56=ACCEPTOR|98=0|108=30|1137=7|10=243|8=FIXT.1.1|9=81|35=A|34=892|49=INITIATOR|52=20231202-04:05:31.745|56=ACCEPTOR|98=0|108=30|1137=7|10=253|8=FIXT.1.1|9=81|35=A|34=893|49=INITIATOR|52=20231202-04:05:32.502|56=ACCEPTOR|98=0|108=30|1137=7|10=246|8=FIXT.1.1|9=81|35=A|34=894|49=INITIATOR|52=20231202-04:05:33.258|56=ACCEPTOR|98=0|108=30|1137=7|10=000|8=FIXT.1.1|9=81|35=A|34=895|49=INITIATOR|52=20231202-04:05:34.013|56=ACCEPTOR|98=0|108=30|1137=7|10=247|8=FIXT.1.1|9=81|35=A|34=896|49=INITIATOR|52=20231202-04:05:35.523|56=ACCEPTOR|98=0|108=30|1137=7|10=255|8=FIXT.1.1|9=81|35=A|34=897|49=INITIATOR|52=20231202-04:05:36.278|56=ACCEPTOR|98=0|108=30|1137=7|10=008|8=FIXT.1.1|9=81|35=A|34=898|49=INITIATOR|52=20231202-04:05:37.034|56=ACCEPTOR|98=0|108=30|1137=7|10=000|8=FIXT.1.1|9=81|35=A|34=899|49=INITIATOR|52=20231202-04:05:38.542|56=ACCEPTOR|98=0|108=30|1137=7|10=006|8=FIXT.1.1|9=81|35=A|34=900|49=INITIATOR|52=20231202-04:05:39.296|56=ACCEPTOR|98=0|108=30|1137=7|10=252|8=FIXT.1.1|9=81|35=A|34=901|49=INITIATOR|52=20231202-04:05:40.050|56=ACCEPTOR|98=0|108=30|1137=7|10=233|8=FIXT.1.1|9=81|35=A|34=902|49=INITIATOR|52=20231202-04:05:41.556|56=ACCEPTOR|98=0|108=30|1137=7|10=246|8=FIXT.1.1|9=81|35=A|34=903|49=INITIATOR|52=20231202-04:05:42.310|56=ACCEPTOR|98=0|108=30|1137=7|10=236|8=FIXT.1.1|9=81|35=A|34=904|49=INITIATOR|52=20231202-04:05:43.063|56=ACCEPTOR|98=0|108=30|1137=7|10=243|8=FIXT.1.1|9=81|35=A|34=905|49=INITIATOR|52=20231202-04:05:44.569|56=ACCEPTOR|98=0|108=30|1137=7|10=000|8=FIXT.1.1|9=81|35=A|34=906|49=INITIATOR|52=20231202-04:05:45.321|56=ACCEPTOR|98=0|108=30|1137=7|10=244|8=FIXT.1.1|9=81|35=A|34=907|49=INITIATOR|52=20231202-04:05:46.073|56=ACCEPTOR|98=0|108=30|1137=7|10=250|8=FIXT.1.1|9=81|35=A|34=908|49=INITIATOR|52=20231202-04:05:47.577|56=ACCEPTOR|98=0|108=30|1137=7|10=005|8=FIXT.1.1|9=81|35=A|34=909|49=INITIATOR|52=20231202-04:05:48.328|56=ACCEPTOR|98=0|108=30|1137=7|10=001|8=FIXT.1.1|9=81|35=A|34=910|49=INITIATOR|52=20231202-04:05:49.080|56=ACCEPTOR|98=0|108=30|1137=7|10=245|8=FIXT.1.1|9=81|35=A|34=911|49=INITIATOR|52=20231202-04:05:50.582|56=ACCEPTOR|98=0|108=30|1137=7|10=245|8=FIXT.1.1|9=81|35=A|34=912|49=INITIATOR|52=20231202-04:05:51.332|56=ACCEPTOR|98=0|108=30|1137=7|10=240|8=FIXT.1.1|9=81|35=A|34=913|49=INITIATOR|52=20231202-04:05:52.082|56=ACCEPTOR|98=0|108=30|1137=7|10=244|8=FIXT.1.1|9=81|35=A|34=914|49=INITIATOR|52=20231202-04:05:53.582|56=ACCEPTOR|98=0|108=30|1137=7|10=251|8=FIXT.1.1|9=81|35=A|34=915|49=INITIATOR|52=20231202-04:05:54.332|56=ACCEPTOR|98=0|108=30|1137=7|10=246|8=FIXT.1.1|9=81|35=A|34=916|49=INITIATOR|52=20231202-04:05:55.081|56=ACCEPTOR|98=0|108=30|1137=7|10=249|8=FIXT.1.1|9=81|35=A|34=917|49=INITIATOR|52=20231202-04:05:56.580|56=ACCEPTOR|98=0|108=30|1137=7|10=255|8=FIXT.1.1|9=81|35=A|34=918|49=INITIATOR|52=20231202-04:05:57.329|56=ACCEPTOR|98=0|108=30|1137=7|10=002|8=FIXT.1.1|9=81|35=A|34=919|49=INITIATOR|52=20231202-04:05:58.077|56=ACCEPTOR|98=0|108=30|1137=7|10=004|8=FIXT.1.1|9=81|35=A|34=920|49=INITIATOR|52=20231202-04:05:59.573|56=ACCEPTOR|98=0|108=30|1137=7|10=254|8=FIXT.1.1|9=81|35=A|34=921|49=INITIATOR|52=20231202-04:06:00.321|56=ACCEPTOR|98=0|108=30|1137=7|10=233|8=FIXT.1.1|9=81|35=A|34=922|49=INITIATOR|52=20231202-04:06:01.068|56=ACCEPTOR|98=0|108=30|1137=7|10=243|8=FIXT.1.1|9=81|35=A|34=923|49=INITIATOR|52=20231202-04:06:02.562|56=ACCEPTOR|98=0|108=30|1137=7|10=244|8=FIXT.1.1|9=81|35=A|34=924|49=INITIATOR|52=20231202-04:06:03.310|56=ACCEPTOR|98=0|108=30|1137=7|10=237|8=FIXT.1.1|9=81|35=A|34=925|49=INITIATOR|52=20231202-04:06:04.056|56=ACCEPTOR|98=0|108=30|1137=7|10=246|8=FIXT.1.1|9=81|35=A|34=926|49=INITIATOR|52=20231202-04:06:05.548|56=ACCEPTOR|98=0|108=30|1137=7|10=254|8=FIXT.1.1|9=81|35=A|34=927|49=INITIATOR|52=20231202-04:06:06.294|56=ACCEPTOR|98=0|108=30|1137=7|10=254|8=FIXT.1.1|9=81|35=A|34=928|49=INITIATOR|52=20231202-04:06:07.039|56=ACCEPTOR|98=0|108=30|1137=7|10=253|8=FIXT.1.1|9=81|35=A|34=929|49=INITIATOR|52=20231202-04:06:08.529|56=ACCEPTOR|98=0|108=30|1137=7|10=003|8=FIXT.1.1|9=81|35=A|34=930|49=INITIATOR|52=20231202-04:06:09.275|56=ACCEPTOR|98=0|108=30|1137=7|10=250|8=FIXT.1.1|9=81|35=A|34=931|49=INITIATOR|52=20231202-04:06:10.019|56=ACCEPTOR|98=0|108=30|1137=7|10=239|8=FIXT.1.1|9=81|35=A|34=932|49=INITIATOR|52=20231202-04:06:11.507|56=ACCEPTOR|98=0|108=30|1137=7|10=243|8=FIXT.1.1|9=81|35=A|34=933|49=INITIATOR|52=20231202-04:06:12.251|56=ACCEPTOR|98=0|108=30|1137=7|10=241|8=FIXT.1.1|9=81|35=A|34=934|49=INITIATOR|52=20231202-04:06:13.739|56=ACCEPTOR|98=0|108=30|1137=7|10=254|8=FIXT.1.1|9=81|35=A|34=935|49=INITIATOR|52=20231202-04:06:14.482|56=ACCEPTOR|98=0|108=30|1137=7|10=251|8=FIXT.1.1|9=81|35=A|34=936|49=INITIATOR|52=20231202-04:06:15.225|56=ACCEPTOR|98=0|108=30|1137=7|10=248|8=FIXT.1.1|9=81|35=A|34=937|49=INITIATOR|52=20231202-04:06:16.711|56=ACCEPTOR|98=0|108=30|1137=7|10=250|8=FIXT.1.1|9=81|35=A|34=938|49=INITIATOR|52=20231202-04:06:17.454|56=ACCEPTOR|98=0|108=30|1137=7|10=000|8=FIXT.1.1|9=81|35=A|34=939|49=INITIATOR|52=20231202-04:06:18.196|56=ACCEPTOR|98=0|108=30|1137=7|10=005|8=FIXT.1.1|9=81|35=A|34=940|49=INITIATOR|52=20231202-04:06:19.680|56=ACCEPTOR|98=0|108=30|1137=7|10=252|8=FIXT.1.1|9=81|35=A|34=941|49=INITIATOR|52=20231202-04:06:20.421|56=ACCEPTOR|98=0|108=30|1137=7|10=238|8=FIXT.1.1|9=81|35=A|34=942|49=INITIATOR|52=20231202-04:06:21.162|56=ACCEPTOR|98=0|108=30|1137=7|10=242|8=FIXT.1.1|9=81|35=A|34=943|49=INITIATOR|52=20231202-04:06:22.644|56=ACCEPTOR|98=0|108=30|1137=7|10=249|8=FIXT.1.1|9=81|35=A|34=944|49=INITIATOR|52=20231202-04:06:23.385|56=ACCEPTOR|98=0|108=30|1137=7|10=253|8=FIXT.1.1|9=81|35=A|34=945|49=INITIATOR|52=20231202-04:06:24.125|56=ACCEPTOR|98=0|108=30|1137=7|10=247|8=FIXT.1.1|9=81|35=A|34=946|49=INITIATOR|52=20231202-04:06:25.605|56=ACCEPTOR|98=0|108=30|1137=7|10=252|8=FIXT.1.1|9=81|35=A|34=947|49=INITIATOR|52=20231202-04:06:26.345|56=ACCEPTOR|98=0|108=30|1137=7|10=255|8=FIXT.1.1|9=81|35=A|34=948|49=INITIATOR|52=20231202-04:06:27.085|56=ACCEPTOR|98=0|108=30|1137=7|10=002|8=FIXT.1.1|9=81|35=A|34=949|49=INITIATOR|52=20231202-04:06:28.563|56=ACCEPTOR|98=0|108=30|1137=7|10=005|8=FIXT.1.1|9=81|35=A|34=950|49=INITIATOR|52=20231202-04:06:29.302|56=ACCEPTOR|98=0|108=30|1137=7|10=245|8=FIXT.1.1|9=81|35=A|34=951|49=INITIATOR|52=20231202-04:06:30.041|56=ACCEPTOR|98=0|108=30|1137=7|10=238|8=FIXT.1.1|9=81|35=A|34=952|49=INITIATOR|52=20231202-04:06:31.517|56=ACCEPTOR|98=0|108=30|1137=7|10=248|8=FIXT.1.1|9=81|35=A|34=953|49=INITIATOR|52=20231202-04:06:32.255|56=ACCEPTOR|98=0|108=30|1137=7|10=249|8=FIXT.1.1|9=81|35=A|34=954|49=INITIATOR|52=20231202-04:06:33.738|56=ACCEPTOR|98=0|108=30|1137=7|10=001|8=FIXT.1.1|9=81|35=A|34=955|49=INITIATOR|52=20231202-04:06:34.475|56=ACCEPTOR|98=0|108=30|1137=7|10=001|8=FIXT.1.1|9=81|35=A|34=956|49=INITIATOR|52=20231202-04:06:35.212|56=ACCEPTOR|98=0|108=30|1137=7|10=248|8=FIXT.1.1|9=81|35=A|34=957|49=INITIATOR|52=20231202-04:06:36.686|56=ACCEPTOR|98=0|108=30|1137=7|10=009|8=FIXT.1.1|9=81|35=A|34=958|49=INITIATOR|52=20231202-04:06:37.422|56=ACCEPTOR|98=0|108=30|1137=7|10=255|8=FIXT.1.1|9=81|35=A|34=959|49=INITIATOR|52=20231202-04:06:38.158|56=ACCEPTOR|98=0|108=30|1137=7|10=007|8=FIXT.1.1|9=81|35=A|34=960|49=INITIATOR|52=20231202-04:06:39.630|56=ACCEPTOR|98=0|108=30|1137=7|10=251|8=FIXT.1.1|9=81|35=A|34=961|49=INITIATOR|52=20231202-04:06:40.366|56=ACCEPTOR|98=0|108=30|1137=7|10=250|8=FIXT.1.1|9=81|35=A|34=962|49=INITIATOR|52=20231202-04:06:41.102|56=ACCEPTOR|98=0|108=30|1137=7|10=240|8=FIXT.1.1|9=81|35=A|34=963|49=INITIATOR|52=20231202-04:06:4